{
  "_format": "hh-sol-artifact-1",
  "contractName": "ContractPayment",
  "sourceName": "contracts/ContractPayment.sol",
  "abi": [
    {
      "inputs": [
        {
          "internalType": "address",
          "name": "_contractDeliveryAddress",
          "type": "address"
        }
      ],
      "stateMutability": "nonpayable",
      "type": "constructor"
    },
    {
      "anonymous": false,
      "inputs": [
        {
          "indexed": true,
          "internalType": "uint256",
          "name": "lotId",
          "type": "uint256"
        },
        {
          "indexed": false,
          "internalType": "uint256",
          "name": "amount",
          "type": "uint256"
        },
        {
          "indexed": false,
          "internalType": "address",
          "name": "payee",
          "type": "address"
        }
      ],
      "name": "FundsDeposited",
      "type": "event"
    },
    {
      "anonymous": false,
      "inputs": [
        {
          "indexed": true,
          "internalType": "uint256",
          "name": "lotId",
          "type": "uint256"
        },
        {
          "indexed": false,
          "internalType": "uint256",
          "name": "amount",
          "type": "uint256"
        },
        {
          "indexed": false,
          "internalType": "address",
          "name": "payee",
          "type": "address"
        }
      ],
      "name": "PaymentReleased",
      "type": "event"
    },
    {
      "inputs": [],
      "name": "contractDelivery",
      "outputs": [
        {
          "internalType": "contract IContractDelivery",
          "name": "",
          "type": "address"
        }
      ],
      "stateMutability": "view",
      "type": "function"
    },
    {
      "inputs": [
        {
          "internalType": "uint256",
          "name": "_lotId",
          "type": "uint256"
        },
        {
          "internalType": "address",
          "name": "_payee",
          "type": "address"
        }
      ],
      "name": "deposit",
      "outputs": [],
      "stateMutability": "payable",
      "type": "function"
    },
    {
      "inputs": [
        {
          "internalType": "uint256",
          "name": "",
          "type": "uint256"
        }
      ],
      "name": "escrowAmount",
      "outputs": [
        {
          "internalType": "uint256",
          "name": "",
          "type": "uint256"
        }
      ],
      "stateMutability": "view",
      "type": "function"
    },
    {
      "inputs": [
        {
          "internalType": "uint256",
          "name": "",
          "type": "uint256"
        }
      ],
      "name": "paid",
      "outputs": [
        {
          "internalType": "bool",
          "name": "",
          "type": "bool"
        }
      ],
      "stateMutability": "view",
      "type": "function"
    },
    {
      "inputs": [
        {
          "internalType": "uint256",
          "name": "",
          "type": "uint256"
        }
      ],
      "name": "payee",
      "outputs": [
        {
          "internalType": "address",
          "name": "",
          "type": "address"
        }
      ],
      "stateMutability": "view",
      "type": "function"
    },
    {
      "inputs": [
        {
          "internalType": "uint256",
          "name": "_lotId",
          "type": "uint256"
        }
      ],
      "name": "releasePayment",
      "outputs": [],
      "stateMutability": "nonpayable",
      "type": "function"
    }
  ],
  "bytecode": "0x608060405234801561001057600080fd5b50604051610e2e380380610e2e833981810160405281019061003291906100db565b806000806101000a81548173ffffffffffffffffffffffffffffffffffffffff021916908373ffffffffffffffffffffffffffffffffffffffff16021790555050610108565b600080fd5b600073ffffffffffffffffffffffffffffffffffffffff82169050919050565b60006100a88261007d565b9050919050565b6100b88161009d565b81146100c357600080fd5b50565b6000815190506100d5816100af565b92915050565b6000602082840312156100f1576100f0610078565b5b60006100ff848285016100c6565b91505092915050565b610d17806101176000396000f3fe6080604052600436106100555760003560e01c8063551352f91461005a5780635d19e56c146100855780636e553f65146100c257806388685cd9146100de5780638b83209b14610107578063efa51cda14610144575b600080fd5b34801561006657600080fd5b5061006f610181565b60405161007c919061072a565b60405180910390f35b34801561009157600080fd5b506100ac60048036038101906100a79190610780565b6101a5565b6040516100b991906107bc565b60405180910390f35b6100dc60048036038101906100d79190610815565b6101bd565b005b3480156100ea57600080fd5b5061010560048036038101906101009190610780565b6102fe565b005b34801561011357600080fd5b5061012e60048036038101906101299190610780565b610658565b60405161013b9190610864565b60405180910390f35b34801561015057600080fd5b5061016b60048036038101906101669190610780565b61068b565b604051610178919061089a565b60405180910390f35b60008054906101000a900473ffffffffffffffffffffffffffffffffffffffff1681565b60016020528060005260406000206000915090505481565b60003411610200576040517f08c379a00000000000000000000000000000000000000000000000000000000081526004016101f790610912565b60405180910390fd5b6000600160008481526020019081526020016000205414610256576040517f08c379a000000000000000000000000000000000000000000000000000000000815260040161024d906109a4565b60405180910390fd5b346001600084815260200190815260200160002081905550806002600084815260200190815260200160002060006101000a81548173ffffffffffffffffffffffffffffffffffffffff021916908373ffffffffffffffffffffffffffffffffffffffff160217905550817f173e65f112f35b3978d871d854bb35f9d5208d7a65fe387d0ef353d0d2b64e7b34836040516102f29291906109c4565b60405180910390a25050565b6000600160008381526020019081526020016000205411610354576040517f08c379a000000000000000000000000000000000000000000000000000000000815260040161034b90610a39565b60405180910390fd5b6003600082815260200190815260200160002060009054906101000a900460ff16156103b5576040517f08c379a00000000000000000000000000000000000000000000000000000000081526004016103ac90610aa5565b60405180910390fd5b60008060008054906101000a900473ffffffffffffffffffffffffffffffffffffffff1673ffffffffffffffffffffffffffffffffffffffff166380213d59846040518263ffffffff1660e01b815260040161041191906107bc565b6040805180830381865afa15801561042d573d6000803e3d6000fd5b505050506040513d601f19601f820116820180604052508101906104519190610af1565b9150915081610495576040517f08c379a000000000000000000000000000000000000000000000000000000000815260040161048c90610b7d565b60405180910390fd5b806104d5576040517f08c379a00000000000000000000000000000000000000000000000000000000081526004016104cc90610c0f565b60405180910390fd5b60006001600085815260200190815260200160002054905060006002600086815260200190815260200160002060009054906101000a900473ffffffffffffffffffffffffffffffffffffffff16905060016003600087815260200190815260200160002060006101000a81548160ff0219169083151502179055506000600160008781526020019081526020016000208190555060008173ffffffffffffffffffffffffffffffffffffffff168360405161059090610c60565b60006040518083038185875af1925050503d80600081146105cd576040519150601f19603f3d011682016040523d82523d6000602084013e6105d2565b606091505b5050905080610616576040517f08c379a000000000000000000000000000000000000000000000000000000000815260040161060d90610cc1565b60405180910390fd5b857fb398ec266cae176bd0a8d43b35200da0bb13c5620ad5e1663abdc3967a4ee50f84846040516106489291906109c4565b60405180910390a2505050505050565b60026020528060005260406000206000915054906101000a900473ffffffffffffffffffffffffffffffffffffffff1681565b60036020528060005260406000206000915054906101000a900460ff1681565b600073ffffffffffffffffffffffffffffffffffffffff82169050919050565b6000819050919050565b60006106f06106eb6106e6846106ab565b6106cb565b6106ab565b9050919050565b6000610702826106d5565b9050919050565b6000610714826106f7565b9050919050565b61072481610709565b82525050565b600060208201905061073f600083018461071b565b92915050565b600080fd5b6000819050919050565b61075d8161074a565b811461076857600080fd5b50565b60008135905061077a81610754565b92915050565b60006020828403121561079657610795610745565b5b60006107a48482850161076b565b91505092915050565b6107b68161074a565b82525050565b60006020820190506107d160008301846107ad565b92915050565b60006107e2826106ab565b9050919050565b6107f2816107d7565b81146107fd57600080fd5b50565b60008135905061080f816107e9565b92915050565b6000806040838503121561082c5761082b610745565b5b600061083a8582860161076b565b925050602061084b85828601610800565b9150509250929050565b61085e816107d7565b82525050565b60006020820190506108796000830184610855565b92915050565b60008115159050919050565b6108948161087f565b82525050565b60006020820190506108af600083018461088b565b92915050565b600082825260208201905092915050565b7f416d6f756e74206d7573742062652067726561746572207468616e2030000000600082015250565b60006108fc601d836108b5565b9150610907826108c6565b602082019050919050565b6000602082019050818103600083015261092b816108ef565b9050919050565b7f46756e647320616c7265616479206465706f736974656420666f72207468697360008201527f204c6f7400000000000000000000000000000000000000000000000000000000602082015250565b600061098e6024836108b5565b915061099982610932565b604082019050919050565b600060208201905081810360008301526109bd81610981565b9050919050565b60006040820190506109d960008301856107ad565b6109e66020830184610855565b9392505050565b7f4e6f2066756e647320666f722074686973204c6f740000000000000000000000600082015250565b6000610a236015836108b5565b9150610a2e826109ed565b602082019050919050565b60006020820190508181036000830152610a5281610a16565b9050919050565b7f416c726561647920706169640000000000000000000000000000000000000000600082015250565b6000610a8f600c836108b5565b9150610a9a82610a59565b602082019050919050565b60006020820190508181036000830152610abe81610a82565b9050919050565b610ace8161087f565b8114610ad957600080fd5b50565b600081519050610aeb81610ac5565b92915050565b60008060408385031215610b0857610b07610745565b5b6000610b1685828601610adc565b9250506020610b2785828601610adc565b9150509250929050565b7f44656c6976657279206e6f742076616c69646174656420796574000000000000600082015250565b6000610b67601a836108b5565b9150610b7282610b31565b602082019050919050565b60006020820190508181036000830152610b9681610b5a565b9050919050565b7f44656c6976657279206e6f7420636f6d706c69616e742c207061796d656e742060008201527f68656c6400000000000000000000000000000000000000000000000000000000602082015250565b6000610bf96024836108b5565b9150610c0482610b9d565b604082019050919050565b60006020820190508181036000830152610c2881610bec565b9050919050565b600081905092915050565b50565b6000610c4a600083610c2f565b9150610c5582610c3a565b600082019050919050565b6000610c6b82610c3d565b9150819050919050565b7f4661696c656420746f2073656e64204574686572000000000000000000000000600082015250565b6000610cab6014836108b5565b9150610cb682610c75565b602082019050919050565b60006020820190508181036000830152610cda81610c9e565b905091905056fea2646970667358221220f9c782863c62bc18d5dcfc5c8a5d8dd846a2d9772f8f73b02eea67916a952d3364736f6c634300081c0033",
  "linkReferences": {},
  "deployedLinkReferences": {}
}