{
  "_format": "hh-sol-artifact-1",
  "contractName": "EscrowPayment",
  "sourceName": "contracts/EscrowPayment.sol",
  "abi": [
    {
      "inputs": [
        {
          "internalType": "address",
          "name": "_supplyChainAddress",
          "type": "address"
        }
      ],
      "stateMutability": "nonpayable",
      "type": "constructor"
    },
    {
      "anonymous": false,
      "inputs": [
        {
          "indexed": true,
          "internalType": "uint256",
          "name": "lotId",
          "type": "uint256"
        },
        {
          "indexed": true,
          "internalType": "address",
          "name": "buyer",
          "type": "address"
        },
        {
          "indexed": true,
          "internalType": "address",
          "name": "seller",
          "type": "address"
        },
        {
          "indexed": false,
          "internalType": "uint256",
          "name": "amount",
          "type": "uint256"
        }
      ],
      "name": "PaymentDeposited",
      "type": "event"
    },
    {
      "anonymous": false,
      "inputs": [
        {
          "indexed": true,
          "internalType": "uint256",
          "name": "lotId",
          "type": "uint256"
        },
        {
          "indexed": true,
          "internalType": "address",
          "name": "buyer",
          "type": "address"
        },
        {
          "indexed": false,
          "internalType": "uint256",
          "name": "amount",
          "type": "uint256"
        }
      ],
      "name": "PaymentRefunded",
      "type": "event"
    },
    {
      "anonymous": false,
      "inputs": [
        {
          "indexed": true,
          "internalType": "uint256",
          "name": "lotId",
          "type": "uint256"
        },
        {
          "indexed": true,
          "internalType": "address",
          "name": "seller",
          "type": "address"
        },
        {
          "indexed": false,
          "internalType": "uint256",
          "name": "amount",
          "type": "uint256"
        }
      ],
      "name": "PaymentReleased",
      "type": "event"
    },
    {
      "inputs": [
        {
          "internalType": "uint256",
          "name": "_lotId",
          "type": "uint256"
        }
      ],
      "name": "depositPayment",
      "outputs": [],
      "stateMutability": "payable",
      "type": "function"
    },
    {
      "inputs": [],
      "name": "getContractBalance",
      "outputs": [
        {
          "internalType": "uint256",
          "name": "",
          "type": "uint256"
        }
      ],
      "stateMutability": "view",
      "type": "function"
    },
    {
      "inputs": [
        {
          "internalType": "uint256",
          "name": "_lotId",
          "type": "uint256"
        }
      ],
      "name": "getLotPrice",
      "outputs": [
        {
          "internalType": "uint256",
          "name": "",
          "type": "uint256"
        }
      ],
      "stateMutability": "view",
      "type": "function"
    },
    {
      "inputs": [
        {
          "internalType": "uint256",
          "name": "_lotId",
          "type": "uint256"
        }
      ],
      "name": "getPayment",
      "outputs": [
        {
          "components": [
            {
              "internalType": "uint256",
              "name": "lotId",
              "type": "uint256"
            },
            {
              "internalType": "address",
              "name": "buyer",
              "type": "address"
            },
            {
              "internalType": "address",
              "name": "seller",
              "type": "address"
            },
            {
              "internalType": "uint256",
              "name": "amount",
              "type": "uint256"
            },
            {
              "internalType": "uint256",
              "name": "createdAt",
              "type": "uint256"
            },
            {
              "internalType": "uint256",
              "name": "releasedAt",
              "type": "uint256"
            },
            {
              "internalType": "bool",
              "name": "released",
              "type": "bool"
            }
          ],
          "internalType": "struct EscrowPayment.Payment",
          "name": "",
          "type": "tuple"
        }
      ],
      "stateMutability": "view",
      "type": "function"
    },
    {
      "inputs": [
        {
          "internalType": "uint256",
          "name": "_index",
          "type": "uint256"
        }
      ],
      "name": "getPaymentByIndex",
      "outputs": [
        {
          "components": [
            {
              "internalType": "uint256",
              "name": "lotId",
              "type": "uint256"
            },
            {
              "internalType": "address",
              "name": "buyer",
              "type": "address"
            },
            {
              "internalType": "address",
              "name": "seller",
              "type": "address"
            },
            {
              "internalType": "uint256",
              "name": "amount",
              "type": "uint256"
            },
            {
              "internalType": "uint256",
              "name": "createdAt",
              "type": "uint256"
            },
            {
              "internalType": "uint256",
              "name": "releasedAt",
              "type": "uint256"
            },
            {
              "internalType": "bool",
              "name": "released",
              "type": "bool"
            }
          ],
          "internalType": "struct EscrowPayment.Payment",
          "name": "",
          "type": "tuple"
        }
      ],
      "stateMutability": "view",
      "type": "function"
    },
    {
      "inputs": [],
      "name": "getPaymentsCount",
      "outputs": [
        {
          "internalType": "uint256",
          "name": "",
          "type": "uint256"
        }
      ],
      "stateMutability": "view",
      "type": "function"
    },
    {
      "inputs": [
        {
          "internalType": "uint256",
          "name": "_lotId",
          "type": "uint256"
        }
      ],
      "name": "isLotCompleted",
      "outputs": [
        {
          "internalType": "bool",
          "name": "",
          "type": "bool"
        }
      ],
      "stateMutability": "view",
      "type": "function"
    },
    {
      "inputs": [
        {
          "internalType": "uint256",
          "name": "",
          "type": "uint256"
        }
      ],
      "name": "paymentLotIds",
      "outputs": [
        {
          "internalType": "uint256",
          "name": "",
          "type": "uint256"
        }
      ],
      "stateMutability": "view",
      "type": "function"
    },
    {
      "inputs": [
        {
          "internalType": "uint256",
          "name": "",
          "type": "uint256"
        }
      ],
      "name": "payments",
      "outputs": [
        {
          "internalType": "uint256",
          "name": "lotId",
          "type": "uint256"
        },
        {
          "internalType": "address",
          "name": "buyer",
          "type": "address"
        },
        {
          "internalType": "address",
          "name": "seller",
          "type": "address"
        },
        {
          "internalType": "uint256",
          "name": "amount",
          "type": "uint256"
        },
        {
          "internalType": "uint256",
          "name": "createdAt",
          "type": "uint256"
        },
        {
          "internalType": "uint256",
          "name": "releasedAt",
          "type": "uint256"
        },
        {
          "internalType": "bool",
          "name": "released",
          "type": "bool"
        }
      ],
      "stateMutability": "view",
      "type": "function"
    },
    {
      "inputs": [
        {
          "internalType": "uint256",
          "name": "_lotId",
          "type": "uint256"
        }
      ],
      "name": "refundPayment",
      "outputs": [],
      "stateMutability": "nonpayable",
      "type": "function"
    },
    {
      "inputs": [
        {
          "internalType": "uint256",
          "name": "_lotId",
          "type": "uint256"
        }
      ],
      "name": "releasePayment",
      "outputs": [],
      "stateMutability": "nonpayable",
      "type": "function"
    },
    {
      "inputs": [],
      "name": "supplyChain",
      "outputs": [
        {
          "internalType": "contract ISupplyChain",
          "name": "",
          "type": "address"
        }
      ],
      "stateMutability": "view",
      "type": "function"
    },
    {
      "inputs": [
        {
          "internalType": "address",
          "name": "",
          "type": "address"
        }
      ],
      "name": "totalReceived",
      "outputs": [
        {
          "internalType": "uint256",
          "name": "",
          "type": "uint256"
        }
      ],
      "stateMutability": "view",
      "type": "function"
    },
    {
      "inputs": [
        {
          "internalType": "address",
          "name": "",
          "type": "address"
        }
      ],
      "name": "totalSpent",
      "outputs": [
        {
          "internalType": "uint256",
          "name": "",
          "type": "uint256"
        }
      ],
      "stateMutability": "view",
      "type": "function"
    }
  ],
  "bytecode": "0x608060405234801561001057600080fd5b50604051612533380380612533833981810160405281019061003291906100db565b806000806101000a81548173ffffffffffffffffffffffffffffffffffffffff021916908373ffffffffffffffffffffffffffffffffffffffff16021790555050610108565b600080fd5b600073ffffffffffffffffffffffffffffffffffffffff82169050919050565b60006100a88261007d565b9050919050565b6100b88161009d565b81146100c357600080fd5b50565b6000815190506100d5816100af565b92915050565b6000602082840312156100f1576100f0610078565b5b60006100ff848285016100c6565b91505092915050565b61241c806101176000396000f3fe6080604052600436106100dd5760003560e01c806387d817891161007f578063a8949b4611610059578063a8949b46146102f1578063cacf1e0e1461032e578063d8af22b914610359578063f63813f414610396576100dd565b806387d817891461025a57806388685cd91461029d57806388d84b66146102c6576100dd565b80634df9cfb3116100bb5780634df9cfb3146101995780635922aeda146101d65780636b749c47146102135780636f9fb98a1461022f576100dd565b80630160f9bd146100e257806301fc2be01461011f5780633280a8361461015c575b600080fd5b3480156100ee57600080fd5b506101096004803603810190610104919061150b565b6103bf565b6040516101169190611553565b60405180910390f35b34801561012b57600080fd5b506101466004803603810190610141919061150b565b6103d1565b604051610153919061157d565b60405180910390f35b34801561016857600080fd5b50610183600480360381019061017e919061150b565b610487565b6040516101909190611685565b60405180910390f35b3480156101a557600080fd5b506101c060048036038101906101bb91906116cc565b6105a3565b6040516101cd919061157d565b60405180910390f35b3480156101e257600080fd5b506101fd60048036038101906101f8919061150b565b6105bb565b60405161020a9190611685565b60405180910390f35b61022d6004803603810190610228919061150b565b61073c565b005b34801561023b57600080fd5b50610244610bb4565b604051610251919061157d565b60405180910390f35b34801561026657600080fd5b50610281600480360381019061027c919061150b565b610bbc565b6040516102949796959493929190611708565b60405180910390f35b3480156102a957600080fd5b506102c460048036038101906102bf919061150b565b610c4b565b005b3480156102d257600080fd5b506102db610f37565b6040516102e891906117d6565b60405180910390f35b3480156102fd57600080fd5b50610318600480360381019061031391906116cc565b610f5b565b604051610325919061157d565b60405180910390f35b34801561033a57600080fd5b50610343610f73565b604051610350919061157d565b60405180910390f35b34801561036557600080fd5b50610380600480360381019061037b919061150b565b610f80565b60405161038d919061157d565b60405180910390f35b3480156103a257600080fd5b506103bd60048036038101906103b8919061150b565b610fa4565b005b60006103ca826112bf565b9050919050565b60008060008054906101000a900473ffffffffffffffffffffffffffffffffffffffff1673ffffffffffffffffffffffffffffffffffffffff1663ab995d12846040518263ffffffff1660e01b815260040161042d919061157d565b600060405180830381865afa15801561044a573d6000803e3d6000fd5b505050506040513d6000823e3d601f19601f8201168201806040525081019061047391906119a8565b505050965050505050505080915050919050565b61048f611456565b600160008381526020019081526020016000206040518060e0016040529081600082015481526020016001820160009054906101000a900473ffffffffffffffffffffffffffffffffffffffff1673ffffffffffffffffffffffffffffffffffffffff1673ffffffffffffffffffffffffffffffffffffffff1681526020016002820160009054906101000a900473ffffffffffffffffffffffffffffffffffffffff1673ffffffffffffffffffffffffffffffffffffffff1673ffffffffffffffffffffffffffffffffffffffff1681526020016003820154815260200160048201548152602001600582015481526020016006820160009054906101000a900460ff1615151515815250509050919050565b60036020528060005260406000206000915090505481565b6105c3611456565b600280549050821061060a576040517f08c379a000000000000000000000000000000000000000000000000000000000815260040161060190611b54565b60405180910390fd5b600160006002848154811061062257610621611b74565b5b906000526020600020015481526020019081526020016000206040518060e0016040529081600082015481526020016001820160009054906101000a900473ffffffffffffffffffffffffffffffffffffffff1673ffffffffffffffffffffffffffffffffffffffff1673ffffffffffffffffffffffffffffffffffffffff1681526020016002820160009054906101000a900473ffffffffffffffffffffffffffffffffffffffff1673ffffffffffffffffffffffffffffffffffffffff1673ffffffffffffffffffffffffffffffffffffffff1681526020016003820154815260200160048201548152602001600582015481526020016006820160009054906101000a900460ff1615151515815250509050919050565b6000600160008381526020019081526020016000206003015414610795576040517f08c379a000000000000000000000000000000000000000000000000000000000815260040161078c90611c15565b60405180910390fd5b60008060008060009054906101000a900473ffffffffffffffffffffffffffffffffffffffff1673ffffffffffffffffffffffffffffffffffffffff1663ab995d12856040518263ffffffff1660e01b81526004016107f4919061157d565b600060405180830381865afa158015610811573d6000803e3d6000fd5b505050506040513d6000823e3d601f19601f8201168201806040525081019061083a91906119a8565b9950509850985050505050505080610887576040517f08c379a000000000000000000000000000000000000000000000000000000000815260040161087e90611c81565b60405180910390fd5b3373ffffffffffffffffffffffffffffffffffffffff168273ffffffffffffffffffffffffffffffffffffffff16036108f5576040517f08c379a00000000000000000000000000000000000000000000000000000000081526004016108ec90611ced565b60405180910390fd5b60008311610938576040517f08c379a000000000000000000000000000000000000000000000000000000000815260040161092f90611d59565b60405180910390fd5b82341461097a576040517f08c379a000000000000000000000000000000000000000000000000000000000815260040161097190611dc5565b60405180910390fd5b6040518060e001604052808581526020013373ffffffffffffffffffffffffffffffffffffffff1681526020018373ffffffffffffffffffffffffffffffffffffffff1681526020013481526020014281526020016000815260200160001515815250600160008681526020019081526020016000206000820151816000015560208201518160010160006101000a81548173ffffffffffffffffffffffffffffffffffffffff021916908373ffffffffffffffffffffffffffffffffffffffff16021790555060408201518160020160006101000a81548173ffffffffffffffffffffffffffffffffffffffff021916908373ffffffffffffffffffffffffffffffffffffffff160217905550606082015181600301556080820151816004015560a0820151816005015560c08201518160060160006101000a81548160ff021916908315150217905550905050600284908060018154018082558091505060019003906000526020600020016000909190919091505534600460003373ffffffffffffffffffffffffffffffffffffffff1673ffffffffffffffffffffffffffffffffffffffff1681526020019081526020016000206000828254610b419190611e14565b925050819055508173ffffffffffffffffffffffffffffffffffffffff163373ffffffffffffffffffffffffffffffffffffffff16857f29c2d7a8dc25d06b7381e1fb65651042b117d3918933a244238b44a223384a8f34604051610ba6919061157d565b60405180910390a450505050565b600047905090565b60016020528060005260406000206000915090508060000154908060010160009054906101000a900473ffffffffffffffffffffffffffffffffffffffff16908060020160009054906101000a900473ffffffffffffffffffffffffffffffffffffffff16908060030154908060040154908060050154908060060160009054906101000a900460ff16905087565b60006001600083815260200190815260200160002090506000816003015411610ca9576040517f08c379a0000000000000000000000000000000000000000000000000000000008152600401610ca090611e94565b60405180910390fd5b8060060160009054906101000a900460ff1615610cfb576040517f08c379a0000000000000000000000000000000000000000000000000000000008152600401610cf290611f00565b60405180910390fd5b610d04826112bf565b610d43576040517f08c379a0000000000000000000000000000000000000000000000000000000008152600401610d3a90611f6c565b60405180910390fd5b60018160060160006101000a81548160ff0219169083151502179055504281600501819055508060030154600360008360020160009054906101000a900473ffffffffffffffffffffffffffffffffffffffff1673ffffffffffffffffffffffffffffffffffffffff1673ffffffffffffffffffffffffffffffffffffffff1681526020019081526020016000206000828254610de09190611e14565b9250508190555060008160020160009054906101000a900473ffffffffffffffffffffffffffffffffffffffff1673ffffffffffffffffffffffffffffffffffffffff168260030154604051610e3590611fbd565b60006040518083038185875af1925050503d8060008114610e72576040519150601f19603f3d011682016040523d82523d6000602084013e610e77565b606091505b5050905080610ebb576040517f08c379a0000000000000000000000000000000000000000000000000000000008152600401610eb29061201e565b60405180910390fd5b8160020160009054906101000a900473ffffffffffffffffffffffffffffffffffffffff1673ffffffffffffffffffffffffffffffffffffffff16837f21d71db5be59bb9fa133895586b7404307dd33fb93b16db09dc6f1d9d7d231b08460030154604051610f2a919061157d565b60405180910390a3505050565b60008054906101000a900473ffffffffffffffffffffffffffffffffffffffff1681565b60046020528060005260406000206000915090505481565b6000600280549050905090565b60028181548110610f9057600080fd5b906000526020600020016000915090505481565b60006001600083815260200190815260200160002090506000816003015411611002576040517f08c379a0000000000000000000000000000000000000000000000000000000008152600401610ff990611e94565b60405180910390fd5b8060060160009054906101000a900460ff1615611054576040517f08c379a000000000000000000000000000000000000000000000000000000000815260040161104b90611f00565b60405180910390fd5b3373ffffffffffffffffffffffffffffffffffffffff168160010160009054906101000a900473ffffffffffffffffffffffffffffffffffffffff1673ffffffffffffffffffffffffffffffffffffffff16146110e6576040517f08c379a00000000000000000000000000000000000000000000000000000000081526004016110dd9061208a565b60405180910390fd5b6110ef826112bf565b1561112f576040517f08c379a00000000000000000000000000000000000000000000000000000000081526004016111269061211c565b60405180910390fd5b6000816003015490506000826003018190555060018260060160006101000a81548160ff02191690831515021790555042826005018190555080600460003373ffffffffffffffffffffffffffffffffffffffff1673ffffffffffffffffffffffffffffffffffffffff16815260200190815260200160002060008282546111b7919061213c565b9250508190555060003373ffffffffffffffffffffffffffffffffffffffff16826040516111e490611fbd565b60006040518083038185875af1925050503d8060008114611221576040519150601f19603f3d011682016040523d82523d6000602084013e611226565b606091505b505090508061126a576040517f08c379a0000000000000000000000000000000000000000000000000000000008152600401611261906121bc565b60405180910390fd5b3373ffffffffffffffffffffffffffffffffffffffff16847fe89ec1881a76229445bcd179b8c4b24f9edc7ddd87d07fb3b19c67ae9c6e27cc846040516112b1919061157d565b60405180910390a350505050565b60008060008054906101000a900473ffffffffffffffffffffffffffffffffffffffff1673ffffffffffffffffffffffffffffffffffffffff16637f6de73a846040518263ffffffff1660e01b815260040161131b919061157d565b602060405180830381865afa158015611338573d6000803e3d6000fd5b505050506040513d601f19601f8201168201806040525081019061135c91906121dc565b905060008103611370576000915050611451565b60005b8181101561144a5760008060009054906101000a900473ffffffffffffffffffffffffffffffffffffffff1673ffffffffffffffffffffffffffffffffffffffff16634db0450886846040518363ffffffff1660e01b81526004016113d9929190612209565b600060405180830381865afa1580156113f6573d6000803e3d6000fd5b505050506040513d6000823e3d601f19601f8201168201806040525081019061141f9190612333565b94505050505060018160ff161461143c5760009350505050611451565b508080600101915050611373565b5060019150505b919050565b6040518060e0016040528060008152602001600073ffffffffffffffffffffffffffffffffffffffff168152602001600073ffffffffffffffffffffffffffffffffffffffff1681526020016000815260200160008152602001600081526020016000151581525090565b6000604051905090565b600080fd5b600080fd5b6000819050919050565b6114e8816114d5565b81146114f357600080fd5b50565b600081359050611505816114df565b92915050565b600060208284031215611521576115206114cb565b5b600061152f848285016114f6565b91505092915050565b60008115159050919050565b61154d81611538565b82525050565b60006020820190506115686000830184611544565b92915050565b611577816114d5565b82525050565b6000602082019050611592600083018461156e565b92915050565b6115a1816114d5565b82525050565b600073ffffffffffffffffffffffffffffffffffffffff82169050919050565b60006115d2826115a7565b9050919050565b6115e2816115c7565b82525050565b6115f181611538565b82525050565b60e08201600082015161160d6000850182611598565b50602082015161162060208501826115d9565b50604082015161163360408501826115d9565b5060608201516116466060850182611598565b5060808201516116596080850182611598565b5060a082015161166c60a0850182611598565b5060c082015161167f60c08501826115e8565b50505050565b600060e08201905061169a60008301846115f7565b92915050565b6116a9816115c7565b81146116b457600080fd5b50565b6000813590506116c6816116a0565b92915050565b6000602082840312156116e2576116e16114cb565b5b60006116f0848285016116b7565b91505092915050565b611702816115c7565b82525050565b600060e08201905061171d600083018a61156e565b61172a60208301896116f9565b61173760408301886116f9565b611744606083018761156e565b611751608083018661156e565b61175e60a083018561156e565b61176b60c0830184611544565b98975050505050505050565b6000819050919050565b600061179c611797611792846115a7565b611777565b6115a7565b9050919050565b60006117ae82611781565b9050919050565b60006117c0826117a3565b9050919050565b6117d0816117b5565b82525050565b60006020820190506117eb60008301846117c7565b92915050565b600081519050611800816114df565b92915050565b600080fd5b600080fd5b6000601f19601f8301169050919050565b7f4e487b7100000000000000000000000000000000000000000000000000000000600052604160045260246000fd5b61185982611810565b810181811067ffffffffffffffff8211171561187857611877611821565b5b80604052505050565b600061188b6114c1565b90506118978282611850565b919050565b600067ffffffffffffffff8211156118b7576118b6611821565b5b6118c082611810565b9050602081019050919050565b60005b838110156118eb5780820151818401526020810190506118d0565b60008484015250505050565b600061190a6119058461189c565b611881565b9050828152602081018484840111156119265761192561180b565b5b6119318482856118cd565b509392505050565b600082601f83011261194e5761194d611806565b5b815161195e8482602086016118f7565b91505092915050565b600081519050611976816116a0565b92915050565b61198581611538565b811461199057600080fd5b50565b6000815190506119a28161197c565b92915050565b6000806000806000806000806000806101408b8d0312156119cc576119cb6114cb565b5b60006119da8d828e016117f1565b9a505060208b015167ffffffffffffffff8111156119fb576119fa6114d0565b5b611a078d828e01611939565b99505060408b015167ffffffffffffffff811115611a2857611a276114d0565b5b611a348d828e01611939565b9850506060611a458d828e016117f1565b97505060808b015167ffffffffffffffff811115611a6657611a656114d0565b5b611a728d828e01611939565b96505060a08b015167ffffffffffffffff811115611a9357611a926114d0565b5b611a9f8d828e01611939565b95505060c0611ab08d828e016117f1565b94505060e0611ac18d828e01611967565b935050610100611ad38d828e016117f1565b925050610120611ae58d828e01611993565b9150509295989b9194979a5092959850565b600082825260208201905092915050565b7f496e646578206f7574206f6620626f756e647300000000000000000000000000600082015250565b6000611b3e601383611af7565b9150611b4982611b08565b602082019050919050565b60006020820190508181036000830152611b6d81611b31565b9050919050565b7f4e487b7100000000000000000000000000000000000000000000000000000000600052603260045260246000fd5b7f5061796d656e7420616c72656164792065786973747320666f7220746869732060008201527f6c6f740000000000000000000000000000000000000000000000000000000000602082015250565b6000611bff602383611af7565b9150611c0a82611ba3565b604082019050919050565b60006020820190508181036000830152611c2e81611bf2565b9050919050565b7f4c6f7420646f6573206e6f742065786973740000000000000000000000000000600082015250565b6000611c6b601283611af7565b9150611c7682611c35565b602082019050919050565b60006020820190508181036000830152611c9a81611c5e565b9050919050565b7f43616e6e6f742062757920796f7572206f776e206c6f74000000000000000000600082015250565b6000611cd7601783611af7565b9150611ce282611ca1565b602082019050919050565b60006020820190508181036000830152611d0681611cca565b9050919050565b7f4c6f7420686173206e6f20707269636520736574000000000000000000000000600082015250565b6000611d43601483611af7565b9150611d4e82611d0d565b602082019050919050565b60006020820190508181036000830152611d7281611d36565b9050919050565b7f5061796d656e74206d75737420657175616c206c6f7420707269636500000000600082015250565b6000611daf601c83611af7565b9150611dba82611d79565b602082019050919050565b60006020820190508181036000830152611dde81611da2565b9050919050565b7f4e487b7100000000000000000000000000000000000000000000000000000000600052601160045260246000fd5b6000611e1f826114d5565b9150611e2a836114d5565b9250828201905080821115611e4257611e41611de5565b5b92915050565b7f4e6f207061796d656e7420666f756e6400000000000000000000000000000000600082015250565b6000611e7e601083611af7565b9150611e8982611e48565b602082019050919050565b60006020820190508181036000830152611ead81611e71565b9050919050565b7f5061796d656e7420616c72656164792072656c65617365640000000000000000600082015250565b6000611eea601883611af7565b9150611ef582611eb4565b602082019050919050565b60006020820190508181036000830152611f1981611edd565b9050919050565b7f4c6f74206e6f742066756c6c792076616c696461746564000000000000000000600082015250565b6000611f56601783611af7565b9150611f6182611f20565b602082019050919050565b60006020820190508181036000830152611f8581611f49565b9050919050565b600081905092915050565b50565b6000611fa7600083611f8c565b9150611fb282611f97565b600082019050919050565b6000611fc882611f9a565b9150819050919050565b7f5472616e73666572206661696c65640000000000000000000000000000000000600082015250565b6000612008600f83611af7565b915061201382611fd2565b602082019050919050565b6000602082019050818103600083015261203781611ffb565b9050919050565b7f4f6e6c792062757965722063616e207265717565737420726566756e64000000600082015250565b6000612074601d83611af7565b915061207f8261203e565b602082019050919050565b600060208201905081810360008301526120a381612067565b9050919050565b7f4c6f7420616c726561647920636f6d706c657465642c2063616e6e6f7420726560008201527f66756e6400000000000000000000000000000000000000000000000000000000602082015250565b6000612106602483611af7565b9150612111826120aa565b604082019050919050565b60006020820190508181036000830152612135816120f9565b9050919050565b6000612147826114d5565b9150612152836114d5565b925082820390508181111561216a57612169611de5565b5b92915050565b7f526566756e64206661696c656400000000000000000000000000000000000000600082015250565b60006121a6600d83611af7565b91506121b182612170565b602082019050919050565b600060208201905081810360008301526121d581612199565b9050919050565b6000602082840312156121f2576121f16114cb565b5b6000612200848285016117f1565b91505092915050565b600060408201905061221e600083018561156e565b61222b602083018461156e565b9392505050565b600067ffffffffffffffff82111561224d5761224c611821565b5b602082029050602081019050919050565b600080fd5b600061227661227184612232565b611881565b905080838252602082019050602084028301858111156122995761229861225e565b5b835b818110156122c257806122ae8882611967565b84526020840193505060208101905061229b565b5050509392505050565b600082601f8301126122e1576122e0611806565b5b81516122f1848260208601612263565b91505092915050565b600060ff82169050919050565b612310816122fa565b811461231b57600080fd5b50565b60008151905061232d81612307565b92915050565b600080600080600060a0868803121561234f5761234e6114cb565b5b600086015167ffffffffffffffff81111561236d5761236c6114d0565b5b61237988828901611939565b955050602086015167ffffffffffffffff81111561239a576123996114d0565b5b6123a6888289016122cc565b94505060406123b788828901611967565b93505060606123c8888289016117f1565b92505060806123d98882890161231e565b915050929550929590935056fea2646970667358221220ace3e0683323c901295956e68d45ec7fb3fd80392c7a8b7144d0a1db4f56df6264736f6c634300081c0033",
  "linkReferences": {},
  "deployedLinkReferences": {}
}