{
  "_format": "hh-sol-artifact-1",
  "contractName": "EscrowPayment",
  "sourceName": "contracts/EscrowPayment.sol",
  "abi": [
    {
      "inputs": [
        {
          "internalType": "address",
          "name": "_supplyChainAddress",
          "type": "address"
        }
      ],
      "stateMutability": "nonpayable",
      "type": "constructor"
    },
    {
      "anonymous": false,
      "inputs": [
        {
          "indexed": true,
          "internalType": "uint256",
          "name": "lotId",
          "type": "uint256"
        },
        {
          "indexed": true,
          "internalType": "address",
          "name": "buyer",
          "type": "address"
        },
        {
          "indexed": true,
          "internalType": "address",
          "name": "seller",
          "type": "address"
        },
        {
          "indexed": false,
          "internalType": "uint256",
          "name": "amount",
          "type": "uint256"
        }
      ],
      "name": "PaymentDeposited",
      "type": "event"
    },
    {
      "anonymous": false,
      "inputs": [
        {
          "indexed": true,
          "internalType": "uint256",
          "name": "lotId",
          "type": "uint256"
        },
        {
          "indexed": true,
          "internalType": "address",
          "name": "buyer",
          "type": "address"
        },
        {
          "indexed": false,
          "internalType": "uint256",
          "name": "amount",
          "type": "uint256"
        }
      ],
      "name": "PaymentRefunded",
      "type": "event"
    },
    {
      "anonymous": false,
      "inputs": [
        {
          "indexed": true,
          "internalType": "uint256",
          "name": "lotId",
          "type": "uint256"
        },
        {
          "indexed": true,
          "internalType": "address",
          "name": "seller",
          "type": "address"
        },
        {
          "indexed": false,
          "internalType": "uint256",
          "name": "amount",
          "type": "uint256"
        }
      ],
      "name": "PaymentReleased",
      "type": "event"
    },
    {
      "inputs": [
        {
          "internalType": "uint256",
          "name": "_lotId",
          "type": "uint256"
        }
      ],
      "name": "depositPayment",
      "outputs": [],
      "stateMutability": "payable",
      "type": "function"
    },
    {
      "inputs": [],
      "name": "getContractBalance",
      "outputs": [
        {
          "internalType": "uint256",
          "name": "",
          "type": "uint256"
        }
      ],
      "stateMutability": "view",
      "type": "function"
    },
    {
      "inputs": [
        {
          "internalType": "uint256",
          "name": "_lotId",
          "type": "uint256"
        }
      ],
      "name": "getPayment",
      "outputs": [
        {
          "components": [
            {
              "internalType": "uint256",
              "name": "lotId",
              "type": "uint256"
            },
            {
              "internalType": "address",
              "name": "buyer",
              "type": "address"
            },
            {
              "internalType": "address",
              "name": "seller",
              "type": "address"
            },
            {
              "internalType": "uint128",
              "name": "amount",
              "type": "uint128"
            },
            {
              "internalType": "uint64",
              "name": "createdAt",
              "type": "uint64"
            },
            {
              "internalType": "uint64",
              "name": "releasedAt",
              "type": "uint64"
            },
            {
              "internalType": "bool",
              "name": "released",
              "type": "bool"
            }
          ],
          "internalType": "struct EscrowPayment.Payment",
          "name": "",
          "type": "tuple"
        }
      ],
      "stateMutability": "view",
      "type": "function"
    },
    {
      "inputs": [
        {
          "internalType": "uint256",
          "name": "_index",
          "type": "uint256"
        }
      ],
      "name": "getPaymentByIndex",
      "outputs": [
        {
          "components": [
            {
              "internalType": "uint256",
              "name": "lotId",
              "type": "uint256"
            },
            {
              "internalType": "address",
              "name": "buyer",
              "type": "address"
            },
            {
              "internalType": "address",
              "name": "seller",
              "type": "address"
            },
            {
              "internalType": "uint128",
              "name": "amount",
              "type": "uint128"
            },
            {
              "internalType": "uint64",
              "name": "createdAt",
              "type": "uint64"
            },
            {
              "internalType": "uint64",
              "name": "releasedAt",
              "type": "uint64"
            },
            {
              "internalType": "bool",
              "name": "released",
              "type": "bool"
            }
          ],
          "internalType": "struct EscrowPayment.Payment",
          "name": "",
          "type": "tuple"
        }
      ],
      "stateMutability": "view",
      "type": "function"
    },
    {
      "inputs": [],
      "name": "getPaymentsCount",
      "outputs": [
        {
          "internalType": "uint256",
          "name": "",
          "type": "uint256"
        }
      ],
      "stateMutability": "view",
      "type": "function"
    },
    {
      "inputs": [
        {
          "internalType": "uint256",
          "name": "_lotId",
          "type": "uint256"
        }
      ],
      "name": "isLotCompleted",
      "outputs": [
        {
          "internalType": "bool",
          "name": "",
          "type": "bool"
        }
      ],
      "stateMutability": "view",
      "type": "function"
    },
    {
      "inputs": [
        {
          "internalType": "uint256",
          "name": "",
          "type": "uint256"
        }
      ],
      "name": "paymentLotIds",
      "outputs": [
        {
          "internalType": "uint256",
          "name": "",
          "type": "uint256"
        }
      ],
      "stateMutability": "view",
      "type": "function"
    },
    {
      "inputs": [
        {
          "internalType": "uint256",
          "name": "",
          "type": "uint256"
        }
      ],
      "name": "payments",
      "outputs": [
        {
          "internalType": "uint256",
          "name": "lotId",
          "type": "uint256"
        },
        {
          "internalType": "address",
          "name": "buyer",
          "type": "address"
        },
        {
          "internalType": "address",
          "name": "seller",
          "type": "address"
        },
        {
          "internalType": "uint128",
          "name": "amount",
          "type": "uint128"
        },
        {
          "internalType": "uint64",
          "name": "createdAt",
          "type": "uint64"
        },
        {
          "internalType": "uint64",
          "name": "releasedAt",
          "type": "uint64"
        },
        {
          "internalType": "bool",
          "name": "released",
          "type": "bool"
        }
      ],
      "stateMutability": "view",
      "type": "function"
    },
    {
      "inputs": [
        {
          "internalType": "uint256",
          "name": "_lotId",
          "type": "uint256"
        }
      ],
      "name": "refundPayment",
      "outputs": [],
      "stateMutability": "nonpayable",
      "type": "function"
    },
    {
      "inputs": [
        {
          "internalType": "uint256",
          "name": "_lotId",
          "type": "uint256"
        }
      ],
      "name": "releasePayment",
      "outputs": [],
      "stateMutability": "nonpayable",
      "type": "function"
    },
    {
      "inputs": [],
      "name": "supplyChain",
      "outputs": [
        {
          "internalType": "contract ISupplyChain",
          "name": "",
          "type": "address"
        }
      ],
      "stateMutability": "view",
      "type": "function"
    },
    {
      "inputs": [
        {
          "internalType": "address",
          "name": "",
          "type": "address"
        }
      ],
      "name": "totalReceived",
      "outputs": [
        {
          "internalType": "uint256",
          "name": "",
          "type": "uint256"
        }
      ],
      "stateMutability": "view",
      "type": "function"
    },
    {
      "inputs": [
        {
          "internalType": "address",
          "name": "",
          "type": "address"
        }
      ],
      "name": "totalSpent",
      "outputs": [
        {
          "internalType": "uint256",
          "name": "",
          "type": "uint256"
        }
      ],
      "stateMutability": "view",
      "type": "function"
    }
  ],
  "bytecode": "0x60a060405234801561001057600080fd5b506040516126bd3803806126bd833981810160405281019061003291906100cf565b8073ffffffffffffffffffffffffffffffffffffffff1660808173ffffffffffffffffffffffffffffffffffffffff1681525050506100fc565b600080fd5b600073ffffffffffffffffffffffffffffffffffffffff82169050919050565b600061009c82610071565b9050919050565b6100ac81610091565b81146100b757600080fd5b50565b6000815190506100c9816100a3565b92915050565b6000602082840312156100e5576100e461006c565b5b60006100f3848285016100ba565b91505092915050565b60805161259161012c600039600081816107d9015281816110de0152818161150f01526115ca01526125916000f3fe6080604052600436106100c25760003560e01c806387d817891161007f578063a8949b4611610059578063a8949b4614610299578063cacf1e0e146102d6578063d8af22b914610301578063f63813f41461033e576100c2565b806387d817891461020257806388685cd91461024557806388d84b661461026e576100c2565b80630160f9bd146100c75780633280a836146101045780634df9cfb3146101415780635922aeda1461017e5780636b749c47146101bb5780636f9fb98a146101d7575b600080fd5b3480156100d357600080fd5b506100ee60048036038101906100e9919061177b565b610367565b6040516100fb91906117c3565b60405180910390f35b34801561011057600080fd5b5061012b6004803603810190610126919061177b565b610379565b6040516101389190611919565b60405180910390f35b34801561014d57600080fd5b5061016860048036038101906101639190611960565b610524565b604051610175919061199c565b60405180910390f35b34801561018a57600080fd5b506101a560048036038101906101a0919061177b565b61053c565b6040516101b29190611919565b60405180910390f35b6101d560048036038101906101d0919061177b565b61074c565b005b3480156101e357600080fd5b506101ec610ca3565b6040516101f9919061199c565b60405180910390f35b34801561020e57600080fd5b506102296004803603810190610224919061177b565b610cab565b60405161023c97969594939291906119e4565b60405180910390f35b34801561025157600080fd5b5061026c6004803603810190610267919061177b565b610d7e565b005b34801561027a57600080fd5b506102836110dc565b6040516102909190611ab2565b60405180910390f35b3480156102a557600080fd5b506102c060048036038101906102bb9190611960565b611100565b6040516102cd919061199c565b60405180910390f35b3480156102e257600080fd5b506102eb611118565b6040516102f8919061199c565b60405180910390f35b34801561030d57600080fd5b506103286004803603810190610323919061177b565b611125565b604051610335919061199c565b60405180910390f35b34801561034a57600080fd5b506103656004803603810190610360919061177b565b611149565b005b60006103728261150a565b9050919050565b6103816116a0565b6000808381526020019081526020016000206040518060e0016040529081600082015481526020016001820160009054906101000a900473ffffffffffffffffffffffffffffffffffffffff1673ffffffffffffffffffffffffffffffffffffffff1673ffffffffffffffffffffffffffffffffffffffff1681526020016002820160009054906101000a900473ffffffffffffffffffffffffffffffffffffffff1673ffffffffffffffffffffffffffffffffffffffff1673ffffffffffffffffffffffffffffffffffffffff1681526020016003820160009054906101000a90046fffffffffffffffffffffffffffffffff166fffffffffffffffffffffffffffffffff166fffffffffffffffffffffffffffffffff1681526020016003820160109054906101000a900467ffffffffffffffff1667ffffffffffffffff1667ffffffffffffffff1681526020016003820160189054906101000a900467ffffffffffffffff1667ffffffffffffffff1667ffffffffffffffff1681526020016004820160009054906101000a900460ff1615151515815250509050919050565b60026020528060005260406000206000915090505481565b6105446116a0565b600180549050821061058b576040517f08c379a000000000000000000000000000000000000000000000000000000000815260040161058290611b2a565b60405180910390fd5b600080600184815481106105a2576105a1611b4a565b5b906000526020600020015481526020019081526020016000206040518060e0016040529081600082015481526020016001820160009054906101000a900473ffffffffffffffffffffffffffffffffffffffff1673ffffffffffffffffffffffffffffffffffffffff1673ffffffffffffffffffffffffffffffffffffffff1681526020016002820160009054906101000a900473ffffffffffffffffffffffffffffffffffffffff1673ffffffffffffffffffffffffffffffffffffffff1673ffffffffffffffffffffffffffffffffffffffff1681526020016003820160009054906101000a90046fffffffffffffffffffffffffffffffff166fffffffffffffffffffffffffffffffff166fffffffffffffffffffffffffffffffff1681526020016003820160109054906101000a900467ffffffffffffffff1667ffffffffffffffff1667ffffffffffffffff1681526020016003820160189054906101000a900467ffffffffffffffff1667ffffffffffffffff1667ffffffffffffffff1681526020016004820160009054906101000a900460ff1615151515815250509050919050565b600080600083815260200190815260200160002060030160009054906101000a90046fffffffffffffffffffffffffffffffff166fffffffffffffffffffffffffffffffff16146107d2576040517f08c379a00000000000000000000000000000000000000000000000000000000081526004016107c990611beb565b60405180910390fd5b60008060007f000000000000000000000000000000000000000000000000000000000000000073ffffffffffffffffffffffffffffffffffffffff16631192bfae856040518263ffffffff1660e01b8152600401610830919061199c565b606060405180830381865afa15801561084d573d6000803e3d6000fd5b505050506040513d601f19601f820116820180604052508101906108719190611c78565b925092509250806108b7576040517f08c379a00000000000000000000000000000000000000000000000000000000081526004016108ae90611d17565b60405180910390fd5b3373ffffffffffffffffffffffffffffffffffffffff168273ffffffffffffffffffffffffffffffffffffffff1603610925576040517f08c379a000000000000000000000000000000000000000000000000000000000815260040161091c90611d83565b60405180910390fd5b6000836fffffffffffffffffffffffffffffffff161161097a576040517f08c379a000000000000000000000000000000000000000000000000000000000815260040161097190611def565b60405180910390fd5b826fffffffffffffffffffffffffffffffff1634146109ce576040517f08c379a00000000000000000000000000000000000000000000000000000000081526004016109c590611e5b565b60405180910390fd5b6040518060e001604052808581526020013373ffffffffffffffffffffffffffffffffffffffff1681526020018373ffffffffffffffffffffffffffffffffffffffff168152602001346fffffffffffffffffffffffffffffffff1681526020014267ffffffffffffffff168152602001600067ffffffffffffffff168152602001600015158152506000808681526020019081526020016000206000820151816000015560208201518160010160006101000a81548173ffffffffffffffffffffffffffffffffffffffff021916908373ffffffffffffffffffffffffffffffffffffffff16021790555060408201518160020160006101000a81548173ffffffffffffffffffffffffffffffffffffffff021916908373ffffffffffffffffffffffffffffffffffffffff16021790555060608201518160030160006101000a8154816fffffffffffffffffffffffffffffffff02191690836fffffffffffffffffffffffffffffffff16021790555060808201518160030160106101000a81548167ffffffffffffffff021916908367ffffffffffffffff16021790555060a08201518160030160186101000a81548167ffffffffffffffff021916908367ffffffffffffffff16021790555060c08201518160040160006101000a81548160ff021916908315150217905550905050600184908060018154018082558091505060019003906000526020600020016000909190919091505534600360003373ffffffffffffffffffffffffffffffffffffffff1673ffffffffffffffffffffffffffffffffffffffff168152602001908152602001600020600082825401925050819055508173ffffffffffffffffffffffffffffffffffffffff163373ffffffffffffffffffffffffffffffffffffffff16857f29c2d7a8dc25d06b7381e1fb65651042b117d3918933a244238b44a223384a8f34604051610c95919061199c565b60405180910390a450505050565b600047905090565b60006020528060005260406000206000915090508060000154908060010160009054906101000a900473ffffffffffffffffffffffffffffffffffffffff16908060020160009054906101000a900473ffffffffffffffffffffffffffffffffffffffff16908060030160009054906101000a90046fffffffffffffffffffffffffffffffff16908060030160109054906101000a900467ffffffffffffffff16908060030160189054906101000a900467ffffffffffffffff16908060040160009054906101000a900460ff16905087565b6000806000838152602001908152602001600020905060008160030160009054906101000a90046fffffffffffffffffffffffffffffffff166fffffffffffffffffffffffffffffffff1611610e09576040517f08c379a0000000000000000000000000000000000000000000000000000000008152600401610e0090611ec7565b60405180910390fd5b8060040160009054906101000a900460ff1615610e5b576040517f08c379a0000000000000000000000000000000000000000000000000000000008152600401610e5290611f33565b60405180910390fd5b610e648261150a565b610ea3576040517f08c379a0000000000000000000000000000000000000000000000000000000008152600401610e9a90611f9f565b60405180910390fd5b60018160040160006101000a81548160ff021916908315150217905550428160030160186101000a81548167ffffffffffffffff021916908367ffffffffffffffff16021790555060008160030160009054906101000a90046fffffffffffffffffffffffffffffffff166fffffffffffffffffffffffffffffffff16905080600260008460020160009054906101000a900473ffffffffffffffffffffffffffffffffffffffff1673ffffffffffffffffffffffffffffffffffffffff1673ffffffffffffffffffffffffffffffffffffffff1681526020019081526020016000206000828254019250508190555060008260020160009054906101000a900473ffffffffffffffffffffffffffffffffffffffff1673ffffffffffffffffffffffffffffffffffffffff1682604051610fdd90611ff0565b60006040518083038185875af1925050503d806000811461101a576040519150601f19603f3d011682016040523d82523d6000602084013e61101f565b606091505b5050905080611063576040517f08c379a000000000000000000000000000000000000000000000000000000000815260040161105a90612051565b60405180910390fd5b8260020160009054906101000a900473ffffffffffffffffffffffffffffffffffffffff1673ffffffffffffffffffffffffffffffffffffffff16847f21d71db5be59bb9fa133895586b7404307dd33fb93b16db09dc6f1d9d7d231b0846040516110ce919061199c565b60405180910390a350505050565b7f000000000000000000000000000000000000000000000000000000000000000081565b60036020528060005260406000206000915090505481565b6000600180549050905090565b6001818154811061113557600080fd5b906000526020600020016000915090505481565b6000806000838152602001908152602001600020905060008160030160009054906101000a90046fffffffffffffffffffffffffffffffff166fffffffffffffffffffffffffffffffff16116111d4576040517f08c379a00000000000000000000000000000000000000000000000000000000081526004016111cb90611ec7565b60405180910390fd5b8060040160009054906101000a900460ff1615611226576040517f08c379a000000000000000000000000000000000000000000000000000000000815260040161121d90611f33565b60405180910390fd5b3373ffffffffffffffffffffffffffffffffffffffff168160010160009054906101000a900473ffffffffffffffffffffffffffffffffffffffff1673ffffffffffffffffffffffffffffffffffffffff16146112b8576040517f08c379a00000000000000000000000000000000000000000000000000000000081526004016112af906120bd565b60405180910390fd5b6112c18261150a565b15611301576040517f08c379a00000000000000000000000000000000000000000000000000000000081526004016112f89061214f565b60405180910390fd5b60008160030160009054906101000a90046fffffffffffffffffffffffffffffffff166fffffffffffffffffffffffffffffffff16905060008260030160006101000a8154816fffffffffffffffffffffffffffffffff02191690836fffffffffffffffffffffffffffffffff16021790555060018260040160006101000a81548160ff021916908315150217905550428260030160186101000a81548167ffffffffffffffff021916908367ffffffffffffffff16021790555080600360003373ffffffffffffffffffffffffffffffffffffffff1673ffffffffffffffffffffffffffffffffffffffff1681526020019081526020016000206000828254039250508190555060003373ffffffffffffffffffffffffffffffffffffffff168260405161142f90611ff0565b60006040518083038185875af1925050503d806000811461146c576040519150601f19603f3d011682016040523d82523d6000602084013e611471565b606091505b50509050806114b5576040517f08c379a00000000000000000000000000000000000000000000000000000000081526004016114ac906121bb565b60405180910390fd5b3373ffffffffffffffffffffffffffffffffffffffff16847fe89ec1881a76229445bcd179b8c4b24f9edc7ddd87d07fb3b19c67ae9c6e27cc846040516114fc919061199c565b60405180910390a350505050565b6000807f000000000000000000000000000000000000000000000000000000000000000073ffffffffffffffffffffffffffffffffffffffff16637f6de73a846040518263ffffffff1660e01b8152600401611566919061199c565b602060405180830381865afa158015611583573d6000803e3d6000fd5b505050506040513d601f19601f820116820180604052508101906115a791906121f0565b9050600081036115bb57600091505061169b565b60005b818110156116945760007f000000000000000000000000000000000000000000000000000000000000000073ffffffffffffffffffffffffffffffffffffffff16634db0450886846040518363ffffffff1660e01b815260040161162392919061221d565b600060405180830381865afa158015611640573d6000803e3d6000fd5b505050506040513d6000823e3d601f19601f8201168201806040525081019061166991906124a8565b94505050505060018160ff1614611686576000935050505061169b565b5080806001019150506115be565b5060019150505b919050565b6040518060e0016040528060008152602001600073ffffffffffffffffffffffffffffffffffffffff168152602001600073ffffffffffffffffffffffffffffffffffffffff16815260200160006fffffffffffffffffffffffffffffffff168152602001600067ffffffffffffffff168152602001600067ffffffffffffffff1681526020016000151581525090565b6000604051905090565b600080fd5b600080fd5b6000819050919050565b61175881611745565b811461176357600080fd5b50565b6000813590506117758161174f565b92915050565b6000602082840312156117915761179061173b565b5b600061179f84828501611766565b91505092915050565b60008115159050919050565b6117bd816117a8565b82525050565b60006020820190506117d860008301846117b4565b92915050565b6117e781611745565b82525050565b600073ffffffffffffffffffffffffffffffffffffffff82169050919050565b6000611818826117ed565b9050919050565b6118288161180d565b82525050565b60006fffffffffffffffffffffffffffffffff82169050919050565b6118538161182e565b82525050565b600067ffffffffffffffff82169050919050565b61187681611859565b82525050565b611885816117a8565b82525050565b60e0820160008201516118a160008501826117de565b5060208201516118b4602085018261181f565b5060408201516118c7604085018261181f565b5060608201516118da606085018261184a565b5060808201516118ed608085018261186d565b5060a082015161190060a085018261186d565b5060c082015161191360c085018261187c565b50505050565b600060e08201905061192e600083018461188b565b92915050565b61193d8161180d565b811461194857600080fd5b50565b60008135905061195a81611934565b92915050565b6000602082840312156119765761197561173b565b5b60006119848482850161194b565b91505092915050565b61199681611745565b82525050565b60006020820190506119b1600083018461198d565b92915050565b6119c08161180d565b82525050565b6119cf8161182e565b82525050565b6119de81611859565b82525050565b600060e0820190506119f9600083018a61198d565b611a0660208301896119b7565b611a1360408301886119b7565b611a2060608301876119c6565b611a2d60808301866119d5565b611a3a60a08301856119d5565b611a4760c08301846117b4565b98975050505050505050565b6000819050919050565b6000611a78611a73611a6e846117ed565b611a53565b6117ed565b9050919050565b6000611a8a82611a5d565b9050919050565b6000611a9c82611a7f565b9050919050565b611aac81611a91565b82525050565b6000602082019050611ac76000830184611aa3565b92915050565b600082825260208201905092915050565b7f496e646578206f7574206f6620626f756e647300000000000000000000000000600082015250565b6000611b14601383611acd565b9150611b1f82611ade565b602082019050919050565b60006020820190508181036000830152611b4381611b07565b9050919050565b7f4e487b7100000000000000000000000000000000000000000000000000000000600052603260045260246000fd5b7f5061796d656e7420616c72656164792065786973747320666f7220746869732060008201527f6c6f740000000000000000000000000000000000000000000000000000000000602082015250565b6000611bd5602383611acd565b9150611be082611b79565b604082019050919050565b60006020820190508181036000830152611c0481611bc8565b9050919050565b611c148161182e565b8114611c1f57600080fd5b50565b600081519050611c3181611c0b565b92915050565b600081519050611c4681611934565b92915050565b611c55816117a8565b8114611c6057600080fd5b50565b600081519050611c7281611c4c565b92915050565b600080600060608486031215611c9157611c9061173b565b5b6000611c9f86828701611c22565b9350506020611cb086828701611c37565b9250506040611cc186828701611c63565b9150509250925092565b7f4c6f7420646f6573206e6f742065786973740000000000000000000000000000600082015250565b6000611d01601283611acd565b9150611d0c82611ccb565b602082019050919050565b60006020820190508181036000830152611d3081611cf4565b9050919050565b7f43616e6e6f742062757920796f7572206f776e206c6f74000000000000000000600082015250565b6000611d6d601783611acd565b9150611d7882611d37565b602082019050919050565b60006020820190508181036000830152611d9c81611d60565b9050919050565b7f4c6f7420686173206e6f20707269636520736574000000000000000000000000600082015250565b6000611dd9601483611acd565b9150611de482611da3565b602082019050919050565b60006020820190508181036000830152611e0881611dcc565b9050919050565b7f5061796d656e74206d75737420657175616c206c6f7420707269636500000000600082015250565b6000611e45601c83611acd565b9150611e5082611e0f565b602082019050919050565b60006020820190508181036000830152611e7481611e38565b9050919050565b7f4e6f207061796d656e7420666f756e6400000000000000000000000000000000600082015250565b6000611eb1601083611acd565b9150611ebc82611e7b565b602082019050919050565b60006020820190508181036000830152611ee081611ea4565b9050919050565b7f5061796d656e7420616c72656164792072656c65617365640000000000000000600082015250565b6000611f1d601883611acd565b9150611f2882611ee7565b602082019050919050565b60006020820190508181036000830152611f4c81611f10565b9050919050565b7f4c6f74206e6f742066756c6c792076616c696461746564000000000000000000600082015250565b6000611f89601783611acd565b9150611f9482611f53565b602082019050919050565b60006020820190508181036000830152611fb881611f7c565b9050919050565b600081905092915050565b50565b6000611fda600083611fbf565b9150611fe582611fca565b600082019050919050565b6000611ffb82611fcd565b9150819050919050565b7f5472616e73666572206661696c65640000000000000000000000000000000000600082015250565b600061203b600f83611acd565b915061204682612005565b602082019050919050565b6000602082019050818103600083015261206a8161202e565b9050919050565b7f4f6e6c792062757965722063616e207265717565737420726566756e64000000600082015250565b60006120a7601d83611acd565b91506120b282612071565b602082019050919050565b600060208201905081810360008301526120d68161209a565b9050919050565b7f4c6f7420616c726561647920636f6d706c657465642c2063616e6e6f7420726560008201527f66756e6400000000000000000000000000000000000000000000000000000000602082015250565b6000612139602483611acd565b9150612144826120dd565b604082019050919050565b600060208201905081810360008301526121688161212c565b9050919050565b7f526566756e64206661696c656400000000000000000000000000000000000000600082015250565b60006121a5600d83611acd565b91506121b08261216f565b602082019050919050565b600060208201905081810360008301526121d481612198565b9050919050565b6000815190506121ea8161174f565b92915050565b6000602082840312156122065761220561173b565b5b6000612214848285016121db565b91505092915050565b6000604082019050612232600083018561198d565b61223f602083018461198d565b9392505050565b600080fd5b600080fd5b6000601f19601f8301169050919050565b7f4e487b7100000000000000000000000000000000000000000000000000000000600052604160045260246000fd5b61229982612250565b810181811067ffffffffffffffff821117156122b8576122b7612261565b5b80604052505050565b60006122cb611731565b90506122d78282612290565b919050565b600067ffffffffffffffff8211156122f7576122f6612261565b5b61230082612250565b9050602081019050919050565b60005b8381101561232b578082015181840152602081019050612310565b60008484015250505050565b600061234a612345846122dc565b6122c1565b9050828152602081018484840111156123665761236561224b565b5b61237184828561230d565b509392505050565b600082601f83011261238e5761238d612246565b5b815161239e848260208601612337565b91505092915050565b600067ffffffffffffffff8211156123c2576123c1612261565b5b602082029050602081019050919050565b600080fd5b60006123eb6123e6846123a7565b6122c1565b9050808382526020820190506020840283018581111561240e5761240d6123d3565b5b835b8181101561243757806124238882611c37565b845260208401935050602081019050612410565b5050509392505050565b600082601f83011261245657612455612246565b5b81516124668482602086016123d8565b91505092915050565b600060ff82169050919050565b6124858161246f565b811461249057600080fd5b50565b6000815190506124a28161247c565b92915050565b600080600080600060a086880312156124c4576124c361173b565b5b600086015167ffffffffffffffff8111156124e2576124e1611740565b5b6124ee88828901612379565b955050602086015167ffffffffffffffff81111561250f5761250e611740565b5b61251b88828901612441565b945050604061252c88828901611c37565b935050606061253d888289016121db565b925050608061254e88828901612493565b915050929550929590935056fea26469706673582212204d118430f8aca13c7b4871add6309dd78b87544f70c84fd67553238ea64dd4fa64736f6c634300081c0033",
  "linkReferences": {},
  "deployedLinkReferences": {}
}