{
  "_format": "hh-sol-artifact-1",
  "contractName": "EscrowPayment",
  "sourceName": "contracts/EscrowPayment.sol",
  "abi": [
    {
      "inputs": [
        {
          "internalType": "address",
          "name": "_supplyChainAddress",
          "type": "address"
        }
      ],
      "stateMutability": "nonpayable",
      "type": "constructor"
    },
    {
      "anonymous": false,
      "inputs": [
        {
          "indexed": true,
          "internalType": "uint256",
          "name": "lotId",
          "type": "uint256"
        },
        {
          "indexed": true,
          "internalType": "address",
          "name": "buyer",
          "type": "address"
        },
        {
          "indexed": true,
          "internalType": "address",
          "name": "seller",
          "type": "address"
        },
        {
          "indexed": false,
          "internalType": "uint256",
          "name": "amount",
          "type": "uint256"
        }
      ],
      "name": "PaymentDeposited",
      "type": "event"
    },
    {
      "anonymous": false,
      "inputs": [
        {
          "indexed": true,
          "internalType": "uint256",
          "name": "lotId",
          "type": "uint256"
        },
        {
          "indexed": true,
          "internalType": "address",
          "name": "buyer",
          "type": "address"
        },
        {
          "indexed": false,
          "internalType": "uint256",
          "name": "amount",
          "type": "uint256"
        }
      ],
      "name": "PaymentRefunded",
      "type": "event"
    },
    {
      "anonymous": false,
      "inputs": [
        {
          "indexed": true,
          "internalType": "uint256",
          "name": "lotId",
          "type": "uint256"
        },
        {
          "indexed": true,
          "internalType": "address",
          "name": "seller",
          "type": "address"
        },
        {
          "indexed": false,
          "internalType": "uint256",
          "name": "amount",
          "type": "uint256"
        }
      ],
      "name": "PaymentReleased",
      "type": "event"
    },
    {
      "inputs": [
        {
          "internalType": "uint256",
          "name": "_lotId",
          "type": "uint256"
        }
      ],
      "name": "depositPayment",
      "outputs": [],
      "stateMutability": "payable",
      "type": "function"
    },
    {
      "inputs": [],
      "name": "getContractBalance",
      "outputs": [
        {
          "internalType": "uint256",
          "name": "",
          "type": "uint256"
        }
      ],
      "stateMutability": "view",
      "type": "function"
    },
    {
      "inputs": [
        {
          "internalType": "uint256",
          "name": "_lotId",
          "type": "uint256"
        }
      ],
      "name": "getLotPrice",
      "outputs": [
        {
          "internalType": "uint256",
          "name": "",
          "type": "uint256"
        }
      ],
      "stateMutability": "view",
      "type": "function"
    },
    {
      "inputs": [
        {
          "internalType": "uint256",
          "name": "_lotId",
          "type": "uint256"
        }
      ],
      "name": "getPayment",
      "outputs": [
        {
          "components": [
            {
              "internalType": "uint256",
              "name": "lotId",
              "type": "uint256"
            },
            {
              "internalType": "address",
              "name": "buyer",
              "type": "address"
            },
            {
              "internalType": "address",
              "name": "seller",
              "type": "address"
            },
            {
              "internalType": "uint128",
              "name": "amount",
              "type": "uint128"
            },
            {
              "internalType": "uint64",
              "name": "createdAt",
              "type": "uint64"
            },
            {
              "internalType": "uint64",
              "name": "releasedAt",
              "type": "uint64"
            },
            {
              "internalType": "bool",
              "name": "released",
              "type": "bool"
            }
          ],
          "internalType": "struct EscrowPayment.Payment",
          "name": "",
          "type": "tuple"
        }
      ],
      "stateMutability": "view",
      "type": "function"
    },
    {
      "inputs": [
        {
          "internalType": "uint256",
          "name": "_index",
          "type": "uint256"
        }
      ],
      "name": "getPaymentByIndex",
      "outputs": [
        {
          "components": [
            {
              "internalType": "uint256",
              "name": "lotId",
              "type": "uint256"
            },
            {
              "internalType": "address",
              "name": "buyer",
              "type": "address"
            },
            {
              "internalType": "address",
              "name": "seller",
              "type": "address"
            },
            {
              "internalType": "uint128",
              "name": "amount",
              "type": "uint128"
            },
            {
              "internalType": "uint64",
              "name": "createdAt",
              "type": "uint64"
            },
            {
              "internalType": "uint64",
              "name": "releasedAt",
              "type": "uint64"
            },
            {
              "internalType": "bool",
              "name": "released",
              "type": "bool"
            }
          ],
          "internalType": "struct EscrowPayment.Payment",
          "name": "",
          "type": "tuple"
        }
      ],
      "stateMutability": "view",
      "type": "function"
    },
    {
      "inputs": [],
      "name": "getPaymentsCount",
      "outputs": [
        {
          "internalType": "uint256",
          "name": "",
          "type": "uint256"
        }
      ],
      "stateMutability": "view",
      "type": "function"
    },
    {
      "inputs": [
        {
          "internalType": "uint256",
          "name": "_lotId",
          "type": "uint256"
        }
      ],
      "name": "isLotCompleted",
      "outputs": [
        {
          "internalType": "bool",
          "name": "",
          "type": "bool"
        }
      ],
      "stateMutability": "view",
      "type": "function"
    },
    {
      "inputs": [
        {
          "internalType": "uint256",
          "name": "",
          "type": "uint256"
        }
      ],
      "name": "paymentLotIds",
      "outputs": [
        {
          "internalType": "uint256",
          "name": "",
          "type": "uint256"
        }
      ],
      "stateMutability": "view",
      "type": "function"
    },
    {
      "inputs": [
        {
          "internalType": "uint256",
          "name": "",
          "type": "uint256"
        }
      ],
      "name": "payments",
      "outputs": [
        {
          "internalType": "uint256",
          "name": "lotId",
          "type": "uint256"
        },
        {
          "internalType": "address",
          "name": "buyer",
          "type": "address"
        },
        {
          "internalType": "address",
          "name": "seller",
          "type": "address"
        },
        {
          "internalType": "uint128",
          "name": "amount",
          "type": "uint128"
        },
        {
          "internalType": "uint64",
          "name": "createdAt",
          "type": "uint64"
        },
        {
          "internalType": "uint64",
          "name": "releasedAt",
          "type": "uint64"
        },
        {
          "internalType": "bool",
          "name": "released",
          "type": "bool"
        }
      ],
      "stateMutability": "view",
      "type": "function"
    },
    {
      "inputs": [
        {
          "internalType": "uint256",
          "name": "_lotId",
          "type": "uint256"
        }
      ],
      "name": "refundPayment",
      "outputs": [],
      "stateMutability": "nonpayable",
      "type": "function"
    },
    {
      "inputs": [
        {
          "internalType": "uint256",
          "name": "_lotId",
          "type": "uint256"
        }
      ],
      "name": "releasePayment",
      "outputs": [],
      "stateMutability": "nonpayable",
      "type": "function"
    },
    {
      "inputs": [],
      "name": "supplyChain",
      "outputs": [
        {
          "internalType": "contract ISupplyChain",
          "name": "",
          "type": "address"
        }
      ],
      "stateMutability": "view",
      "type": "function"
    },
    {
      "inputs": [
        {
          "internalType": "address",
          "name": "",
          "type": "address"
        }
      ],
      "name": "totalReceived",
      "outputs": [
        {
          "internalType": "uint256",
          "name": "",
          "type": "uint256"
        }
      ],
      "stateMutability": "view",
      "type": "function"
    },
    {
      "inputs": [
        {
          "internalType": "address",
          "name": "",
          "type": "address"
        }
      ],
      "name": "totalSpent",
      "outputs": [
        {
          "internalType": "uint256",
          "name": "",
          "type": "uint256"
        }
      ],
      "stateMutability": "view",
      "type": "function"
    }
  ],
  "bytecode": "0x60a060405234801561001057600080fd5b50604051612aaf380380612aaf833981810160405281019061003291906100cf565b8073ffffffffffffffffffffffffffffffffffffffff1660808173ffffffffffffffffffffffffffffffffffffffff1681525050506100fc565b600080fd5b600073ffffffffffffffffffffffffffffffffffffffff82169050919050565b600061009c82610071565b9050919050565b6100ac81610091565b81146100b757600080fd5b50565b6000815190506100c9816100a3565b92915050565b6000602082840312156100e5576100e461006c565b5b60006100f3848285016100ba565b91505092915050565b60805161297561013a600039600081816103d6015281816108e701528181610983015281816113070152818161173801526117f301526129756000f3fe6080604052600436106100dd5760003560e01c806387d817891161007f578063a8949b4611610059578063a8949b46146102f1578063cacf1e0e1461032e578063d8af22b914610359578063f63813f414610396576100dd565b806387d817891461025a57806388685cd91461029d57806388d84b66146102c6576100dd565b80634df9cfb3116100bb5780634df9cfb3146101995780635922aeda146101d65780636b749c47146102135780636f9fb98a1461022f576100dd565b80630160f9bd146100e257806301fc2be01461011f5780633280a8361461015c575b600080fd5b3480156100ee57600080fd5b50610109600480360381019061010491906119a4565b6103bf565b60405161011691906119ec565b60405180910390f35b34801561012b57600080fd5b50610146600480360381019061014191906119a4565b6103d1565b6040516101539190611a16565b60405180910390f35b34801561016857600080fd5b50610183600480360381019061017e91906119a4565b610487565b6040516101909190611b6c565b60405180910390f35b3480156101a557600080fd5b506101c060048036038101906101bb9190611bb3565b610632565b6040516101cd9190611a16565b60405180910390f35b3480156101e257600080fd5b506101fd60048036038101906101f891906119a4565b61064a565b60405161020a9190611b6c565b60405180910390f35b61022d600480360381019061022891906119a4565b61085a565b005b34801561023b57600080fd5b50610244610ecc565b6040516102519190611a16565b60405180910390f35b34801561026657600080fd5b50610281600480360381019061027c91906119a4565b610ed4565b6040516102949796959493929190611c0d565b60405180910390f35b3480156102a957600080fd5b506102c460048036038101906102bf91906119a4565b610fa7565b005b3480156102d257600080fd5b506102db611305565b6040516102e89190611cdb565b60405180910390f35b3480156102fd57600080fd5b5061031860048036038101906103139190611bb3565b611329565b6040516103259190611a16565b60405180910390f35b34801561033a57600080fd5b50610343611341565b6040516103509190611a16565b60405180910390f35b34801561036557600080fd5b50610380600480360381019061037b91906119a4565b61134e565b60405161038d9190611a16565b60405180910390f35b3480156103a257600080fd5b506103bd60048036038101906103b891906119a4565b611372565b005b60006103ca82611733565b9050919050565b6000807f000000000000000000000000000000000000000000000000000000000000000073ffffffffffffffffffffffffffffffffffffffff1663ab995d12846040518263ffffffff1660e01b815260040161042d9190611a16565b600060405180830381865afa15801561044a573d6000803e3d6000fd5b505050506040513d6000823e3d601f19601f820116820180604052508101906104739190611ead565b505050965050505050505080915050919050565b61048f6118c9565b6000808381526020019081526020016000206040518060e0016040529081600082015481526020016001820160009054906101000a900473ffffffffffffffffffffffffffffffffffffffff1673ffffffffffffffffffffffffffffffffffffffff1673ffffffffffffffffffffffffffffffffffffffff1681526020016002820160009054906101000a900473ffffffffffffffffffffffffffffffffffffffff1673ffffffffffffffffffffffffffffffffffffffff1673ffffffffffffffffffffffffffffffffffffffff1681526020016003820160009054906101000a90046fffffffffffffffffffffffffffffffff166fffffffffffffffffffffffffffffffff166fffffffffffffffffffffffffffffffff1681526020016003820160109054906101000a900467ffffffffffffffff1667ffffffffffffffff1667ffffffffffffffff1681526020016003820160189054906101000a900467ffffffffffffffff1667ffffffffffffffff1667ffffffffffffffff1681526020016004820160009054906101000a900460ff1615151515815250509050919050565b60026020528060005260406000206000915090505481565b6106526118c9565b6001805490508210610699576040517f08c379a000000000000000000000000000000000000000000000000000000000815260040161069090612059565b60405180910390fd5b600080600184815481106106b0576106af612079565b5b906000526020600020015481526020019081526020016000206040518060e0016040529081600082015481526020016001820160009054906101000a900473ffffffffffffffffffffffffffffffffffffffff1673ffffffffffffffffffffffffffffffffffffffff1673ffffffffffffffffffffffffffffffffffffffff1681526020016002820160009054906101000a900473ffffffffffffffffffffffffffffffffffffffff1673ffffffffffffffffffffffffffffffffffffffff1673ffffffffffffffffffffffffffffffffffffffff1681526020016003820160009054906101000a90046fffffffffffffffffffffffffffffffff166fffffffffffffffffffffffffffffffff166fffffffffffffffffffffffffffffffff1681526020016003820160109054906101000a900467ffffffffffffffff1667ffffffffffffffff1667ffffffffffffffff1681526020016003820160189054906101000a900467ffffffffffffffff1667ffffffffffffffff1667ffffffffffffffff1681526020016004820160009054906101000a900460ff1615151515815250509050919050565b600080600083815260200190815260200160002060030160009054906101000a90046fffffffffffffffffffffffffffffffff166fffffffffffffffffffffffffffffffff16146108e0576040517f08c379a00000000000000000000000000000000000000000000000000000000081526004016108d79061211a565b60405180910390fd5b60008060007f000000000000000000000000000000000000000000000000000000000000000073ffffffffffffffffffffffffffffffffffffffff16631192bfae856040518263ffffffff1660e01b815260040161093e9190611a16565b606060405180830381865afa92505050801561097857506040513d601f19601f820116820180604052508101906109759190612166565b60015b610a935760008060007f000000000000000000000000000000000000000000000000000000000000000073ffffffffffffffffffffffffffffffffffffffff1663ab995d12886040518263ffffffff1660e01b81526004016109da9190611a16565b600060405180830381865afa1580156109f7573d6000803e3d6000fd5b505050506040513d6000823e3d601f19601f82011682018060405250810190610a209190611ead565b995050985098505050505050506fffffffffffffffffffffffffffffffff8016831115610a82576040517f08c379a0000000000000000000000000000000000000000000000000000000008152600401610a7990612205565b60405180910390fd5b829550819450809350505050610aa0565b8295508194508093505050505b80610ae0576040517f08c379a0000000000000000000000000000000000000000000000000000000008152600401610ad790612271565b60405180910390fd5b3373ffffffffffffffffffffffffffffffffffffffff168273ffffffffffffffffffffffffffffffffffffffff1603610b4e576040517f08c379a0000000000000000000000000000000000000000000000000000000008152600401610b45906122dd565b60405180910390fd5b6000836fffffffffffffffffffffffffffffffff1611610ba3576040517f08c379a0000000000000000000000000000000000000000000000000000000008152600401610b9a90612349565b60405180910390fd5b826fffffffffffffffffffffffffffffffff163414610bf7576040517f08c379a0000000000000000000000000000000000000000000000000000000008152600401610bee906123b5565b60405180910390fd5b6040518060e001604052808581526020013373ffffffffffffffffffffffffffffffffffffffff1681526020018373ffffffffffffffffffffffffffffffffffffffff168152602001346fffffffffffffffffffffffffffffffff1681526020014267ffffffffffffffff168152602001600067ffffffffffffffff168152602001600015158152506000808681526020019081526020016000206000820151816000015560208201518160010160006101000a81548173ffffffffffffffffffffffffffffffffffffffff021916908373ffffffffffffffffffffffffffffffffffffffff16021790555060408201518160020160006101000a81548173ffffffffffffffffffffffffffffffffffffffff021916908373ffffffffffffffffffffffffffffffffffffffff16021790555060608201518160030160006101000a8154816fffffffffffffffffffffffffffffffff02191690836fffffffffffffffffffffffffffffffff16021790555060808201518160030160106101000a81548167ffffffffffffffff021916908367ffffffffffffffff16021790555060a08201518160030160186101000a81548167ffffffffffffffff021916908367ffffffffffffffff16021790555060c08201518160040160006101000a81548160ff021916908315150217905550905050600184908060018154018082558091505060019003906000526020600020016000909190919091505534600360003373ffffffffffffffffffffffffffffffffffffffff1673ffffffffffffffffffffffffffffffffffffffff168152602001908152602001600020600082825401925050819055508173ffffffffffffffffffffffffffffffffffffffff163373ffffffffffffffffffffffffffffffffffffffff16857f29c2d7a8dc25d06b7381e1fb65651042b117d3918933a244238b44a223384a8f34604051610ebe9190611a16565b60405180910390a450505050565b600047905090565b60006020528060005260406000206000915090508060000154908060010160009054906101000a900473ffffffffffffffffffffffffffffffffffffffff16908060020160009054906101000a900473ffffffffffffffffffffffffffffffffffffffff16908060030160009054906101000a90046fffffffffffffffffffffffffffffffff16908060030160109054906101000a900467ffffffffffffffff16908060030160189054906101000a900467ffffffffffffffff16908060040160009054906101000a900460ff16905087565b6000806000838152602001908152602001600020905060008160030160009054906101000a90046fffffffffffffffffffffffffffffffff166fffffffffffffffffffffffffffffffff1611611032576040517f08c379a000000000000000000000000000000000000000000000000000000000815260040161102990612421565b60405180910390fd5b8060040160009054906101000a900460ff1615611084576040517f08c379a000000000000000000000000000000000000000000000000000000000815260040161107b9061248d565b60405180910390fd5b61108d82611733565b6110cc576040517f08c379a00000000000000000000000000000000000000000000000000000000081526004016110c3906124f9565b60405180910390fd5b60018160040160006101000a81548160ff021916908315150217905550428160030160186101000a81548167ffffffffffffffff021916908367ffffffffffffffff16021790555060008160030160009054906101000a90046fffffffffffffffffffffffffffffffff166fffffffffffffffffffffffffffffffff16905080600260008460020160009054906101000a900473ffffffffffffffffffffffffffffffffffffffff1673ffffffffffffffffffffffffffffffffffffffff1673ffffffffffffffffffffffffffffffffffffffff1681526020019081526020016000206000828254019250508190555060008260020160009054906101000a900473ffffffffffffffffffffffffffffffffffffffff1673ffffffffffffffffffffffffffffffffffffffff16826040516112069061254a565b60006040518083038185875af1925050503d8060008114611243576040519150601f19603f3d011682016040523d82523d6000602084013e611248565b606091505b505090508061128c576040517f08c379a0000000000000000000000000000000000000000000000000000000008152600401611283906125ab565b60405180910390fd5b8260020160009054906101000a900473ffffffffffffffffffffffffffffffffffffffff1673ffffffffffffffffffffffffffffffffffffffff16847f21d71db5be59bb9fa133895586b7404307dd33fb93b16db09dc6f1d9d7d231b0846040516112f79190611a16565b60405180910390a350505050565b7f000000000000000000000000000000000000000000000000000000000000000081565b60036020528060005260406000206000915090505481565b6000600180549050905090565b6001818154811061135e57600080fd5b906000526020600020016000915090505481565b6000806000838152602001908152602001600020905060008160030160009054906101000a90046fffffffffffffffffffffffffffffffff166fffffffffffffffffffffffffffffffff16116113fd576040517f08c379a00000000000000000000000000000000000000000000000000000000081526004016113f490612421565b60405180910390fd5b8060040160009054906101000a900460ff161561144f576040517f08c379a00000000000000000000000000000000000000000000000000000000081526004016114469061248d565b60405180910390fd5b3373ffffffffffffffffffffffffffffffffffffffff168160010160009054906101000a900473ffffffffffffffffffffffffffffffffffffffff1673ffffffffffffffffffffffffffffffffffffffff16146114e1576040517f08c379a00000000000000000000000000000000000000000000000000000000081526004016114d890612617565b60405180910390fd5b6114ea82611733565b1561152a576040517f08c379a0000000000000000000000000000000000000000000000000000000008152600401611521906126a9565b60405180910390fd5b60008160030160009054906101000a90046fffffffffffffffffffffffffffffffff166fffffffffffffffffffffffffffffffff16905060008260030160006101000a8154816fffffffffffffffffffffffffffffffff02191690836fffffffffffffffffffffffffffffffff16021790555060018260040160006101000a81548160ff021916908315150217905550428260030160186101000a81548167ffffffffffffffff021916908367ffffffffffffffff16021790555080600360003373ffffffffffffffffffffffffffffffffffffffff1673ffffffffffffffffffffffffffffffffffffffff1681526020019081526020016000206000828254039250508190555060003373ffffffffffffffffffffffffffffffffffffffff16826040516116589061254a565b60006040518083038185875af1925050503d8060008114611695576040519150601f19603f3d011682016040523d82523d6000602084013e61169a565b606091505b50509050806116de576040517f08c379a00000000000000000000000000000000000000000000000000000000081526004016116d590612715565b60405180910390fd5b3373ffffffffffffffffffffffffffffffffffffffff16847fe89ec1881a76229445bcd179b8c4b24f9edc7ddd87d07fb3b19c67ae9c6e27cc846040516117259190611a16565b60405180910390a350505050565b6000807f000000000000000000000000000000000000000000000000000000000000000073ffffffffffffffffffffffffffffffffffffffff16637f6de73a846040518263ffffffff1660e01b815260040161178f9190611a16565b602060405180830381865afa1580156117ac573d6000803e3d6000fd5b505050506040513d601f19601f820116820180604052508101906117d09190612735565b9050600081036117e45760009150506118c4565b60005b818110156118bd5760007f000000000000000000000000000000000000000000000000000000000000000073ffffffffffffffffffffffffffffffffffffffff16634db0450886846040518363ffffffff1660e01b815260040161184c929190612762565b600060405180830381865afa158015611869573d6000803e3d6000fd5b505050506040513d6000823e3d601f19601f82011682018060405250810190611892919061288c565b94505050505060018160ff16146118af57600093505050506118c4565b5080806001019150506117e7565b5060019150505b919050565b6040518060e0016040528060008152602001600073ffffffffffffffffffffffffffffffffffffffff168152602001600073ffffffffffffffffffffffffffffffffffffffff16815260200160006fffffffffffffffffffffffffffffffff168152602001600067ffffffffffffffff168152602001600067ffffffffffffffff1681526020016000151581525090565b6000604051905090565b600080fd5b600080fd5b6000819050919050565b6119818161196e565b811461198c57600080fd5b50565b60008135905061199e81611978565b92915050565b6000602082840312156119ba576119b9611964565b5b60006119c88482850161198f565b91505092915050565b60008115159050919050565b6119e6816119d1565b82525050565b6000602082019050611a0160008301846119dd565b92915050565b611a108161196e565b82525050565b6000602082019050611a2b6000830184611a07565b92915050565b611a3a8161196e565b82525050565b600073ffffffffffffffffffffffffffffffffffffffff82169050919050565b6000611a6b82611a40565b9050919050565b611a7b81611a60565b82525050565b60006fffffffffffffffffffffffffffffffff82169050919050565b611aa681611a81565b82525050565b600067ffffffffffffffff82169050919050565b611ac981611aac565b82525050565b611ad8816119d1565b82525050565b60e082016000820151611af46000850182611a31565b506020820151611b076020850182611a72565b506040820151611b1a6040850182611a72565b506060820151611b2d6060850182611a9d565b506080820151611b406080850182611ac0565b5060a0820151611b5360a0850182611ac0565b5060c0820151611b6660c0850182611acf565b50505050565b600060e082019050611b816000830184611ade565b92915050565b611b9081611a60565b8114611b9b57600080fd5b50565b600081359050611bad81611b87565b92915050565b600060208284031215611bc957611bc8611964565b5b6000611bd784828501611b9e565b91505092915050565b611be981611a60565b82525050565b611bf881611a81565b82525050565b611c0781611aac565b82525050565b600060e082019050611c22600083018a611a07565b611c2f6020830189611be0565b611c3c6040830188611be0565b611c496060830187611bef565b611c566080830186611bfe565b611c6360a0830185611bfe565b611c7060c08301846119dd565b98975050505050505050565b6000819050919050565b6000611ca1611c9c611c9784611a40565b611c7c565b611a40565b9050919050565b6000611cb382611c86565b9050919050565b6000611cc582611ca8565b9050919050565b611cd581611cba565b82525050565b6000602082019050611cf06000830184611ccc565b92915050565b600081519050611d0581611978565b92915050565b600080fd5b600080fd5b6000601f19601f8301169050919050565b7f4e487b7100000000000000000000000000000000000000000000000000000000600052604160045260246000fd5b611d5e82611d15565b810181811067ffffffffffffffff82111715611d7d57611d7c611d26565b5b80604052505050565b6000611d9061195a565b9050611d9c8282611d55565b919050565b600067ffffffffffffffff821115611dbc57611dbb611d26565b5b611dc582611d15565b9050602081019050919050565b60005b83811015611df0578082015181840152602081019050611dd5565b60008484015250505050565b6000611e0f611e0a84611da1565b611d86565b905082815260208101848484011115611e2b57611e2a611d10565b5b611e36848285611dd2565b509392505050565b600082601f830112611e5357611e52611d0b565b5b8151611e63848260208601611dfc565b91505092915050565b600081519050611e7b81611b87565b92915050565b611e8a816119d1565b8114611e9557600080fd5b50565b600081519050611ea781611e81565b92915050565b6000806000806000806000806000806101408b8d031215611ed157611ed0611964565b5b6000611edf8d828e01611cf6565b9a505060208b015167ffffffffffffffff811115611f0057611eff611969565b5b611f0c8d828e01611e3e565b99505060408b015167ffffffffffffffff811115611f2d57611f2c611969565b5b611f398d828e01611e3e565b9850506060611f4a8d828e01611cf6565b97505060808b015167ffffffffffffffff811115611f6b57611f6a611969565b5b611f778d828e01611e3e565b96505060a08b015167ffffffffffffffff811115611f9857611f97611969565b5b611fa48d828e01611e3e565b95505060c0611fb58d828e01611cf6565b94505060e0611fc68d828e01611e6c565b935050610100611fd88d828e01611cf6565b925050610120611fea8d828e01611e98565b9150509295989b9194979a5092959850565b600082825260208201905092915050565b7f496e646578206f7574206f6620626f756e647300000000000000000000000000600082015250565b6000612043601383611ffc565b915061204e8261200d565b602082019050919050565b6000602082019050818103600083015261207281612036565b9050919050565b7f4e487b7100000000000000000000000000000000000000000000000000000000600052603260045260246000fd5b7f5061796d656e7420616c72656164792065786973747320666f7220746869732060008201527f6c6f740000000000000000000000000000000000000000000000000000000000602082015250565b6000612104602383611ffc565b915061210f826120a8565b604082019050919050565b60006020820190508181036000830152612133816120f7565b9050919050565b61214381611a81565b811461214e57600080fd5b50565b6000815190506121608161213a565b92915050565b60008060006060848603121561217f5761217e611964565b5b600061218d86828701612151565b935050602061219e86828701611e6c565b92505060406121af86828701611e98565b9150509250925092565b7f507269636520746f6f206c617267650000000000000000000000000000000000600082015250565b60006121ef600f83611ffc565b91506121fa826121b9565b602082019050919050565b6000602082019050818103600083015261221e816121e2565b9050919050565b7f4c6f7420646f6573206e6f742065786973740000000000000000000000000000600082015250565b600061225b601283611ffc565b915061226682612225565b602082019050919050565b6000602082019050818103600083015261228a8161224e565b9050919050565b7f43616e6e6f742062757920796f7572206f776e206c6f74000000000000000000600082015250565b60006122c7601783611ffc565b91506122d282612291565b602082019050919050565b600060208201905081810360008301526122f6816122ba565b9050919050565b7f4c6f7420686173206e6f20707269636520736574000000000000000000000000600082015250565b6000612333601483611ffc565b915061233e826122fd565b602082019050919050565b6000602082019050818103600083015261236281612326565b9050919050565b7f5061796d656e74206d75737420657175616c206c6f7420707269636500000000600082015250565b600061239f601c83611ffc565b91506123aa82612369565b602082019050919050565b600060208201905081810360008301526123ce81612392565b9050919050565b7f4e6f207061796d656e7420666f756e6400000000000000000000000000000000600082015250565b600061240b601083611ffc565b9150612416826123d5565b602082019050919050565b6000602082019050818103600083015261243a816123fe565b9050919050565b7f5061796d656e7420616c72656164792072656c65617365640000000000000000600082015250565b6000612477601883611ffc565b915061248282612441565b602082019050919050565b600060208201905081810360008301526124a68161246a565b9050919050565b7f4c6f74206e6f742066756c6c792076616c696461746564000000000000000000600082015250565b60006124e3601783611ffc565b91506124ee826124ad565b602082019050919050565b60006020820190508181036000830152612512816124d6565b9050919050565b600081905092915050565b50565b6000612534600083612519565b915061253f82612524565b600082019050919050565b600061255582612527565b9150819050919050565b7f5472616e73666572206661696c65640000000000000000000000000000000000600082015250565b6000612595600f83611ffc565b91506125a08261255f565b602082019050919050565b600060208201905081810360008301526125c481612588565b9050919050565b7f4f6e6c792062757965722063616e207265717565737420726566756e64000000600082015250565b6000612601601d83611ffc565b915061260c826125cb565b602082019050919050565b60006020820190508181036000830152612630816125f4565b9050919050565b7f4c6f7420616c726561647920636f6d706c657465642c2063616e6e6f7420726560008201527f66756e6400000000000000000000000000000000000000000000000000000000602082015250565b6000612693602483611ffc565b915061269e82612637565b604082019050919050565b600060208201905081810360008301526126c281612686565b9050919050565b7f526566756e64206661696c656400000000000000000000000000000000000000600082015250565b60006126ff600d83611ffc565b915061270a826126c9565b602082019050919050565b6000602082019050818103600083015261272e816126f2565b9050919050565b60006020828403121561274b5761274a611964565b5b600061275984828501611cf6565b91505092915050565b60006040820190506127776000830185611a07565b6127846020830184611a07565b9392505050565b600067ffffffffffffffff8211156127a6576127a5611d26565b5b602082029050602081019050919050565b600080fd5b60006127cf6127ca8461278b565b611d86565b905080838252602082019050602084028301858111156127f2576127f16127b7565b5b835b8181101561281b57806128078882611e6c565b8452602084019350506020810190506127f4565b5050509392505050565b600082601f83011261283a57612839611d0b565b5b815161284a8482602086016127bc565b91505092915050565b600060ff82169050919050565b61286981612853565b811461287457600080fd5b50565b60008151905061288681612860565b92915050565b600080600080600060a086880312156128a8576128a7611964565b5b600086015167ffffffffffffffff8111156128c6576128c5611969565b5b6128d288828901611e3e565b955050602086015167ffffffffffffffff8111156128f3576128f2611969565b5b6128ff88828901612825565b945050604061291088828901611e6c565b935050606061292188828901611cf6565b925050608061293288828901612877565b915050929550929590935056fea2646970667358221220ca8aaf6c03f3d585705e73a7efaa58b77342c41528374bde3d13b790ee359fb564736f6c634300081c0033",
  "linkReferences": {},
  "deployedLinkReferences": {}
}