{
  "_format": "hh-sol-artifact-1",
  "contractName": "ContractDelivery",
  "sourceName": "contracts/ContractDelivery.sol",
  "abi": [
    {
      "inputs": [
        {
          "internalType": "address",
          "name": "_contractLotAddress",
          "type": "address"
        }
      ],
      "stateMutability": "nonpayable",
      "type": "constructor"
    },
    {
      "anonymous": false,
      "inputs": [
        {
          "indexed": true,
          "internalType": "uint256",
          "name": "lotId",
          "type": "uint256"
        },
        {
          "indexed": false,
          "internalType": "bool",
          "name": "compliant",
          "type": "bool"
        },
        {
          "indexed": false,
          "internalType": "address",
          "name": "receiver",
          "type": "address"
        }
      ],
      "name": "DeliveryValidated",
      "type": "event"
    },
    {
      "inputs": [
        {
          "internalType": "uint256",
          "name": "_lotId",
          "type": "uint256"
        }
      ],
      "name": "checkDeliveryStatus",
      "outputs": [
        {
          "internalType": "bool",
          "name": "delivered",
          "type": "bool"
        },
        {
          "internalType": "bool",
          "name": "compliant",
          "type": "bool"
        }
      ],
      "stateMutability": "view",
      "type": "function"
    },
    {
      "inputs": [],
      "name": "contractLot",
      "outputs": [
        {
          "internalType": "contract IContractLot",
          "name": "",
          "type": "address"
        }
      ],
      "stateMutability": "view",
      "type": "function"
    },
    {
      "inputs": [
        {
          "internalType": "uint256",
          "name": "",
          "type": "uint256"
        }
      ],
      "name": "isCompliant",
      "outputs": [
        {
          "internalType": "bool",
          "name": "",
          "type": "bool"
        }
      ],
      "stateMutability": "view",
      "type": "function"
    },
    {
      "inputs": [
        {
          "internalType": "uint256",
          "name": "",
          "type": "uint256"
        }
      ],
      "name": "isDelivered",
      "outputs": [
        {
          "internalType": "bool",
          "name": "",
          "type": "bool"
        }
      ],
      "stateMutability": "view",
      "type": "function"
    },
    {
      "inputs": [
        {
          "internalType": "uint256",
          "name": "",
          "type": "uint256"
        }
      ],
      "name": "receiver",
      "outputs": [
        {
          "internalType": "address",
          "name": "",
          "type": "address"
        }
      ],
      "stateMutability": "view",
      "type": "function"
    },
    {
      "inputs": [
        {
          "internalType": "uint256",
          "name": "_lotId",
          "type": "uint256"
        },
        {
          "internalType": "bool",
          "name": "_compliant",
          "type": "bool"
        }
      ],
      "name": "validateDelivery",
      "outputs": [],
      "stateMutability": "nonpayable",
      "type": "function"
    }
  ],
  "bytecode": "0x608060405234801561001057600080fd5b506040516109c03803806109c0833981810160405281019061003291906100db565b806000806101000a81548173ffffffffffffffffffffffffffffffffffffffff021916908373ffffffffffffffffffffffffffffffffffffffff16021790555050610108565b600080fd5b600073ffffffffffffffffffffffffffffffffffffffff82169050919050565b60006100a88261007d565b9050919050565b6100b88161009d565b81146100c357600080fd5b50565b6000815190506100d5816100af565b92915050565b6000602082840312156100f1576100f0610078565b5b60006100ff848285016100c6565b91505092915050565b6108a9806101176000396000f3fe608060405234801561001057600080fd5b50600436106100625760003560e01c806333f8233d146100675780634c3cd0b11461008557806369204184146100a157806380213d59146100d1578063a81ccdc514610102578063dcdb69d214610132575b600080fd5b61006f610162565b60405161007c919061051b565b60405180910390f35b61009f600480360381019061009a91906105a9565b610186565b005b6100bb60048036038101906100b691906105e9565b6103db565b6040516100c89190610625565b60405180910390f35b6100eb60048036038101906100e691906105e9565b6103fb565b6040516100f9929190610640565b60405180910390f35b61011c600480360381019061011791906105e9565b610449565b604051610129919061068a565b60405180910390f35b61014c600480360381019061014791906105e9565b61047c565b6040516101599190610625565b60405180910390f35b60008054906101000a900473ffffffffffffffffffffffffffffffffffffffff1681565b6001600083815260200190815260200160002060009054906101000a900460ff16156101e7576040517f08c379a00000000000000000000000000000000000000000000000000000000081526004016101de90610702565b60405180910390fd5b60008060009054906101000a900473ffffffffffffffffffffffffffffffffffffffff1673ffffffffffffffffffffffffffffffffffffffff1663dff7bd60846040518263ffffffff1660e01b81526004016102439190610731565b6040805180830381865afa15801561025f573d6000803e3d6000fd5b505050506040513d601f19601f820116820180604052508101906102839190610778565b9150508073ffffffffffffffffffffffffffffffffffffffff163373ffffffffffffffffffffffffffffffffffffffff16146102f4576040517f08c379a00000000000000000000000000000000000000000000000000000000081526004016102eb9061082a565b60405180910390fd5b600180600085815260200190815260200160002060006101000a81548160ff021916908315150217905550816002600085815260200190815260200160002060006101000a81548160ff021916908315150217905550336003600085815260200190815260200160002060006101000a81548173ffffffffffffffffffffffffffffffffffffffff021916908373ffffffffffffffffffffffffffffffffffffffff160217905550827fb25df704ec1a80bf6168922539ff25c97a832a37ca253602d84f318c91a42f0a83336040516103ce92919061084a565b60405180910390a2505050565b60026020528060005260406000206000915054906101000a900460ff1681565b6000806001600084815260200190815260200160002060009054906101000a900460ff166002600085815260200190815260200160002060009054906101000a900460ff1691509150915091565b60036020528060005260406000206000915054906101000a900473ffffffffffffffffffffffffffffffffffffffff1681565b60016020528060005260406000206000915054906101000a900460ff1681565b600073ffffffffffffffffffffffffffffffffffffffff82169050919050565b6000819050919050565b60006104e16104dc6104d78461049c565b6104bc565b61049c565b9050919050565b60006104f3826104c6565b9050919050565b6000610505826104e8565b9050919050565b610515816104fa565b82525050565b6000602082019050610530600083018461050c565b92915050565b600080fd5b6000819050919050565b61054e8161053b565b811461055957600080fd5b50565b60008135905061056b81610545565b92915050565b60008115159050919050565b61058681610571565b811461059157600080fd5b50565b6000813590506105a38161057d565b92915050565b600080604083850312156105c0576105bf610536565b5b60006105ce8582860161055c565b92505060206105df85828601610594565b9150509250929050565b6000602082840312156105ff576105fe610536565b5b600061060d8482850161055c565b91505092915050565b61061f81610571565b82525050565b600060208201905061063a6000830184610616565b92915050565b60006040820190506106556000830185610616565b6106626020830184610616565b9392505050565b60006106748261049c565b9050919050565b61068481610669565b82525050565b600060208201905061069f600083018461067b565b92915050565b600082825260208201905092915050565b7f44656c697665727920616c72656164792076616c696461746564000000000000600082015250565b60006106ec601a836106a5565b91506106f7826106b6565b602082019050919050565b6000602082019050818103600083015261071b816106df565b9050919050565b61072b8161053b565b82525050565b60006020820190506107466000830184610722565b92915050565b61075581610669565b811461076057600080fd5b50565b6000815190506107728161074c565b92915050565b6000806040838503121561078f5761078e610536565b5b600061079d85828601610763565b92505060206107ae85828601610763565b9150509250929050565b7f4e6f7420617574686f72697a656420746f2076616c69646174652064656c697660008201527f6572790000000000000000000000000000000000000000000000000000000000602082015250565b60006108146023836106a5565b915061081f826107b8565b604082019050919050565b6000602082019050818103600083015261084381610807565b9050919050565b600060408201905061085f6000830185610616565b61086c602083018461067b565b939250505056fea2646970667358221220ee8f01cdb9514c5a20c407970cc5c309d2c3a70de5aa82551a27451288fde47164736f6c634300081c0033",
  "linkReferences": {},
  "deployedLinkReferences": {}
}