{
  "_format": "hh-sol-artifact-1",
  "contractName": "ContractLot",
  "sourceName": "contracts/ContractLot.sol",
  "abi": [
    {
      "anonymous": false,
      "inputs": [
        {
          "indexed": true,
          "internalType": "uint256",
          "name": "lotId",
          "type": "uint256"
        },
        {
          "indexed": false,
          "internalType": "address",
          "name": "transporter",
          "type": "address"
        },
        {
          "indexed": false,
          "internalType": "address",
          "name": "receiver",
          "type": "address"
        }
      ],
      "name": "ActorsUpdated",
      "type": "event"
    },
    {
      "anonymous": false,
      "inputs": [
        {
          "indexed": true,
          "internalType": "uint256",
          "name": "lotId",
          "type": "uint256"
        },
        {
          "indexed": true,
          "internalType": "address",
          "name": "producer",
          "type": "address"
        },
        {
          "indexed": false,
          "internalType": "uint256",
          "name": "timestamp",
          "type": "uint256"
        }
      ],
      "name": "LotCreated",
      "type": "event"
    },
    {
      "inputs": [
        {
          "internalType": "string",
          "name": "_origin",
          "type": "string"
        },
        {
          "internalType": "string",
          "name": "_productData",
          "type": "string"
        }
      ],
      "name": "createLot",
      "outputs": [
        {
          "internalType": "uint256",
          "name": "",
          "type": "uint256"
        }
      ],
      "stateMutability": "nonpayable",
      "type": "function"
    },
    {
      "inputs": [
        {
          "internalType": "uint256",
          "name": "_lotId",
          "type": "uint256"
        }
      ],
      "name": "getLot",
      "outputs": [
        {
          "components": [
            {
              "internalType": "uint256",
              "name": "id",
              "type": "uint256"
            },
            {
              "internalType": "string",
              "name": "origin",
              "type": "string"
            },
            {
              "internalType": "string",
              "name": "productData",
              "type": "string"
            },
            {
              "internalType": "uint256",
              "name": "productionDate",
              "type": "uint256"
            },
            {
              "internalType": "address",
              "name": "producer",
              "type": "address"
            },
            {
              "internalType": "address",
              "name": "transporter",
              "type": "address"
            },
            {
              "internalType": "address",
              "name": "receiver",
              "type": "address"
            },
            {
              "internalType": "bool",
              "name": "exists",
              "type": "bool"
            }
          ],
          "internalType": "struct ContractLot.Lot",
          "name": "",
          "type": "tuple"
        }
      ],
      "stateMutability": "view",
      "type": "function"
    },
    {
      "inputs": [
        {
          "internalType": "uint256",
          "name": "_lotId",
          "type": "uint256"
        }
      ],
      "name": "getLotActors",
      "outputs": [
        {
          "internalType": "address",
          "name": "",
          "type": "address"
        },
        {
          "internalType": "address",
          "name": "",
          "type": "address"
        }
      ],
      "stateMutability": "view",
      "type": "function"
    },
    {
      "inputs": [
        {
          "internalType": "uint256",
          "name": "",
          "type": "uint256"
        }
      ],
      "name": "lots",
      "outputs": [
        {
          "internalType": "uint256",
          "name": "id",
          "type": "uint256"
        },
        {
          "internalType": "string",
          "name": "origin",
          "type": "string"
        },
        {
          "internalType": "string",
          "name": "productData",
          "type": "string"
        },
        {
          "internalType": "uint256",
          "name": "productionDate",
          "type": "uint256"
        },
        {
          "internalType": "address",
          "name": "producer",
          "type": "address"
        },
        {
          "internalType": "address",
          "name": "transporter",
          "type": "address"
        },
        {
          "internalType": "address",
          "name": "receiver",
          "type": "address"
        },
        {
          "internalType": "bool",
          "name": "exists",
          "type": "bool"
        }
      ],
      "stateMutability": "view",
      "type": "function"
    },
    {
      "inputs": [],
      "name": "nextLotId",
      "outputs": [
        {
          "internalType": "uint256",
          "name": "",
          "type": "uint256"
        }
      ],
      "stateMutability": "view",
      "type": "function"
    },
    {
      "inputs": [
        {
          "internalType": "uint256",
          "name": "_lotId",
          "type": "uint256"
        },
        {
          "internalType": "address",
          "name": "_transporter",
          "type": "address"
        },
        {
          "internalType": "address",
          "name": "_receiver",
          "type": "address"
        }
      ],
      "name": "setActors",
      "outputs": [],
      "stateMutability": "nonpayable",
      "type": "function"
    }
  ],
  "bytecode": "0x6080604052348015600f57600080fd5b506115cc8061001f6000396000f3fe608060405234801561001057600080fd5b50600436106100625760003560e01c8063ab995d1214610067578063ac62e0b214610097578063bdaf5adb146100b3578063d666f29e146100e3578063dff7bd6014610101578063f1648e8414610132575b600080fd5b610081600480360381019061007c9190610bf5565b610169565b60405161008e9190610dd4565b60405180910390f35b6100b160048036038101906100ac9190610e22565b61044d565b005b6100cd60048036038101906100c89190610faa565b610639565b6040516100da9190611031565b60405180910390f35b6100eb61087d565b6040516100f89190611031565b60405180910390f35b61011b60048036038101906101169190610bf5565b610883565b60405161012992919061105b565b60405180910390f35b61014c60048036038101906101479190610bf5565b61095d565b6040516101609897969594939291906110dd565b60405180910390f35b610171610b22565b60008083815260200190815260200160002060060160149054906101000a900460ff166101d3576040517f08c379a00000000000000000000000000000000000000000000000000000000081526004016101ca906111b5565b60405180910390fd5b600080838152602001908152602001600020604051806101000160405290816000820154815260200160018201805461020b90611204565b80601f016020809104026020016040519081016040528092919081815260200182805461023790611204565b80156102845780601f1061025957610100808354040283529160200191610284565b820191906000526020600020905b81548152906001019060200180831161026757829003601f168201915b5050505050815260200160028201805461029d90611204565b80601f01602080910402602001604051908101604052809291908181526020018280546102c990611204565b80156103165780601f106102eb57610100808354040283529160200191610316565b820191906000526020600020905b8154815290600101906020018083116102f957829003601f168201915b50505050508152602001600382015481526020016004820160009054906101000a900473ffffffffffffffffffffffffffffffffffffffff1673ffffffffffffffffffffffffffffffffffffffff1673ffffffffffffffffffffffffffffffffffffffff1681526020016005820160009054906101000a900473ffffffffffffffffffffffffffffffffffffffff1673ffffffffffffffffffffffffffffffffffffffff1673ffffffffffffffffffffffffffffffffffffffff1681526020016006820160009054906101000a900473ffffffffffffffffffffffffffffffffffffffff1673ffffffffffffffffffffffffffffffffffffffff1673ffffffffffffffffffffffffffffffffffffffff1681526020016006820160149054906101000a900460ff1615151515815250509050919050565b60008084815260200190815260200160002060060160149054906101000a900460ff166104af576040517f08c379a00000000000000000000000000000000000000000000000000000000081526004016104a6906111b5565b60405180910390fd5b60008084815260200190815260200160002060040160009054906101000a900473ffffffffffffffffffffffffffffffffffffffff1673ffffffffffffffffffffffffffffffffffffffff163373ffffffffffffffffffffffffffffffffffffffff1614610552576040517f08c379a000000000000000000000000000000000000000000000000000000000815260040161054990611281565b60405180910390fd5b8160008085815260200190815260200160002060050160006101000a81548173ffffffffffffffffffffffffffffffffffffffff021916908373ffffffffffffffffffffffffffffffffffffffff1602179055508060008085815260200190815260200160002060060160006101000a81548173ffffffffffffffffffffffffffffffffffffffff021916908373ffffffffffffffffffffffffffffffffffffffff160217905550827f6bfeb6e8c8534d3def2f4eefb61c83b606e9fdd9e590edc3b744fba0d0e9ef9b838360405161062c92919061105b565b60405180910390a2505050565b60008060015490506040518061010001604052808281526020018581526020018481526020014281526020013373ffffffffffffffffffffffffffffffffffffffff168152602001600073ffffffffffffffffffffffffffffffffffffffff168152602001600073ffffffffffffffffffffffffffffffffffffffff168152602001600115158152506000808381526020019081526020016000206000820151816000015560208201518160010190816106f3919061144d565b506040820151816002019081610709919061144d565b506060820151816003015560808201518160040160006101000a81548173ffffffffffffffffffffffffffffffffffffffff021916908373ffffffffffffffffffffffffffffffffffffffff16021790555060a08201518160050160006101000a81548173ffffffffffffffffffffffffffffffffffffffff021916908373ffffffffffffffffffffffffffffffffffffffff16021790555060c08201518160060160006101000a81548173ffffffffffffffffffffffffffffffffffffffff021916908373ffffffffffffffffffffffffffffffffffffffff16021790555060e08201518160060160146101000a81548160ff0219169083151502179055509050503373ffffffffffffffffffffffffffffffffffffffff16817f94a9119e1983e3034dc4a10d1c180605501b21095c1134352cc40535869ed06a426040516108539190611031565b60405180910390a36001600081548092919061086e9061154e565b91905055508091505092915050565b60015481565b60008060008084815260200190815260200160002060060160149054906101000a900460ff166108e8576040517f08c379a00000000000000000000000000000000000000000000000000000000081526004016108df906111b5565b60405180910390fd5b60008084815260200190815260200160002060050160009054906101000a900473ffffffffffffffffffffffffffffffffffffffff1660008085815260200190815260200160002060060160009054906101000a900473ffffffffffffffffffffffffffffffffffffffff1691509150915091565b600060205280600052604060002060009150905080600001549080600101805461098690611204565b80601f01602080910402602001604051908101604052809291908181526020018280546109b290611204565b80156109ff5780601f106109d4576101008083540402835291602001916109ff565b820191906000526020600020905b8154815290600101906020018083116109e257829003601f168201915b505050505090806002018054610a1490611204565b80601f0160208091040260200160405190810160405280929190818152602001828054610a4090611204565b8015610a8d5780601f10610a6257610100808354040283529160200191610a8d565b820191906000526020600020905b815481529060010190602001808311610a7057829003601f168201915b5050505050908060030154908060040160009054906101000a900473ffffffffffffffffffffffffffffffffffffffff16908060050160009054906101000a900473ffffffffffffffffffffffffffffffffffffffff16908060060160009054906101000a900473ffffffffffffffffffffffffffffffffffffffff16908060060160149054906101000a900460ff16905088565b60405180610100016040528060008152602001606081526020016060815260200160008152602001600073ffffffffffffffffffffffffffffffffffffffff168152602001600073ffffffffffffffffffffffffffffffffffffffff168152602001600073ffffffffffffffffffffffffffffffffffffffff1681526020016000151581525090565b6000604051905090565b600080fd5b600080fd5b6000819050919050565b610bd281610bbf565b8114610bdd57600080fd5b50565b600081359050610bef81610bc9565b92915050565b600060208284031215610c0b57610c0a610bb5565b5b6000610c1984828501610be0565b91505092915050565b610c2b81610bbf565b82525050565b600081519050919050565b600082825260208201905092915050565b60005b83811015610c6b578082015181840152602081019050610c50565b60008484015250505050565b6000601f19601f8301169050919050565b6000610c9382610c31565b610c9d8185610c3c565b9350610cad818560208601610c4d565b610cb681610c77565b840191505092915050565b600073ffffffffffffffffffffffffffffffffffffffff82169050919050565b6000610cec82610cc1565b9050919050565b610cfc81610ce1565b82525050565b60008115159050919050565b610d1781610d02565b82525050565b600061010083016000830151610d366000860182610c22565b5060208301518482036020860152610d4e8282610c88565b91505060408301518482036040860152610d688282610c88565b9150506060830151610d7d6060860182610c22565b506080830151610d906080860182610cf3565b5060a0830151610da360a0860182610cf3565b5060c0830151610db660c0860182610cf3565b5060e0830151610dc960e0860182610d0e565b508091505092915050565b60006020820190508181036000830152610dee8184610d1d565b905092915050565b610dff81610ce1565b8114610e0a57600080fd5b50565b600081359050610e1c81610df6565b92915050565b600080600060608486031215610e3b57610e3a610bb5565b5b6000610e4986828701610be0565b9350506020610e5a86828701610e0d565b9250506040610e6b86828701610e0d565b9150509250925092565b600080fd5b600080fd5b7f4e487b7100000000000000000000000000000000000000000000000000000000600052604160045260246000fd5b610eb782610c77565b810181811067ffffffffffffffff82111715610ed657610ed5610e7f565b5b80604052505050565b6000610ee9610bab565b9050610ef58282610eae565b919050565b600067ffffffffffffffff821115610f1557610f14610e7f565b5b610f1e82610c77565b9050602081019050919050565b82818337600083830152505050565b6000610f4d610f4884610efa565b610edf565b905082815260208101848484011115610f6957610f68610e7a565b5b610f74848285610f2b565b509392505050565b600082601f830112610f9157610f90610e75565b5b8135610fa1848260208601610f3a565b91505092915050565b60008060408385031215610fc157610fc0610bb5565b5b600083013567ffffffffffffffff811115610fdf57610fde610bba565b5b610feb85828601610f7c565b925050602083013567ffffffffffffffff81111561100c5761100b610bba565b5b61101885828601610f7c565b9150509250929050565b61102b81610bbf565b82525050565b60006020820190506110466000830184611022565b92915050565b61105581610ce1565b82525050565b6000604082019050611070600083018561104c565b61107d602083018461104c565b9392505050565b600082825260208201905092915050565b60006110a082610c31565b6110aa8185611084565b93506110ba818560208601610c4d565b6110c381610c77565b840191505092915050565b6110d781610d02565b82525050565b6000610100820190506110f3600083018b611022565b8181036020830152611105818a611095565b905081810360408301526111198189611095565b90506111286060830188611022565b611135608083018761104c565b61114260a083018661104c565b61114f60c083018561104c565b61115c60e08301846110ce565b9998505050505050505050565b7f4c6f7420646f6573206e6f742065786973740000000000000000000000000000600082015250565b600061119f601283611084565b91506111aa82611169565b602082019050919050565b600060208201905081810360008301526111ce81611192565b9050919050565b7f4e487b7100000000000000000000000000000000000000000000000000000000600052602260045260246000fd5b6000600282049050600182168061121c57607f821691505b60208210810361122f5761122e6111d5565b5b50919050565b7f4f6e6c792070726f64756365722063616e20736574206163746f727300000000600082015250565b600061126b601c83611084565b915061127682611235565b602082019050919050565b6000602082019050818103600083015261129a8161125e565b9050919050565b60008190508160005260206000209050919050565b60006020601f8301049050919050565b600082821b905092915050565b6000600883026113037fffffffffffffffffffffffffffffffffffffffffffffffffffffffffffffffff826112c6565b61130d86836112c6565b95508019841693508086168417925050509392505050565b6000819050919050565b600061134a61134561134084610bbf565b611325565b610bbf565b9050919050565b6000819050919050565b6113648361132f565b61137861137082611351565b8484546112d3565b825550505050565b600090565b61138d611380565b61139881848461135b565b505050565b5b818110156113bc576113b1600082611385565b60018101905061139e565b5050565b601f821115611401576113d2816112a1565b6113db846112b6565b810160208510156113ea578190505b6113fe6113f6856112b6565b83018261139d565b50505b505050565b600082821c905092915050565b600061142460001984600802611406565b1980831691505092915050565b600061143d8383611413565b9150826002028217905092915050565b61145682610c31565b67ffffffffffffffff81111561146f5761146e610e7f565b5b6114798254611204565b6114848282856113c0565b600060209050601f8311600181146114b757600084156114a5578287015190505b6114af8582611431565b865550611517565b601f1984166114c5866112a1565b60005b828110156114ed578489015182556001820191506020850194506020810190506114c8565b8683101561150a5784890151611506601f891682611413565b8355505b6001600288020188555050505b505050505050565b7f4e487b7100000000000000000000000000000000000000000000000000000000600052601160045260246000fd5b600061155982610bbf565b91507fffffffffffffffffffffffffffffffffffffffffffffffffffffffffffffffff820361158b5761158a61151f565b5b60018201905091905056fea26469706673582212205a050b5bb4033ad43e6003017e32aed8137d994174cfb6f820b2d64876ad61c764736f6c634300081c0033",
  "linkReferences": {},
  "deployedLinkReferences": {}
}