{
  "_format": "hh-sol-artifact-1",
  "contractName": "SupplyChain",
  "sourceName": "contracts/SupplyChain.sol",
  "abi": [
    {
      "anonymous": false,
      "inputs": [
        {
          "indexed": true,
          "internalType": "uint256",
          "name": "lotId",
          "type": "uint256"
        },
        {
          "indexed": false,
          "internalType": "string",
          "name": "title",
          "type": "string"
        },
        {
          "indexed": true,
          "internalType": "address",
          "name": "creator",
          "type": "address"
        },
        {
          "indexed": false,
          "internalType": "uint256",
          "name": "price",
          "type": "uint256"
        }
      ],
      "name": "LotCreated",
      "type": "event"
    },
    {
      "anonymous": false,
      "inputs": [
        {
          "indexed": true,
          "internalType": "uint256",
          "name": "lotId",
          "type": "uint256"
        },
        {
          "indexed": false,
          "internalType": "uint256",
          "name": "stepIndex",
          "type": "uint256"
        },
        {
          "indexed": false,
          "internalType": "string",
          "name": "description",
          "type": "string"
        }
      ],
      "name": "StepAdded",
      "type": "event"
    },
    {
      "anonymous": false,
      "inputs": [
        {
          "indexed": true,
          "internalType": "uint256",
          "name": "lotId",
          "type": "uint256"
        },
        {
          "indexed": false,
          "internalType": "uint256",
          "name": "stepIndex",
          "type": "uint256"
        },
        {
          "indexed": false,
          "internalType": "address",
          "name": "validator",
          "type": "address"
        }
      ],
      "name": "StepValidated",
      "type": "event"
    },
    {
      "inputs": [
        {
          "internalType": "string",
          "name": "_title",
          "type": "string"
        },
        {
          "internalType": "string",
          "name": "_description",
          "type": "string"
        },
        {
          "internalType": "uint256",
          "name": "_quantity",
          "type": "uint256"
        },
        {
          "internalType": "string",
          "name": "_unit",
          "type": "string"
        },
        {
          "internalType": "string",
          "name": "_origin",
          "type": "string"
        },
        {
          "internalType": "uint256",
          "name": "_price",
          "type": "uint256"
        },
        {
          "internalType": "string[]",
          "name": "_stepDescriptions",
          "type": "string[]"
        },
        {
          "internalType": "address[][]",
          "name": "_stepValidators",
          "type": "address[][]"
        }
      ],
      "name": "createLot",
      "outputs": [
        {
          "internalType": "uint256",
          "name": "",
          "type": "uint256"
        }
      ],
      "stateMutability": "nonpayable",
      "type": "function"
    },
    {
      "inputs": [
        {
          "internalType": "uint256",
          "name": "_lotId",
          "type": "uint256"
        }
      ],
      "name": "getLot",
      "outputs": [
        {
          "components": [
            {
              "internalType": "uint256",
              "name": "id",
              "type": "uint256"
            },
            {
              "internalType": "string",
              "name": "title",
              "type": "string"
            },
            {
              "internalType": "string",
              "name": "description",
              "type": "string"
            },
            {
              "internalType": "uint256",
              "name": "quantity",
              "type": "uint256"
            },
            {
              "internalType": "string",
              "name": "unit",
              "type": "string"
            },
            {
              "internalType": "string",
              "name": "origin",
              "type": "string"
            },
            {
              "internalType": "uint256",
              "name": "price",
              "type": "uint256"
            },
            {
              "internalType": "address",
              "name": "creator",
              "type": "address"
            },
            {
              "internalType": "uint256",
              "name": "createdAt",
              "type": "uint256"
            },
            {
              "internalType": "bool",
              "name": "exists",
              "type": "bool"
            }
          ],
          "internalType": "struct SupplyChain.Lot",
          "name": "",
          "type": "tuple"
        }
      ],
      "stateMutability": "view",
      "type": "function"
    },
    {
      "inputs": [
        {
          "internalType": "uint256",
          "name": "_lotId",
          "type": "uint256"
        }
      ],
      "name": "getLotStepsCount",
      "outputs": [
        {
          "internalType": "uint256",
          "name": "",
          "type": "uint256"
        }
      ],
      "stateMutability": "view",
      "type": "function"
    },
    {
      "inputs": [
        {
          "internalType": "uint256",
          "name": "_lotId",
          "type": "uint256"
        },
        {
          "internalType": "uint256",
          "name": "_stepIndex",
          "type": "uint256"
        }
      ],
      "name": "getStep",
      "outputs": [
        {
          "internalType": "string",
          "name": "description",
          "type": "string"
        },
        {
          "internalType": "address[]",
          "name": "validators",
          "type": "address[]"
        },
        {
          "internalType": "address",
          "name": "validatedBy",
          "type": "address"
        },
        {
          "internalType": "uint256",
          "name": "validatedAt",
          "type": "uint256"
        },
        {
          "internalType": "enum SupplyChain.StepStatus",
          "name": "status",
          "type": "uint8"
        }
      ],
      "stateMutability": "view",
      "type": "function"
    },
    {
      "inputs": [
        {
          "internalType": "uint256",
          "name": "",
          "type": "uint256"
        },
        {
          "internalType": "uint256",
          "name": "",
          "type": "uint256"
        }
      ],
      "name": "lotSteps",
      "outputs": [
        {
          "internalType": "string",
          "name": "description",
          "type": "string"
        },
        {
          "internalType": "address",
          "name": "validatedBy",
          "type": "address"
        },
        {
          "internalType": "uint256",
          "name": "validatedAt",
          "type": "uint256"
        },
        {
          "internalType": "enum SupplyChain.StepStatus",
          "name": "status",
          "type": "uint8"
        }
      ],
      "stateMutability": "view",
      "type": "function"
    },
    {
      "inputs": [
        {
          "internalType": "uint256",
          "name": "",
          "type": "uint256"
        }
      ],
      "name": "lots",
      "outputs": [
        {
          "internalType": "uint256",
          "name": "id",
          "type": "uint256"
        },
        {
          "internalType": "string",
          "name": "title",
          "type": "string"
        },
        {
          "internalType": "string",
          "name": "description",
          "type": "string"
        },
        {
          "internalType": "uint256",
          "name": "quantity",
          "type": "uint256"
        },
        {
          "internalType": "string",
          "name": "unit",
          "type": "string"
        },
        {
          "internalType": "string",
          "name": "origin",
          "type": "string"
        },
        {
          "internalType": "uint256",
          "name": "price",
          "type": "uint256"
        },
        {
          "internalType": "address",
          "name": "creator",
          "type": "address"
        },
        {
          "internalType": "uint256",
          "name": "createdAt",
          "type": "uint256"
        },
        {
          "internalType": "bool",
          "name": "exists",
          "type": "bool"
        }
      ],
      "stateMutability": "view",
      "type": "function"
    },
    {
      "inputs": [],
      "name": "nextLotId",
      "outputs": [
        {
          "internalType": "uint256",
          "name": "",
          "type": "uint256"
        }
      ],
      "stateMutability": "view",
      "type": "function"
    },
    {
      "inputs": [
        {
          "internalType": "uint256",
          "name": "_lotId",
          "type": "uint256"
        },
        {
          "internalType": "uint256",
          "name": "_stepIndex",
          "type": "uint256"
        }
      ],
      "name": "validateStep",
      "outputs": [],
      "stateMutability": "nonpayable",
      "type": "function"
    }
  ],
  "bytecode": "0x6080604052348015600f57600080fd5b5061266e8061001f6000396000f3fe608060405234801561001057600080fd5b50600436106100885760003560e01c806387543aa71161005b57806387543aa714610154578063ab995d1214610170578063d666f29e146101a0578063f1648e84146101be57610088565b806303118ad41461008d57806304efba87146100bd5780634db04508146100f05780637f6de73a14610124575b600080fd5b6100a760048036038101906100a2919061182c565b6101f7565b6040516100b49190611999565b60405180910390f35b6100d760048036038101906100d291906119b4565b610649565b6040516100e79493929190611af9565b60405180910390f35b61010a600480360381019061010591906119b4565b61074b565b60405161011b959493929190611c03565b60405180910390f35b61013e60048036038101906101399190611c64565b6108f6565b60405161014b9190611999565b60405180910390f35b61016e600480360381019061016991906119b4565b610916565b005b61018a60048036038101906101859190611c64565b610ced565b6040516101979190611df4565b60405180910390f35b6101a8610ffb565b6040516101b59190611999565b60405180910390f35b6101d860048036038101906101d39190611c64565b611001565b6040516101ee9a99989796959493929190611e25565b60405180910390f35b6000815183511461023d576040517f08c379a000000000000000000000000000000000000000000000000000000000815260040161023490611f29565b60405180910390fd5b60008711610280576040517f08c379a000000000000000000000000000000000000000000000000000000000815260040161027790611f95565b60405180910390fd5b600060025490506040518061014001604052808281526020018b81526020018a81526020018981526020018881526020018781526020018681526020013373ffffffffffffffffffffffffffffffffffffffff1681526020014281526020016001151581525060008083815260200190815260200160002060008201518160000155602082015181600101908161031791906121c1565b50604082015181600201908161032d91906121c1565b5060608201518160030155608082015181600401908161034d91906121c1565b5060a082015181600501908161036391906121c1565b5060c0820151816006015560e08201518160070160006101000a81548173ffffffffffffffffffffffffffffffffffffffff021916908373ffffffffffffffffffffffffffffffffffffffff16021790555061010082015181600801556101208201518160090160006101000a81548160ff02191690831515021790555090505060005b84518110156105cf5760006040518060a001604052808784815181106104105761040f612293565b5b602002602001015181526020018684815181106104305761042f612293565b5b60200260200101518152602001600073ffffffffffffffffffffffffffffffffffffffff168152602001600081526020016000600181111561047557610474611a82565b5b81525090506001600084815260200190815260200160002081908060018154018082558091505060019003906000526020600020906005020160009091909190915060008201518160000190816104cc91906121c1565b5060208201518160010190805190602001906104e99291906112a2565b5060408201518160020160006101000a81548173ffffffffffffffffffffffffffffffffffffffff021916908373ffffffffffffffffffffffffffffffffffffffff1602179055506060820151816003015560808201518160040160006101000a81548160ff0219169083600181111561056657610565611a82565b5b02179055505050827f99cc24a042b68d2ab1bec337a6c99bf8c9eeb2113fe5b53eb15be3fbda96f871838885815181106105a3576105a2612293565b5b60200260200101516040516105b99291906122c2565b60405180910390a25080806001019150506103e7565b503373ffffffffffffffffffffffffffffffffffffffff16817fea423ead3fee1fc15d9c71d0e66b95ae9f0e52e576779999977264bcf8f26e328c886040516106199291906122f2565b60405180910390a36002600081548092919061063490612351565b91905055508091505098975050505050505050565b6001602052816000526040600020818154811061066557600080fd5b90600052602060002090600502016000915091505080600001805461068990611fe4565b80601f01602080910402602001604051908101604052809291908181526020018280546106b590611fe4565b80156107025780601f106106d757610100808354040283529160200191610702565b820191906000526020600020905b8154815290600101906020018083116106e557829003601f168201915b5050505050908060020160009054906101000a900473ffffffffffffffffffffffffffffffffffffffff16908060030154908060040160009054906101000a900460ff16905084565b60608060008060008060016000898152602001908152602001600020878154811061077957610778612293565b5b9060005260206000209060050201905080600001816001018260020160009054906101000a900473ffffffffffffffffffffffffffffffffffffffff1683600301548460040160009054906101000a900460ff168480546107d990611fe4565b80601f016020809104026020016040519081016040528092919081815260200182805461080590611fe4565b80156108525780601f1061082757610100808354040283529160200191610852565b820191906000526020600020905b81548152906001019060200180831161083557829003601f168201915b50505050509450838054806020026020016040519081016040528092919081815260200182805480156108da57602002820191906000526020600020905b8160009054906101000a900473ffffffffffffffffffffffffffffffffffffffff1673ffffffffffffffffffffffffffffffffffffffff1681526020019060010190808311610890575b5050505050935095509550955095509550509295509295909350565b600060016000838152602001908152602001600020805490509050919050565b60008083815260200190815260200160002060090160009054906101000a900460ff16610978576040517f08c379a000000000000000000000000000000000000000000000000000000000815260040161096f906123e5565b60405180910390fd5b600160008381526020019081526020016000208054905081106109d0576040517f08c379a00000000000000000000000000000000000000000000000000000000081526004016109c790612451565b60405180910390fd5b60006001600084815260200190815260200160002082815481106109f7576109f6612293565b5b9060005260206000209060050201905060006001811115610a1b57610a1a611a82565b5b8160040160009054906101000a900460ff166001811115610a3f57610a3e611a82565b5b14610a7f576040517f08c379a0000000000000000000000000000000000000000000000000000000008152600401610a76906124bd565b60405180910390fd5b6000821115610b3e57600180811115610a9b57610a9a611a82565b5b60016000858152602001908152602001600020600184610abb91906124dd565b81548110610acc57610acb612293565b5b906000526020600020906005020160040160009054906101000a900460ff166001811115610afd57610afc611a82565b5b14610b3d576040517f08c379a0000000000000000000000000000000000000000000000000000000008152600401610b349061255d565b60405180910390fd5b5b600080826001018054905003610b575760019050610bf4565b60005b8260010180549050811015610bf2573373ffffffffffffffffffffffffffffffffffffffff16836001018281548110610b9657610b95612293565b5b9060005260206000200160009054906101000a900473ffffffffffffffffffffffffffffffffffffffff1673ffffffffffffffffffffffffffffffffffffffff1603610be55760019150610bf2565b8080600101915050610b5a565b505b80610c34576040517f08c379a0000000000000000000000000000000000000000000000000000000008152600401610c2b906125ef565b60405180910390fd5b60018260040160006101000a81548160ff02191690836001811115610c5c57610c5b611a82565b5b0217905550338260020160006101000a81548173ffffffffffffffffffffffffffffffffffffffff021916908373ffffffffffffffffffffffffffffffffffffffff160217905550428260030181905550837f41184de05a8122342d16fa252d13312d456991928477b2394321cfa5f703099a8433604051610cdf92919061260f565b60405180910390a250505050565b610cf561132c565b6000808381526020019081526020016000206040518061014001604052908160008201548152602001600182018054610d2d90611fe4565b80601f0160208091040260200160405190810160405280929190818152602001828054610d5990611fe4565b8015610da65780601f10610d7b57610100808354040283529160200191610da6565b820191906000526020600020905b815481529060010190602001808311610d8957829003601f168201915b50505050508152602001600282018054610dbf90611fe4565b80601f0160208091040260200160405190810160405280929190818152602001828054610deb90611fe4565b8015610e385780601f10610e0d57610100808354040283529160200191610e38565b820191906000526020600020905b815481529060010190602001808311610e1b57829003601f168201915b5050505050815260200160038201548152602001600482018054610e5b90611fe4565b80601f0160208091040260200160405190810160405280929190818152602001828054610e8790611fe4565b8015610ed45780601f10610ea957610100808354040283529160200191610ed4565b820191906000526020600020905b815481529060010190602001808311610eb757829003601f168201915b50505050508152602001600582018054610eed90611fe4565b80601f0160208091040260200160405190810160405280929190818152602001828054610f1990611fe4565b8015610f665780601f10610f3b57610100808354040283529160200191610f66565b820191906000526020600020905b815481529060010190602001808311610f4957829003601f168201915b50505050508152602001600682015481526020016007820160009054906101000a900473ffffffffffffffffffffffffffffffffffffffff1673ffffffffffffffffffffffffffffffffffffffff1673ffffffffffffffffffffffffffffffffffffffff168152602001600882015481526020016009820160009054906101000a900460ff1615151515815250509050919050565b60025481565b600060205280600052604060002060009150905080600001549080600101805461102a90611fe4565b80601f016020809104026020016040519081016040528092919081815260200182805461105690611fe4565b80156110a35780601f10611078576101008083540402835291602001916110a3565b820191906000526020600020905b81548152906001019060200180831161108657829003601f168201915b5050505050908060020180546110b890611fe4565b80601f01602080910402602001604051908101604052809291908181526020018280546110e490611fe4565b80156111315780601f1061110657610100808354040283529160200191611131565b820191906000526020600020905b81548152906001019060200180831161111457829003601f168201915b50505050509080600301549080600401805461114c90611fe4565b80601f016020809104026020016040519081016040528092919081815260200182805461117890611fe4565b80156111c55780601f1061119a576101008083540402835291602001916111c5565b820191906000526020600020905b8154815290600101906020018083116111a857829003601f168201915b5050505050908060050180546111da90611fe4565b80601f016020809104026020016040519081016040528092919081815260200182805461120690611fe4565b80156112535780601f1061122857610100808354040283529160200191611253565b820191906000526020600020905b81548152906001019060200180831161123657829003601f168201915b5050505050908060060154908060070160009054906101000a900473ffffffffffffffffffffffffffffffffffffffff16908060080154908060090160009054906101000a900460ff1690508a565b82805482825590600052602060002090810192821561131b579160200282015b8281111561131a5782518260006101000a81548173ffffffffffffffffffffffffffffffffffffffff021916908373ffffffffffffffffffffffffffffffffffffffff160217905550916020019190600101906112c2565b5b5090506113289190611397565b5090565b60405180610140016040528060008152602001606081526020016060815260200160008152602001606081526020016060815260200160008152602001600073ffffffffffffffffffffffffffffffffffffffff168152602001600081526020016000151581525090565b5b808211156113b0576000816000905550600101611398565b5090565b6000604051905090565b600080fd5b600080fd5b600080fd5b600080fd5b6000601f19601f8301169050919050565b7f4e487b7100000000000000000000000000000000000000000000000000000000600052604160045260246000fd5b61141b826113d2565b810181811067ffffffffffffffff8211171561143a576114396113e3565b5b80604052505050565b600061144d6113b4565b90506114598282611412565b919050565b600067ffffffffffffffff821115611479576114786113e3565b5b611482826113d2565b9050602081019050919050565b82818337600083830152505050565b60006114b16114ac8461145e565b611443565b9050828152602081018484840111156114cd576114cc6113cd565b5b6114d884828561148f565b509392505050565b600082601f8301126114f5576114f46113c8565b5b813561150584826020860161149e565b91505092915050565b6000819050919050565b6115218161150e565b811461152c57600080fd5b50565b60008135905061153e81611518565b92915050565b600067ffffffffffffffff82111561155f5761155e6113e3565b5b602082029050602081019050919050565b600080fd5b600061158861158384611544565b611443565b905080838252602082019050602084028301858111156115ab576115aa611570565b5b835b818110156115f257803567ffffffffffffffff8111156115d0576115cf6113c8565b5b8086016115dd89826114e0565b855260208501945050506020810190506115ad565b5050509392505050565b600082601f830112611611576116106113c8565b5b8135611621848260208601611575565b91505092915050565b600067ffffffffffffffff821115611645576116446113e3565b5b602082029050602081019050919050565b600067ffffffffffffffff821115611671576116706113e3565b5b602082029050602081019050919050565b600073ffffffffffffffffffffffffffffffffffffffff82169050919050565b60006116ad82611682565b9050919050565b6116bd816116a2565b81146116c857600080fd5b50565b6000813590506116da816116b4565b92915050565b60006116f36116ee84611656565b611443565b9050808382526020820190506020840283018581111561171657611715611570565b5b835b8181101561173f578061172b88826116cb565b845260208401935050602081019050611718565b5050509392505050565b600082601f83011261175e5761175d6113c8565b5b813561176e8482602086016116e0565b91505092915050565b600061178a6117858461162a565b611443565b905080838252602082019050602084028301858111156117ad576117ac611570565b5b835b818110156117f457803567ffffffffffffffff8111156117d2576117d16113c8565b5b8086016117df8982611749565b855260208501945050506020810190506117af565b5050509392505050565b600082601f830112611813576118126113c8565b5b8135611823848260208601611777565b91505092915050565b600080600080600080600080610100898b03121561184d5761184c6113be565b5b600089013567ffffffffffffffff81111561186b5761186a6113c3565b5b6118778b828c016114e0565b985050602089013567ffffffffffffffff811115611898576118976113c3565b5b6118a48b828c016114e0565b97505060406118b58b828c0161152f565b965050606089013567ffffffffffffffff8111156118d6576118d56113c3565b5b6118e28b828c016114e0565b955050608089013567ffffffffffffffff811115611903576119026113c3565b5b61190f8b828c016114e0565b94505060a06119208b828c0161152f565b93505060c089013567ffffffffffffffff811115611941576119406113c3565b5b61194d8b828c016115fc565b92505060e089013567ffffffffffffffff81111561196e5761196d6113c3565b5b61197a8b828c016117fe565b9150509295985092959890939650565b6119938161150e565b82525050565b60006020820190506119ae600083018461198a565b92915050565b600080604083850312156119cb576119ca6113be565b5b60006119d98582860161152f565b92505060206119ea8582860161152f565b9150509250929050565b600081519050919050565b600082825260208201905092915050565b60005b83811015611a2e578082015181840152602081019050611a13565b60008484015250505050565b6000611a45826119f4565b611a4f81856119ff565b9350611a5f818560208601611a10565b611a68816113d2565b840191505092915050565b611a7c816116a2565b82525050565b7f4e487b7100000000000000000000000000000000000000000000000000000000600052602160045260246000fd5b60028110611ac257611ac1611a82565b5b50565b6000819050611ad382611ab1565b919050565b6000611ae382611ac5565b9050919050565b611af381611ad8565b82525050565b60006080820190508181036000830152611b138187611a3a565b9050611b226020830186611a73565b611b2f604083018561198a565b611b3c6060830184611aea565b95945050505050565b600081519050919050565b600082825260208201905092915050565b6000819050602082019050919050565b611b7a816116a2565b82525050565b6000611b8c8383611b71565b60208301905092915050565b6000602082019050919050565b6000611bb082611b45565b611bba8185611b50565b9350611bc583611b61565b8060005b83811015611bf6578151611bdd8882611b80565b9750611be883611b98565b925050600181019050611bc9565b5085935050505092915050565b600060a0820190508181036000830152611c1d8188611a3a565b90508181036020830152611c318187611ba5565b9050611c406040830186611a73565b611c4d606083018561198a565b611c5a6080830184611aea565b9695505050505050565b600060208284031215611c7a57611c796113be565b5b6000611c888482850161152f565b91505092915050565b611c9a8161150e565b82525050565b600082825260208201905092915050565b6000611cbc826119f4565b611cc68185611ca0565b9350611cd6818560208601611a10565b611cdf816113d2565b840191505092915050565b60008115159050919050565b611cff81611cea565b82525050565b600061014083016000830151611d1e6000860182611c91565b5060208301518482036020860152611d368282611cb1565b91505060408301518482036040860152611d508282611cb1565b9150506060830151611d656060860182611c91565b5060808301518482036080860152611d7d8282611cb1565b91505060a083015184820360a0860152611d978282611cb1565b91505060c0830151611dac60c0860182611c91565b5060e0830151611dbf60e0860182611b71565b50610100830151611dd4610100860182611c91565b50610120830151611de9610120860182611cf6565b508091505092915050565b60006020820190508181036000830152611e0e8184611d05565b905092915050565b611e1f81611cea565b82525050565b600061014082019050611e3b600083018d61198a565b8181036020830152611e4d818c611a3a565b90508181036040830152611e61818b611a3a565b9050611e70606083018a61198a565b8181036080830152611e828189611a3a565b905081810360a0830152611e968188611a3a565b9050611ea560c083018761198a565b611eb260e0830186611a73565b611ec061010083018561198a565b611ece610120830184611e16565b9b9a5050505050505050505050565b7f53746570732064617461206d69736d6174636800000000000000000000000000600082015250565b6000611f136013836119ff565b9150611f1e82611edd565b602082019050919050565b60006020820190508181036000830152611f4281611f06565b9050919050565b7f5175616e74697479206d7573742062652067726561746572207468616e203000600082015250565b6000611f7f601f836119ff565b9150611f8a82611f49565b602082019050919050565b60006020820190508181036000830152611fae81611f72565b9050919050565b7f4e487b7100000000000000000000000000000000000000000000000000000000600052602260045260246000fd5b60006002820490506001821680611ffc57607f821691505b60208210810361200f5761200e611fb5565b5b50919050565b60008190508160005260206000209050919050565b60006020601f8301049050919050565b600082821b905092915050565b6000600883026120777fffffffffffffffffffffffffffffffffffffffffffffffffffffffffffffffff8261203a565b612081868361203a565b95508019841693508086168417925050509392505050565b6000819050919050565b60006120be6120b96120b48461150e565b612099565b61150e565b9050919050565b6000819050919050565b6120d8836120a3565b6120ec6120e4826120c5565b848454612047565b825550505050565b600090565b6121016120f4565b61210c8184846120cf565b505050565b5b81811015612130576121256000826120f9565b600181019050612112565b5050565b601f8211156121755761214681612015565b61214f8461202a565b8101602085101561215e578190505b61217261216a8561202a565b830182612111565b50505b505050565b600082821c905092915050565b60006121986000198460080261217a565b1980831691505092915050565b60006121b18383612187565b9150826002028217905092915050565b6121ca826119f4565b67ffffffffffffffff8111156121e3576121e26113e3565b5b6121ed8254611fe4565b6121f8828285612134565b600060209050601f83116001811461222b5760008415612219578287015190505b61222385826121a5565b86555061228b565b601f19841661223986612015565b60005b828110156122615784890151825560018201915060208501945060208101905061223c565b8683101561227e578489015161227a601f891682612187565b8355505b6001600288020188555050505b505050505050565b7f4e487b7100000000000000000000000000000000000000000000000000000000600052603260045260246000fd5b60006040820190506122d7600083018561198a565b81810360208301526122e98184611a3a565b90509392505050565b6000604082019050818103600083015261230c8185611a3a565b905061231b602083018461198a565b9392505050565b7f4e487b7100000000000000000000000000000000000000000000000000000000600052601160045260246000fd5b600061235c8261150e565b91507fffffffffffffffffffffffffffffffffffffffffffffffffffffffffffffffff820361238e5761238d612322565b5b600182019050919050565b7f4c6f7420646f6573206e6f742065786973740000000000000000000000000000600082015250565b60006123cf6012836119ff565b91506123da82612399565b602082019050919050565b600060208201905081810360008301526123fe816123c2565b9050919050565b7f5374657020646f6573206e6f7420657869737400000000000000000000000000600082015250565b600061243b6013836119ff565b915061244682612405565b602082019050919050565b6000602082019050818103600083015261246a8161242e565b9050919050565b7f5374657020616c726561647920636f6d706c6574656400000000000000000000600082015250565b60006124a76016836119ff565b91506124b282612471565b602082019050919050565b600060208201905081810360008301526124d68161249a565b9050919050565b60006124e88261150e565b91506124f38361150e565b925082820390508181111561250b5761250a612322565b5b92915050565b7f50726576696f75732073746570206e6f7420636f6d706c657465640000000000600082015250565b6000612547601b836119ff565b915061255282612511565b602082019050919050565b600060208201905081810360008301526125768161253a565b9050919050565b7f4e6f7420617574686f72697a656420746f2076616c696461746520746869732060008201527f7374657000000000000000000000000000000000000000000000000000000000602082015250565b60006125d96024836119ff565b91506125e48261257d565b604082019050919050565b60006020820190508181036000830152612608816125cc565b9050919050565b6000604082019050612624600083018561198a565b6126316020830184611a73565b939250505056fea26469706673582212209c95dbd7b33905840d28308cd23fa6f80dc4acd6162d976475a9ad6b097df02864736f6c634300081c0033",
  "linkReferences": {},
  "deployedLinkReferences": {}
}