{
  "_format": "hh-sol-artifact-1",
  "contractName": "SupplyChain",
  "sourceName": "contracts/SupplyChain.sol",
  "abi": [
    {
      "anonymous": false,
      "inputs": [
        {
          "indexed": true,
          "internalType": "uint256",
          "name": "lotId",
          "type": "uint256"
        },
        {
          "indexed": false,
          "internalType": "string",
          "name": "title",
          "type": "string"
        },
        {
          "indexed": true,
          "internalType": "address",
          "name": "creator",
          "type": "address"
        }
      ],
      "name": "LotCreated",
      "type": "event"
    },
    {
      "anonymous": false,
      "inputs": [
        {
          "indexed": true,
          "internalType": "uint256",
          "name": "lotId",
          "type": "uint256"
        },
        {
          "indexed": false,
          "internalType": "uint256",
          "name": "stepIndex",
          "type": "uint256"
        },
        {
          "indexed": false,
          "internalType": "string",
          "name": "description",
          "type": "string"
        }
      ],
      "name": "StepAdded",
      "type": "event"
    },
    {
      "anonymous": false,
      "inputs": [
        {
          "indexed": true,
          "internalType": "uint256",
          "name": "lotId",
          "type": "uint256"
        },
        {
          "indexed": false,
          "internalType": "uint256",
          "name": "stepIndex",
          "type": "uint256"
        },
        {
          "indexed": false,
          "internalType": "address",
          "name": "validator",
          "type": "address"
        }
      ],
      "name": "StepValidated",
      "type": "event"
    },
    {
      "inputs": [
        {
          "internalType": "string",
          "name": "_title",
          "type": "string"
        },
        {
          "internalType": "string",
          "name": "_description",
          "type": "string"
        },
        {
          "internalType": "string[]",
          "name": "_stepDescriptions",
          "type": "string[]"
        },
        {
          "internalType": "address[][]",
          "name": "_stepValidators",
          "type": "address[][]"
        }
      ],
      "name": "createLot",
      "outputs": [
        {
          "internalType": "uint256",
          "name": "",
          "type": "uint256"
        }
      ],
      "stateMutability": "nonpayable",
      "type": "function"
    },
    {
      "inputs": [
        {
          "internalType": "uint256",
          "name": "_lotId",
          "type": "uint256"
        }
      ],
      "name": "getLot",
      "outputs": [
        {
          "components": [
            {
              "internalType": "uint256",
              "name": "id",
              "type": "uint256"
            },
            {
              "internalType": "string",
              "name": "title",
              "type": "string"
            },
            {
              "internalType": "string",
              "name": "description",
              "type": "string"
            },
            {
              "internalType": "address",
              "name": "creator",
              "type": "address"
            },
            {
              "internalType": "uint256",
              "name": "createdAt",
              "type": "uint256"
            },
            {
              "internalType": "bool",
              "name": "exists",
              "type": "bool"
            }
          ],
          "internalType": "struct SupplyChain.Lot",
          "name": "",
          "type": "tuple"
        }
      ],
      "stateMutability": "view",
      "type": "function"
    },
    {
      "inputs": [
        {
          "internalType": "uint256",
          "name": "_lotId",
          "type": "uint256"
        }
      ],
      "name": "getLotStepsCount",
      "outputs": [
        {
          "internalType": "uint256",
          "name": "",
          "type": "uint256"
        }
      ],
      "stateMutability": "view",
      "type": "function"
    },
    {
      "inputs": [
        {
          "internalType": "uint256",
          "name": "_lotId",
          "type": "uint256"
        },
        {
          "internalType": "uint256",
          "name": "_stepIndex",
          "type": "uint256"
        }
      ],
      "name": "getStep",
      "outputs": [
        {
          "internalType": "string",
          "name": "description",
          "type": "string"
        },
        {
          "internalType": "address[]",
          "name": "validators",
          "type": "address[]"
        },
        {
          "internalType": "address",
          "name": "validatedBy",
          "type": "address"
        },
        {
          "internalType": "uint256",
          "name": "validatedAt",
          "type": "uint256"
        },
        {
          "internalType": "enum SupplyChain.StepStatus",
          "name": "status",
          "type": "uint8"
        }
      ],
      "stateMutability": "view",
      "type": "function"
    },
    {
      "inputs": [
        {
          "internalType": "uint256",
          "name": "",
          "type": "uint256"
        },
        {
          "internalType": "uint256",
          "name": "",
          "type": "uint256"
        }
      ],
      "name": "lotSteps",
      "outputs": [
        {
          "internalType": "string",
          "name": "description",
          "type": "string"
        },
        {
          "internalType": "address",
          "name": "validatedBy",
          "type": "address"
        },
        {
          "internalType": "uint256",
          "name": "validatedAt",
          "type": "uint256"
        },
        {
          "internalType": "enum SupplyChain.StepStatus",
          "name": "status",
          "type": "uint8"
        }
      ],
      "stateMutability": "view",
      "type": "function"
    },
    {
      "inputs": [
        {
          "internalType": "uint256",
          "name": "",
          "type": "uint256"
        }
      ],
      "name": "lots",
      "outputs": [
        {
          "internalType": "uint256",
          "name": "id",
          "type": "uint256"
        },
        {
          "internalType": "string",
          "name": "title",
          "type": "string"
        },
        {
          "internalType": "string",
          "name": "description",
          "type": "string"
        },
        {
          "internalType": "address",
          "name": "creator",
          "type": "address"
        },
        {
          "internalType": "uint256",
          "name": "createdAt",
          "type": "uint256"
        },
        {
          "internalType": "bool",
          "name": "exists",
          "type": "bool"
        }
      ],
      "stateMutability": "view",
      "type": "function"
    },
    {
      "inputs": [],
      "name": "nextLotId",
      "outputs": [
        {
          "internalType": "uint256",
          "name": "",
          "type": "uint256"
        }
      ],
      "stateMutability": "view",
      "type": "function"
    },
    {
      "inputs": [
        {
          "internalType": "uint256",
          "name": "_lotId",
          "type": "uint256"
        },
        {
          "internalType": "uint256",
          "name": "_stepIndex",
          "type": "uint256"
        }
      ],
      "name": "validateStep",
      "outputs": [],
      "stateMutability": "nonpayable",
      "type": "function"
    }
  ],
  "bytecode": "0x6080604052348015600f57600080fd5b5061219f8061001f6000396000f3fe608060405234801561001057600080fd5b50600436106100885760003560e01c806387543aa71161005b57806387543aa714610154578063ab995d1214610170578063d666f29e146101a0578063f1648e84146101be57610088565b806304efba871461008d5780634db04508146100c05780636e66dfcb146100f45780637f6de73a14610124575b600080fd5b6100a760048036038101906100a291906110d8565b6101f3565b6040516100b7949392919061126f565b60405180910390f35b6100da60048036038101906100d591906110d8565b6102f5565b6040516100eb959493929190611379565b60405180910390f35b61010e600480360381019061010991906117c5565b6104a0565b60405161011b919061189c565b60405180910390f35b61013e600480360381019061013991906118b7565b61084e565b60405161014b919061189c565b60405180910390f35b61016e600480360381019061016991906110d8565b61086e565b005b61018a600480360381019061018591906118b7565b610c45565b60405161019791906119e8565b60405180910390f35b6101a8610e1a565b6040516101b5919061189c565b60405180910390f35b6101d860048036038101906101d391906118b7565b610e20565b6040516101ea96959493929190611a19565b60405180910390f35b6001602052816000526040600020818154811061020f57600080fd5b90600052602060002090600502016000915091505080600001805461023390611ab7565b80601f016020809104026020016040519081016040528092919081815260200182805461025f90611ab7565b80156102ac5780601f10610281576101008083540402835291602001916102ac565b820191906000526020600020905b81548152906001019060200180831161028f57829003601f168201915b5050505050908060020160009054906101000a900473ffffffffffffffffffffffffffffffffffffffff16908060030154908060040160009054906101000a900460ff16905084565b60608060008060008060016000898152602001908152602001600020878154811061032357610322611ae8565b5b9060005260206000209060050201905080600001816001018260020160009054906101000a900473ffffffffffffffffffffffffffffffffffffffff1683600301548460040160009054906101000a900460ff1684805461038390611ab7565b80601f01602080910402602001604051908101604052809291908181526020018280546103af90611ab7565b80156103fc5780601f106103d1576101008083540402835291602001916103fc565b820191906000526020600020905b8154815290600101906020018083116103df57829003601f168201915b505050505094508380548060200260200160405190810160405280929190818152602001828054801561048457602002820191906000526020600020905b8160009054906101000a900473ffffffffffffffffffffffffffffffffffffffff1673ffffffffffffffffffffffffffffffffffffffff168152602001906001019080831161043a575b5050505050935095509550955095509550509295509295909350565b600081518351146104e6576040517f08c379a00000000000000000000000000000000000000000000000000000000081526004016104dd90611b63565b60405180910390fd5b600060025490506040518060c001604052808281526020018781526020018681526020013373ffffffffffffffffffffffffffffffffffffffff168152602001428152602001600115158152506000808381526020019081526020016000206000820151816000015560208201518160010190816105649190611d2f565b50604082015181600201908161057a9190611d2f565b5060608201518160030160006101000a81548173ffffffffffffffffffffffffffffffffffffffff021916908373ffffffffffffffffffffffffffffffffffffffff1602179055506080820151816004015560a08201518160050160006101000a81548160ff02191690831515021790555090505060005b84518110156107da5760006040518060a0016040528087848151811061061b5761061a611ae8565b5b6020026020010151815260200186848151811061063b5761063a611ae8565b5b60200260200101518152602001600073ffffffffffffffffffffffffffffffffffffffff16815260200160008152602001600060018111156106805761067f6111f8565b5b81525090506001600084815260200190815260200160002081908060018154018082558091505060019003906000526020600020906005020160009091909190915060008201518160000190816106d79190611d2f565b5060208201518160010190805190602001906106f4929190610f99565b5060408201518160020160006101000a81548173ffffffffffffffffffffffffffffffffffffffff021916908373ffffffffffffffffffffffffffffffffffffffff1602179055506060820151816003015560808201518160040160006101000a81548160ff02191690836001811115610771576107706111f8565b5b02179055505050827f99cc24a042b68d2ab1bec337a6c99bf8c9eeb2113fe5b53eb15be3fbda96f871838885815181106107ae576107ad611ae8565b5b60200260200101516040516107c4929190611e01565b60405180910390a25080806001019150506105f2565b503373ffffffffffffffffffffffffffffffffffffffff16817f7b8b6910cc0fe6c7733361ed6ce8e93a248625fa33ec88447ba7ba7f3089b827886040516108229190611e31565b60405180910390a36002600081548092919061083d90611e82565b919050555080915050949350505050565b600060016000838152602001908152602001600020805490509050919050565b60008083815260200190815260200160002060050160009054906101000a900460ff166108d0576040517f08c379a00000000000000000000000000000000000000000000000000000000081526004016108c790611f16565b60405180910390fd5b60016000838152602001908152602001600020805490508110610928576040517f08c379a000000000000000000000000000000000000000000000000000000000815260040161091f90611f82565b60405180910390fd5b600060016000848152602001908152602001600020828154811061094f5761094e611ae8565b5b9060005260206000209060050201905060006001811115610973576109726111f8565b5b8160040160009054906101000a900460ff166001811115610997576109966111f8565b5b146109d7576040517f08c379a00000000000000000000000000000000000000000000000000000000081526004016109ce90611fee565b60405180910390fd5b6000821115610a96576001808111156109f3576109f26111f8565b5b60016000858152602001908152602001600020600184610a13919061200e565b81548110610a2457610a23611ae8565b5b906000526020600020906005020160040160009054906101000a900460ff166001811115610a5557610a546111f8565b5b14610a95576040517f08c379a0000000000000000000000000000000000000000000000000000000008152600401610a8c9061208e565b60405180910390fd5b5b600080826001018054905003610aaf5760019050610b4c565b60005b8260010180549050811015610b4a573373ffffffffffffffffffffffffffffffffffffffff16836001018281548110610aee57610aed611ae8565b5b9060005260206000200160009054906101000a900473ffffffffffffffffffffffffffffffffffffffff1673ffffffffffffffffffffffffffffffffffffffff1603610b3d5760019150610b4a565b8080600101915050610ab2565b505b80610b8c576040517f08c379a0000000000000000000000000000000000000000000000000000000008152600401610b8390612120565b60405180910390fd5b60018260040160006101000a81548160ff02191690836001811115610bb457610bb36111f8565b5b0217905550338260020160006101000a81548173ffffffffffffffffffffffffffffffffffffffff021916908373ffffffffffffffffffffffffffffffffffffffff160217905550428260030181905550837f41184de05a8122342d16fa252d13312d456991928477b2394321cfa5f703099a8433604051610c37929190612140565b60405180910390a250505050565b610c4d611023565b6000808381526020019081526020016000206040518060c001604052908160008201548152602001600182018054610c8490611ab7565b80601f0160208091040260200160405190810160405280929190818152602001828054610cb090611ab7565b8015610cfd5780601f10610cd257610100808354040283529160200191610cfd565b820191906000526020600020905b815481529060010190602001808311610ce057829003601f168201915b50505050508152602001600282018054610d1690611ab7565b80601f0160208091040260200160405190810160405280929190818152602001828054610d4290611ab7565b8015610d8f5780601f10610d6457610100808354040283529160200191610d8f565b820191906000526020600020905b815481529060010190602001808311610d7257829003601f168201915b505050505081526020016003820160009054906101000a900473ffffffffffffffffffffffffffffffffffffffff1673ffffffffffffffffffffffffffffffffffffffff1673ffffffffffffffffffffffffffffffffffffffff168152602001600482015481526020016005820160009054906101000a900460ff1615151515815250509050919050565b60025481565b6000602052806000526040600020600091509050806000015490806001018054610e4990611ab7565b80601f0160208091040260200160405190810160405280929190818152602001828054610e7590611ab7565b8015610ec25780601f10610e9757610100808354040283529160200191610ec2565b820191906000526020600020905b815481529060010190602001808311610ea557829003601f168201915b505050505090806002018054610ed790611ab7565b80601f0160208091040260200160405190810160405280929190818152602001828054610f0390611ab7565b8015610f505780601f10610f2557610100808354040283529160200191610f50565b820191906000526020600020905b815481529060010190602001808311610f3357829003601f168201915b5050505050908060030160009054906101000a900473ffffffffffffffffffffffffffffffffffffffff16908060040154908060050160009054906101000a900460ff16905086565b828054828255906000526020600020908101928215611012579160200282015b828111156110115782518260006101000a81548173ffffffffffffffffffffffffffffffffffffffff021916908373ffffffffffffffffffffffffffffffffffffffff16021790555091602001919060010190610fb9565b5b50905061101f9190611071565b5090565b6040518060c00160405280600081526020016060815260200160608152602001600073ffffffffffffffffffffffffffffffffffffffff168152602001600081526020016000151581525090565b5b8082111561108a576000816000905550600101611072565b5090565b6000604051905090565b600080fd5b600080fd5b6000819050919050565b6110b5816110a2565b81146110c057600080fd5b50565b6000813590506110d2816110ac565b92915050565b600080604083850312156110ef576110ee611098565b5b60006110fd858286016110c3565b925050602061110e858286016110c3565b9150509250929050565b600081519050919050565b600082825260208201905092915050565b60005b83811015611152578082015181840152602081019050611137565b60008484015250505050565b6000601f19601f8301169050919050565b600061117a82611118565b6111848185611123565b9350611194818560208601611134565b61119d8161115e565b840191505092915050565b600073ffffffffffffffffffffffffffffffffffffffff82169050919050565b60006111d3826111a8565b9050919050565b6111e3816111c8565b82525050565b6111f2816110a2565b82525050565b7f4e487b7100000000000000000000000000000000000000000000000000000000600052602160045260246000fd5b60028110611238576112376111f8565b5b50565b600081905061124982611227565b919050565b60006112598261123b565b9050919050565b6112698161124e565b82525050565b60006080820190508181036000830152611289818761116f565b905061129860208301866111da565b6112a560408301856111e9565b6112b26060830184611260565b95945050505050565b600081519050919050565b600082825260208201905092915050565b6000819050602082019050919050565b6112f0816111c8565b82525050565b600061130283836112e7565b60208301905092915050565b6000602082019050919050565b6000611326826112bb565b61133081856112c6565b935061133b836112d7565b8060005b8381101561136c57815161135388826112f6565b975061135e8361130e565b92505060018101905061133f565b5085935050505092915050565b600060a0820190508181036000830152611393818861116f565b905081810360208301526113a7818761131b565b90506113b660408301866111da565b6113c360608301856111e9565b6113d06080830184611260565b9695505050505050565b600080fd5b600080fd5b7f4e487b7100000000000000000000000000000000000000000000000000000000600052604160045260246000fd5b61141c8261115e565b810181811067ffffffffffffffff8211171561143b5761143a6113e4565b5b80604052505050565b600061144e61108e565b905061145a8282611413565b919050565b600067ffffffffffffffff82111561147a576114796113e4565b5b6114838261115e565b9050602081019050919050565b82818337600083830152505050565b60006114b26114ad8461145f565b611444565b9050828152602081018484840111156114ce576114cd6113df565b5b6114d9848285611490565b509392505050565b600082601f8301126114f6576114f56113da565b5b813561150684826020860161149f565b91505092915050565b600067ffffffffffffffff82111561152a576115296113e4565b5b602082029050602081019050919050565b600080fd5b600061155361154e8461150f565b611444565b905080838252602082019050602084028301858111156115765761157561153b565b5b835b818110156115bd57803567ffffffffffffffff81111561159b5761159a6113da565b5b8086016115a889826114e1565b85526020850194505050602081019050611578565b5050509392505050565b600082601f8301126115dc576115db6113da565b5b81356115ec848260208601611540565b91505092915050565b600067ffffffffffffffff8211156116105761160f6113e4565b5b602082029050602081019050919050565b600067ffffffffffffffff82111561163c5761163b6113e4565b5b602082029050602081019050919050565b611656816111c8565b811461166157600080fd5b50565b6000813590506116738161164d565b92915050565b600061168c61168784611621565b611444565b905080838252602082019050602084028301858111156116af576116ae61153b565b5b835b818110156116d857806116c48882611664565b8452602084019350506020810190506116b1565b5050509392505050565b600082601f8301126116f7576116f66113da565b5b8135611707848260208601611679565b91505092915050565b600061172361171e846115f5565b611444565b905080838252602082019050602084028301858111156117465761174561153b565b5b835b8181101561178d57803567ffffffffffffffff81111561176b5761176a6113da565b5b80860161177889826116e2565b85526020850194505050602081019050611748565b5050509392505050565b600082601f8301126117ac576117ab6113da565b5b81356117bc848260208601611710565b91505092915050565b600080600080608085870312156117df576117de611098565b5b600085013567ffffffffffffffff8111156117fd576117fc61109d565b5b611809878288016114e1565b945050602085013567ffffffffffffffff81111561182a5761182961109d565b5b611836878288016114e1565b935050604085013567ffffffffffffffff8111156118575761185661109d565b5b611863878288016115c7565b925050606085013567ffffffffffffffff8111156118845761188361109d565b5b61189087828801611797565b91505092959194509250565b60006020820190506118b160008301846111e9565b92915050565b6000602082840312156118cd576118cc611098565b5b60006118db848285016110c3565b91505092915050565b6118ed816110a2565b82525050565b600082825260208201905092915050565b600061190f82611118565b61191981856118f3565b9350611929818560208601611134565b6119328161115e565b840191505092915050565b60008115159050919050565b6119528161193d565b82525050565b600060c08301600083015161197060008601826118e4565b50602083015184820360208601526119888282611904565b915050604083015184820360408601526119a28282611904565b91505060608301516119b760608601826112e7565b5060808301516119ca60808601826118e4565b5060a08301516119dd60a0860182611949565b508091505092915050565b60006020820190508181036000830152611a028184611958565b905092915050565b611a138161193d565b82525050565b600060c082019050611a2e60008301896111e9565b8181036020830152611a40818861116f565b90508181036040830152611a54818761116f565b9050611a6360608301866111da565b611a7060808301856111e9565b611a7d60a0830184611a0a565b979650505050505050565b7f4e487b7100000000000000000000000000000000000000000000000000000000600052602260045260246000fd5b60006002820490506001821680611acf57607f821691505b602082108103611ae257611ae1611a88565b5b50919050565b7f4e487b7100000000000000000000000000000000000000000000000000000000600052603260045260246000fd5b7f53746570732064617461206d69736d6174636800000000000000000000000000600082015250565b6000611b4d601383611123565b9150611b5882611b17565b602082019050919050565b60006020820190508181036000830152611b7c81611b40565b9050919050565b60008190508160005260206000209050919050565b60006020601f8301049050919050565b600082821b905092915050565b600060088302611be57fffffffffffffffffffffffffffffffffffffffffffffffffffffffffffffffff82611ba8565b611bef8683611ba8565b95508019841693508086168417925050509392505050565b6000819050919050565b6000611c2c611c27611c22846110a2565b611c07565b6110a2565b9050919050565b6000819050919050565b611c4683611c11565b611c5a611c5282611c33565b848454611bb5565b825550505050565b600090565b611c6f611c62565b611c7a818484611c3d565b505050565b5b81811015611c9e57611c93600082611c67565b600181019050611c80565b5050565b601f821115611ce357611cb481611b83565b611cbd84611b98565b81016020851015611ccc578190505b611ce0611cd885611b98565b830182611c7f565b50505b505050565b600082821c905092915050565b6000611d0660001984600802611ce8565b1980831691505092915050565b6000611d1f8383611cf5565b9150826002028217905092915050565b611d3882611118565b67ffffffffffffffff811115611d5157611d506113e4565b5b611d5b8254611ab7565b611d66828285611ca2565b600060209050601f831160018114611d995760008415611d87578287015190505b611d918582611d13565b865550611df9565b601f198416611da786611b83565b60005b82811015611dcf57848901518255600182019150602085019450602081019050611daa565b86831015611dec5784890151611de8601f891682611cf5565b8355505b6001600288020188555050505b505050505050565b6000604082019050611e1660008301856111e9565b8181036020830152611e28818461116f565b90509392505050565b60006020820190508181036000830152611e4b818461116f565b905092915050565b7f4e487b7100000000000000000000000000000000000000000000000000000000600052601160045260246000fd5b6000611e8d826110a2565b91507fffffffffffffffffffffffffffffffffffffffffffffffffffffffffffffffff8203611ebf57611ebe611e53565b5b600182019050919050565b7f4c6f7420646f6573206e6f742065786973740000000000000000000000000000600082015250565b6000611f00601283611123565b9150611f0b82611eca565b602082019050919050565b60006020820190508181036000830152611f2f81611ef3565b9050919050565b7f5374657020646f6573206e6f7420657869737400000000000000000000000000600082015250565b6000611f6c601383611123565b9150611f7782611f36565b602082019050919050565b60006020820190508181036000830152611f9b81611f5f565b9050919050565b7f5374657020616c726561647920636f6d706c6574656400000000000000000000600082015250565b6000611fd8601683611123565b9150611fe382611fa2565b602082019050919050565b6000602082019050818103600083015261200781611fcb565b9050919050565b6000612019826110a2565b9150612024836110a2565b925082820390508181111561203c5761203b611e53565b5b92915050565b7f50726576696f75732073746570206e6f7420636f6d706c657465640000000000600082015250565b6000612078601b83611123565b915061208382612042565b602082019050919050565b600060208201905081810360008301526120a78161206b565b9050919050565b7f4e6f7420617574686f72697a656420746f2076616c696461746520746869732060008201527f7374657000000000000000000000000000000000000000000000000000000000602082015250565b600061210a602483611123565b9150612115826120ae565b604082019050919050565b60006020820190508181036000830152612139816120fd565b9050919050565b600060408201905061215560008301856111e9565b61216260208301846111da565b939250505056fea264697066735822122067d85de2c0d9d6def2e0d3290f1ad58c4bc83c2fc5dd1e80a2c26537f2092cb864736f6c634300081c0033",
  "linkReferences": {},
  "deployedLinkReferences": {}
}