{
  "_format": "hh-sol-artifact-1",
  "contractName": "SupplyChain",
  "sourceName": "contracts/SupplyChain.sol",
  "abi": [
    {
      "anonymous": false,
      "inputs": [
        {
          "indexed": true,
          "internalType": "uint256",
          "name": "lotId",
          "type": "uint256"
        },
        {
          "indexed": false,
          "internalType": "string",
          "name": "title",
          "type": "string"
        },
        {
          "indexed": true,
          "internalType": "address",
          "name": "creator",
          "type": "address"
        }
      ],
      "name": "LotCreated",
      "type": "event"
    },
    {
      "anonymous": false,
      "inputs": [
        {
          "indexed": true,
          "internalType": "uint256",
          "name": "lotId",
          "type": "uint256"
        },
        {
          "indexed": false,
          "internalType": "uint256",
          "name": "stepIndex",
          "type": "uint256"
        },
        {
          "indexed": false,
          "internalType": "string",
          "name": "description",
          "type": "string"
        }
      ],
      "name": "StepAdded",
      "type": "event"
    },
    {
      "anonymous": false,
      "inputs": [
        {
          "indexed": true,
          "internalType": "uint256",
          "name": "lotId",
          "type": "uint256"
        },
        {
          "indexed": false,
          "internalType": "uint256",
          "name": "stepIndex",
          "type": "uint256"
        },
        {
          "indexed": false,
          "internalType": "address",
          "name": "validator",
          "type": "address"
        }
      ],
      "name": "StepValidated",
      "type": "event"
    },
    {
      "inputs": [
        {
          "internalType": "string",
          "name": "_title",
          "type": "string"
        },
        {
          "internalType": "string",
          "name": "_description",
          "type": "string"
        },
        {
          "internalType": "uint256",
          "name": "_quantity",
          "type": "uint256"
        },
        {
          "internalType": "string",
          "name": "_unit",
          "type": "string"
        },
        {
          "internalType": "string",
          "name": "_origin",
          "type": "string"
        },
        {
          "internalType": "string[]",
          "name": "_stepDescriptions",
          "type": "string[]"
        },
        {
          "internalType": "address[][]",
          "name": "_stepValidators",
          "type": "address[][]"
        }
      ],
      "name": "createLot",
      "outputs": [
        {
          "internalType": "uint256",
          "name": "",
          "type": "uint256"
        }
      ],
      "stateMutability": "nonpayable",
      "type": "function"
    },
    {
      "inputs": [
        {
          "internalType": "uint256",
          "name": "_lotId",
          "type": "uint256"
        }
      ],
      "name": "getLot",
      "outputs": [
        {
          "components": [
            {
              "internalType": "uint256",
              "name": "id",
              "type": "uint256"
            },
            {
              "internalType": "string",
              "name": "title",
              "type": "string"
            },
            {
              "internalType": "string",
              "name": "description",
              "type": "string"
            },
            {
              "internalType": "uint256",
              "name": "quantity",
              "type": "uint256"
            },
            {
              "internalType": "string",
              "name": "unit",
              "type": "string"
            },
            {
              "internalType": "string",
              "name": "origin",
              "type": "string"
            },
            {
              "internalType": "address",
              "name": "creator",
              "type": "address"
            },
            {
              "internalType": "uint256",
              "name": "createdAt",
              "type": "uint256"
            },
            {
              "internalType": "bool",
              "name": "exists",
              "type": "bool"
            }
          ],
          "internalType": "struct SupplyChain.Lot",
          "name": "",
          "type": "tuple"
        }
      ],
      "stateMutability": "view",
      "type": "function"
    },
    {
      "inputs": [
        {
          "internalType": "uint256",
          "name": "_lotId",
          "type": "uint256"
        }
      ],
      "name": "getLotStepsCount",
      "outputs": [
        {
          "internalType": "uint256",
          "name": "",
          "type": "uint256"
        }
      ],
      "stateMutability": "view",
      "type": "function"
    },
    {
      "inputs": [
        {
          "internalType": "uint256",
          "name": "_lotId",
          "type": "uint256"
        },
        {
          "internalType": "uint256",
          "name": "_stepIndex",
          "type": "uint256"
        }
      ],
      "name": "getStep",
      "outputs": [
        {
          "internalType": "string",
          "name": "description",
          "type": "string"
        },
        {
          "internalType": "address[]",
          "name": "validators",
          "type": "address[]"
        },
        {
          "internalType": "address",
          "name": "validatedBy",
          "type": "address"
        },
        {
          "internalType": "uint256",
          "name": "validatedAt",
          "type": "uint256"
        },
        {
          "internalType": "enum SupplyChain.StepStatus",
          "name": "status",
          "type": "uint8"
        }
      ],
      "stateMutability": "view",
      "type": "function"
    },
    {
      "inputs": [
        {
          "internalType": "uint256",
          "name": "",
          "type": "uint256"
        },
        {
          "internalType": "uint256",
          "name": "",
          "type": "uint256"
        }
      ],
      "name": "lotSteps",
      "outputs": [
        {
          "internalType": "string",
          "name": "description",
          "type": "string"
        },
        {
          "internalType": "address",
          "name": "validatedBy",
          "type": "address"
        },
        {
          "internalType": "uint256",
          "name": "validatedAt",
          "type": "uint256"
        },
        {
          "internalType": "enum SupplyChain.StepStatus",
          "name": "status",
          "type": "uint8"
        }
      ],
      "stateMutability": "view",
      "type": "function"
    },
    {
      "inputs": [
        {
          "internalType": "uint256",
          "name": "",
          "type": "uint256"
        }
      ],
      "name": "lots",
      "outputs": [
        {
          "internalType": "uint256",
          "name": "id",
          "type": "uint256"
        },
        {
          "internalType": "string",
          "name": "title",
          "type": "string"
        },
        {
          "internalType": "string",
          "name": "description",
          "type": "string"
        },
        {
          "internalType": "uint256",
          "name": "quantity",
          "type": "uint256"
        },
        {
          "internalType": "string",
          "name": "unit",
          "type": "string"
        },
        {
          "internalType": "string",
          "name": "origin",
          "type": "string"
        },
        {
          "internalType": "address",
          "name": "creator",
          "type": "address"
        },
        {
          "internalType": "uint256",
          "name": "createdAt",
          "type": "uint256"
        },
        {
          "internalType": "bool",
          "name": "exists",
          "type": "bool"
        }
      ],
      "stateMutability": "view",
      "type": "function"
    },
    {
      "inputs": [],
      "name": "nextLotId",
      "outputs": [
        {
          "internalType": "uint256",
          "name": "",
          "type": "uint256"
        }
      ],
      "stateMutability": "view",
      "type": "function"
    },
    {
      "inputs": [
        {
          "internalType": "uint256",
          "name": "_lotId",
          "type": "uint256"
        },
        {
          "internalType": "uint256",
          "name": "_stepIndex",
          "type": "uint256"
        }
      ],
      "name": "validateStep",
      "outputs": [],
      "stateMutability": "nonpayable",
      "type": "function"
    }
  ],
  "bytecode": "0x6080604052348015600f57600080fd5b506125fc8061001f6000396000f3fe608060405234801561001057600080fd5b50600436106100885760003560e01c8063ab995d121161005b578063ab995d1214610140578063d666f29e14610170578063eb25e9671461018e578063f1648e84146101be57610088565b806304efba871461008d5780634db04508146100c05780637f6de73a146100f457806387543aa714610124575b600080fd5b6100a760048036038101906100a291906113d2565b6101f6565b6040516100b79493929190611569565b60405180910390f35b6100da60048036038101906100d591906113d2565b6102f8565b6040516100eb959493929190611673565b60405180910390f35b61010e600480360381019061010991906116d4565b6104a3565b60405161011b9190611701565b60405180910390f35b61013e600480360381019061013991906113d2565b6104c3565b005b61015a600480360381019061015591906116d4565b61089a565b604051610167919061186a565b60405180910390f35b610178610b9e565b6040516101859190611701565b60405180910390f35b6101a860048036038101906101a39190611c77565b610ba4565b6040516101b59190611701565b60405180910390f35b6101d860048036038101906101d391906116d4565b610fe2565b6040516101ed99989796959493929190611dd0565b60405180910390f35b6001602052816000526040600020818154811061021257600080fd5b90600052602060002090600502016000915091505080600001805461023690611ea8565b80601f016020809104026020016040519081016040528092919081815260200182805461026290611ea8565b80156102af5780601f10610284576101008083540402835291602001916102af565b820191906000526020600020905b81548152906001019060200180831161029257829003601f168201915b5050505050908060020160009054906101000a900473ffffffffffffffffffffffffffffffffffffffff16908060030154908060040160009054906101000a900460ff16905084565b60608060008060008060016000898152602001908152602001600020878154811061032657610325611ed9565b5b9060005260206000209060050201905080600001816001018260020160009054906101000a900473ffffffffffffffffffffffffffffffffffffffff1683600301548460040160009054906101000a900460ff1684805461038690611ea8565b80601f01602080910402602001604051908101604052809291908181526020018280546103b290611ea8565b80156103ff5780601f106103d4576101008083540402835291602001916103ff565b820191906000526020600020905b8154815290600101906020018083116103e257829003601f168201915b505050505094508380548060200260200160405190810160405280929190818152602001828054801561048757602002820191906000526020600020905b8160009054906101000a900473ffffffffffffffffffffffffffffffffffffffff1673ffffffffffffffffffffffffffffffffffffffff168152602001906001019080831161043d575b5050505050935095509550955095509550509295509295909350565b600060016000838152602001908152602001600020805490509050919050565b60008083815260200190815260200160002060080160009054906101000a900460ff16610525576040517f08c379a000000000000000000000000000000000000000000000000000000000815260040161051c90611f54565b60405180910390fd5b6001600083815260200190815260200160002080549050811061057d576040517f08c379a000000000000000000000000000000000000000000000000000000000815260040161057490611fc0565b60405180910390fd5b60006001600084815260200190815260200160002082815481106105a4576105a3611ed9565b5b90600052602060002090600502019050600060018111156105c8576105c76114f2565b5b8160040160009054906101000a900460ff1660018111156105ec576105eb6114f2565b5b1461062c576040517f08c379a00000000000000000000000000000000000000000000000000000000081526004016106239061202c565b60405180910390fd5b60008211156106eb57600180811115610648576106476114f2565b5b60016000858152602001908152602001600020600184610668919061207b565b8154811061067957610678611ed9565b5b906000526020600020906005020160040160009054906101000a900460ff1660018111156106aa576106a96114f2565b5b146106ea576040517f08c379a00000000000000000000000000000000000000000000000000000000081526004016106e1906120fb565b60405180910390fd5b5b60008082600101805490500361070457600190506107a1565b60005b826001018054905081101561079f573373ffffffffffffffffffffffffffffffffffffffff1683600101828154811061074357610742611ed9565b5b9060005260206000200160009054906101000a900473ffffffffffffffffffffffffffffffffffffffff1673ffffffffffffffffffffffffffffffffffffffff1603610792576001915061079f565b8080600101915050610707565b505b806107e1576040517f08c379a00000000000000000000000000000000000000000000000000000000081526004016107d89061218d565b60405180910390fd5b60018260040160006101000a81548160ff02191690836001811115610809576108086114f2565b5b0217905550338260020160006101000a81548173ffffffffffffffffffffffffffffffffffffffff021916908373ffffffffffffffffffffffffffffffffffffffff160217905550428260030181905550837f41184de05a8122342d16fa252d13312d456991928477b2394321cfa5f703099a843360405161088c9291906121ad565b60405180910390a250505050565b6108a261127d565b60008083815260200190815260200160002060405180610120016040529081600082015481526020016001820180546108da90611ea8565b80601f016020809104026020016040519081016040528092919081815260200182805461090690611ea8565b80156109535780601f1061092857610100808354040283529160200191610953565b820191906000526020600020905b81548152906001019060200180831161093657829003601f168201915b5050505050815260200160028201805461096c90611ea8565b80601f016020809104026020016040519081016040528092919081815260200182805461099890611ea8565b80156109e55780601f106109ba576101008083540402835291602001916109e5565b820191906000526020600020905b8154815290600101906020018083116109c857829003601f168201915b5050505050815260200160038201548152602001600482018054610a0890611ea8565b80601f0160208091040260200160405190810160405280929190818152602001828054610a3490611ea8565b8015610a815780601f10610a5657610100808354040283529160200191610a81565b820191906000526020600020905b815481529060010190602001808311610a6457829003601f168201915b50505050508152602001600582018054610a9a90611ea8565b80601f0160208091040260200160405190810160405280929190818152602001828054610ac690611ea8565b8015610b135780601f10610ae857610100808354040283529160200191610b13565b820191906000526020600020905b815481529060010190602001808311610af657829003601f168201915b505050505081526020016006820160009054906101000a900473ffffffffffffffffffffffffffffffffffffffff1673ffffffffffffffffffffffffffffffffffffffff1673ffffffffffffffffffffffffffffffffffffffff168152602001600782015481526020016008820160009054906101000a900460ff1615151515815250509050919050565b60025481565b60008151835114610bea576040517f08c379a0000000000000000000000000000000000000000000000000000000008152600401610be190612222565b60405180910390fd5b60008611610c2d576040517f08c379a0000000000000000000000000000000000000000000000000000000008152600401610c249061228e565b60405180910390fd5b600060025490506040518061012001604052808281526020018a81526020018981526020018881526020018781526020018681526020013373ffffffffffffffffffffffffffffffffffffffff16815260200142815260200160011515815250600080838152602001908152602001600020600082015181600001556020820151816001019081610cbe919061245a565b506040820151816002019081610cd4919061245a565b50606082015181600301556080820151816004019081610cf4919061245a565b5060a0820151816005019081610d0a919061245a565b5060c08201518160060160006101000a81548173ffffffffffffffffffffffffffffffffffffffff021916908373ffffffffffffffffffffffffffffffffffffffff16021790555060e082015181600701556101008201518160080160006101000a81548160ff02191690831515021790555090505060005b8451811015610f6b5760006040518060a00160405280878481518110610dac57610dab611ed9565b5b60200260200101518152602001868481518110610dcc57610dcb611ed9565b5b60200260200101518152602001600073ffffffffffffffffffffffffffffffffffffffff1681526020016000815260200160006001811115610e1157610e106114f2565b5b8152509050600160008481526020019081526020016000208190806001815401808255809150506001900390600052602060002090600502016000909190919091506000820151816000019081610e68919061245a565b506020820151816001019080519060200190610e859291906112e1565b5060408201518160020160006101000a81548173ffffffffffffffffffffffffffffffffffffffff021916908373ffffffffffffffffffffffffffffffffffffffff1602179055506060820151816003015560808201518160040160006101000a81548160ff02191690836001811115610f0257610f016114f2565b5b02179055505050827f99cc24a042b68d2ab1bec337a6c99bf8c9eeb2113fe5b53eb15be3fbda96f87183888581518110610f3f57610f3e611ed9565b5b6020026020010151604051610f5592919061252c565b60405180910390a2508080600101915050610d83565b503373ffffffffffffffffffffffffffffffffffffffff16817f7b8b6910cc0fe6c7733361ed6ce8e93a248625fa33ec88447ba7ba7f3089b8278b604051610fb3919061255c565b60405180910390a360026000815480929190610fce9061257e565b919050555080915050979650505050505050565b600060205280600052604060002060009150905080600001549080600101805461100b90611ea8565b80601f016020809104026020016040519081016040528092919081815260200182805461103790611ea8565b80156110845780601f1061105957610100808354040283529160200191611084565b820191906000526020600020905b81548152906001019060200180831161106757829003601f168201915b50505050509080600201805461109990611ea8565b80601f01602080910402602001604051908101604052809291908181526020018280546110c590611ea8565b80156111125780601f106110e757610100808354040283529160200191611112565b820191906000526020600020905b8154815290600101906020018083116110f557829003601f168201915b50505050509080600301549080600401805461112d90611ea8565b80601f016020809104026020016040519081016040528092919081815260200182805461115990611ea8565b80156111a65780601f1061117b576101008083540402835291602001916111a6565b820191906000526020600020905b81548152906001019060200180831161118957829003601f168201915b5050505050908060050180546111bb90611ea8565b80601f01602080910402602001604051908101604052809291908181526020018280546111e790611ea8565b80156112345780601f1061120957610100808354040283529160200191611234565b820191906000526020600020905b81548152906001019060200180831161121757829003601f168201915b5050505050908060060160009054906101000a900473ffffffffffffffffffffffffffffffffffffffff16908060070154908060080160009054906101000a900460ff16905089565b604051806101200160405280600081526020016060815260200160608152602001600081526020016060815260200160608152602001600073ffffffffffffffffffffffffffffffffffffffff168152602001600081526020016000151581525090565b82805482825590600052602060002090810192821561135a579160200282015b828111156113595782518260006101000a81548173ffffffffffffffffffffffffffffffffffffffff021916908373ffffffffffffffffffffffffffffffffffffffff16021790555091602001919060010190611301565b5b509050611367919061136b565b5090565b5b8082111561138457600081600090555060010161136c565b5090565b6000604051905090565b600080fd5b600080fd5b6000819050919050565b6113af8161139c565b81146113ba57600080fd5b50565b6000813590506113cc816113a6565b92915050565b600080604083850312156113e9576113e8611392565b5b60006113f7858286016113bd565b9250506020611408858286016113bd565b9150509250929050565b600081519050919050565b600082825260208201905092915050565b60005b8381101561144c578082015181840152602081019050611431565b60008484015250505050565b6000601f19601f8301169050919050565b600061147482611412565b61147e818561141d565b935061148e81856020860161142e565b61149781611458565b840191505092915050565b600073ffffffffffffffffffffffffffffffffffffffff82169050919050565b60006114cd826114a2565b9050919050565b6114dd816114c2565b82525050565b6114ec8161139c565b82525050565b7f4e487b7100000000000000000000000000000000000000000000000000000000600052602160045260246000fd5b60028110611532576115316114f2565b5b50565b600081905061154382611521565b919050565b600061155382611535565b9050919050565b61156381611548565b82525050565b600060808201905081810360008301526115838187611469565b905061159260208301866114d4565b61159f60408301856114e3565b6115ac606083018461155a565b95945050505050565b600081519050919050565b600082825260208201905092915050565b6000819050602082019050919050565b6115ea816114c2565b82525050565b60006115fc83836115e1565b60208301905092915050565b6000602082019050919050565b6000611620826115b5565b61162a81856115c0565b9350611635836115d1565b8060005b8381101561166657815161164d88826115f0565b975061165883611608565b925050600181019050611639565b5085935050505092915050565b600060a082019050818103600083015261168d8188611469565b905081810360208301526116a18187611615565b90506116b060408301866114d4565b6116bd60608301856114e3565b6116ca608083018461155a565b9695505050505050565b6000602082840312156116ea576116e9611392565b5b60006116f8848285016113bd565b91505092915050565b600060208201905061171660008301846114e3565b92915050565b6117258161139c565b82525050565b600082825260208201905092915050565b600061174782611412565b611751818561172b565b935061176181856020860161142e565b61176a81611458565b840191505092915050565b60008115159050919050565b61178a81611775565b82525050565b6000610120830160008301516117a9600086018261171c565b50602083015184820360208601526117c1828261173c565b915050604083015184820360408601526117db828261173c565b91505060608301516117f0606086018261171c565b5060808301518482036080860152611808828261173c565b91505060a083015184820360a0860152611822828261173c565b91505060c083015161183760c08601826115e1565b5060e083015161184a60e086018261171c565b5061010083015161185f610100860182611781565b508091505092915050565b600060208201905081810360008301526118848184611790565b905092915050565b600080fd5b600080fd5b7f4e487b7100000000000000000000000000000000000000000000000000000000600052604160045260246000fd5b6118ce82611458565b810181811067ffffffffffffffff821117156118ed576118ec611896565b5b80604052505050565b6000611900611388565b905061190c82826118c5565b919050565b600067ffffffffffffffff82111561192c5761192b611896565b5b61193582611458565b9050602081019050919050565b82818337600083830152505050565b600061196461195f84611911565b6118f6565b9050828152602081018484840111156119805761197f611891565b5b61198b848285611942565b509392505050565b600082601f8301126119a8576119a761188c565b5b81356119b8848260208601611951565b91505092915050565b600067ffffffffffffffff8211156119dc576119db611896565b5b602082029050602081019050919050565b600080fd5b6000611a05611a00846119c1565b6118f6565b90508083825260208201905060208402830185811115611a2857611a276119ed565b5b835b81811015611a6f57803567ffffffffffffffff811115611a4d57611a4c61188c565b5b808601611a5a8982611993565b85526020850194505050602081019050611a2a565b5050509392505050565b600082601f830112611a8e57611a8d61188c565b5b8135611a9e8482602086016119f2565b91505092915050565b600067ffffffffffffffff821115611ac257611ac1611896565b5b602082029050602081019050919050565b600067ffffffffffffffff821115611aee57611aed611896565b5b602082029050602081019050919050565b611b08816114c2565b8114611b1357600080fd5b50565b600081359050611b2581611aff565b92915050565b6000611b3e611b3984611ad3565b6118f6565b90508083825260208201905060208402830185811115611b6157611b606119ed565b5b835b81811015611b8a5780611b768882611b16565b845260208401935050602081019050611b63565b5050509392505050565b600082601f830112611ba957611ba861188c565b5b8135611bb9848260208601611b2b565b91505092915050565b6000611bd5611bd084611aa7565b6118f6565b90508083825260208201905060208402830185811115611bf857611bf76119ed565b5b835b81811015611c3f57803567ffffffffffffffff811115611c1d57611c1c61188c565b5b808601611c2a8982611b94565b85526020850194505050602081019050611bfa565b5050509392505050565b600082601f830112611c5e57611c5d61188c565b5b8135611c6e848260208601611bc2565b91505092915050565b600080600080600080600060e0888a031215611c9657611c95611392565b5b600088013567ffffffffffffffff811115611cb457611cb3611397565b5b611cc08a828b01611993565b975050602088013567ffffffffffffffff811115611ce157611ce0611397565b5b611ced8a828b01611993565b9650506040611cfe8a828b016113bd565b955050606088013567ffffffffffffffff811115611d1f57611d1e611397565b5b611d2b8a828b01611993565b945050608088013567ffffffffffffffff811115611d4c57611d4b611397565b5b611d588a828b01611993565b93505060a088013567ffffffffffffffff811115611d7957611d78611397565b5b611d858a828b01611a79565b92505060c088013567ffffffffffffffff811115611da657611da5611397565b5b611db28a828b01611c49565b91505092959891949750929550565b611dca81611775565b82525050565b600061012082019050611de6600083018c6114e3565b8181036020830152611df8818b611469565b90508181036040830152611e0c818a611469565b9050611e1b60608301896114e3565b8181036080830152611e2d8188611469565b905081810360a0830152611e418187611469565b9050611e5060c08301866114d4565b611e5d60e08301856114e3565b611e6b610100830184611dc1565b9a9950505050505050505050565b7f4e487b7100000000000000000000000000000000000000000000000000000000600052602260045260246000fd5b60006002820490506001821680611ec057607f821691505b602082108103611ed357611ed2611e79565b5b50919050565b7f4e487b7100000000000000000000000000000000000000000000000000000000600052603260045260246000fd5b7f4c6f7420646f6573206e6f742065786973740000000000000000000000000000600082015250565b6000611f3e60128361141d565b9150611f4982611f08565b602082019050919050565b60006020820190508181036000830152611f6d81611f31565b9050919050565b7f5374657020646f6573206e6f7420657869737400000000000000000000000000600082015250565b6000611faa60138361141d565b9150611fb582611f74565b602082019050919050565b60006020820190508181036000830152611fd981611f9d565b9050919050565b7f5374657020616c726561647920636f6d706c6574656400000000000000000000600082015250565b600061201660168361141d565b915061202182611fe0565b602082019050919050565b6000602082019050818103600083015261204581612009565b9050919050565b7f4e487b7100000000000000000000000000000000000000000000000000000000600052601160045260246000fd5b60006120868261139c565b91506120918361139c565b92508282039050818111156120a9576120a861204c565b5b92915050565b7f50726576696f75732073746570206e6f7420636f6d706c657465640000000000600082015250565b60006120e5601b8361141d565b91506120f0826120af565b602082019050919050565b60006020820190508181036000830152612114816120d8565b9050919050565b7f4e6f7420617574686f72697a656420746f2076616c696461746520746869732060008201527f7374657000000000000000000000000000000000000000000000000000000000602082015250565b600061217760248361141d565b91506121828261211b565b604082019050919050565b600060208201905081810360008301526121a68161216a565b9050919050565b60006040820190506121c260008301856114e3565b6121cf60208301846114d4565b9392505050565b7f53746570732064617461206d69736d6174636800000000000000000000000000600082015250565b600061220c60138361141d565b9150612217826121d6565b602082019050919050565b6000602082019050818103600083015261223b816121ff565b9050919050565b7f5175616e74697479206d7573742062652067726561746572207468616e203000600082015250565b6000612278601f8361141d565b915061228382612242565b602082019050919050565b600060208201905081810360008301526122a78161226b565b9050919050565b60008190508160005260206000209050919050565b60006020601f8301049050919050565b600082821b905092915050565b6000600883026123107fffffffffffffffffffffffffffffffffffffffffffffffffffffffffffffffff826122d3565b61231a86836122d3565b95508019841693508086168417925050509392505050565b6000819050919050565b600061235761235261234d8461139c565b612332565b61139c565b9050919050565b6000819050919050565b6123718361233c565b61238561237d8261235e565b8484546122e0565b825550505050565b600090565b61239a61238d565b6123a5818484612368565b505050565b5b818110156123c9576123be600082612392565b6001810190506123ab565b5050565b601f82111561240e576123df816122ae565b6123e8846122c3565b810160208510156123f7578190505b61240b612403856122c3565b8301826123aa565b50505b505050565b600082821c905092915050565b600061243160001984600802612413565b1980831691505092915050565b600061244a8383612420565b9150826002028217905092915050565b61246382611412565b67ffffffffffffffff81111561247c5761247b611896565b5b6124868254611ea8565b6124918282856123cd565b600060209050601f8311600181146124c457600084156124b2578287015190505b6124bc858261243e565b865550612524565b601f1984166124d2866122ae565b60005b828110156124fa578489015182556001820191506020850194506020810190506124d5565b868310156125175784890151612513601f891682612420565b8355505b6001600288020188555050505b505050505050565b600060408201905061254160008301856114e3565b81810360208301526125538184611469565b90509392505050565b600060208201905081810360008301526125768184611469565b905092915050565b60006125898261139c565b91507fffffffffffffffffffffffffffffffffffffffffffffffffffffffffffffffff82036125bb576125ba61204c565b5b60018201905091905056fea2646970667358221220aa14b48478322242aaddcf979d370aa8447731a70572e04c3ec0e3158132877764736f6c634300081c0033",
  "linkReferences": {},
  "deployedLinkReferences": {}
}