{
  "_format": "hh-sol-artifact-1",
  "contractName": "SupplyChain",
  "sourceName": "contracts/SupplyChain.sol",
  "abi": [
    {
      "anonymous": false,
      "inputs": [
        {
          "indexed": true,
          "internalType": "uint256",
          "name": "lotId",
          "type": "uint256"
        },
        {
          "indexed": false,
          "internalType": "string",
          "name": "title",
          "type": "string"
        },
        {
          "indexed": true,
          "internalType": "address",
          "name": "creator",
          "type": "address"
        },
        {
          "indexed": false,
          "internalType": "uint256",
          "name": "price",
          "type": "uint256"
        }
      ],
      "name": "LotCreated",
      "type": "event"
    },
    {
      "anonymous": false,
      "inputs": [
        {
          "indexed": true,
          "internalType": "uint256",
          "name": "lotId",
          "type": "uint256"
        },
        {
          "indexed": false,
          "internalType": "uint256",
          "name": "stepIndex",
          "type": "uint256"
        },
        {
          "indexed": false,
          "internalType": "string",
          "name": "description",
          "type": "string"
        }
      ],
      "name": "StepAdded",
      "type": "event"
    },
    {
      "anonymous": false,
      "inputs": [
        {
          "indexed": true,
          "internalType": "uint256",
          "name": "lotId",
          "type": "uint256"
        },
        {
          "indexed": false,
          "internalType": "uint256",
          "name": "stepIndex",
          "type": "uint256"
        },
        {
          "indexed": false,
          "internalType": "address",
          "name": "validator",
          "type": "address"
        }
      ],
      "name": "StepValidated",
      "type": "event"
    },
    {
      "inputs": [
        {
          "internalType": "string",
          "name": "_title",
          "type": "string"
        },
        {
          "internalType": "string",
          "name": "_description",
          "type": "string"
        },
        {
          "internalType": "uint256",
          "name": "_quantity",
          "type": "uint256"
        },
        {
          "internalType": "string",
          "name": "_unit",
          "type": "string"
        },
        {
          "internalType": "string",
          "name": "_origin",
          "type": "string"
        },
        {
          "internalType": "uint256",
          "name": "_price",
          "type": "uint256"
        },
        {
          "internalType": "string[]",
          "name": "_stepDescriptions",
          "type": "string[]"
        },
        {
          "internalType": "address[][]",
          "name": "_stepValidators",
          "type": "address[][]"
        }
      ],
      "name": "createLot",
      "outputs": [
        {
          "internalType": "uint256",
          "name": "",
          "type": "uint256"
        }
      ],
      "stateMutability": "nonpayable",
      "type": "function"
    },
    {
      "inputs": [
        {
          "internalType": "uint256",
          "name": "_lotId",
          "type": "uint256"
        }
      ],
      "name": "getLot",
      "outputs": [
        {
          "components": [
            {
              "internalType": "uint256",
              "name": "id",
              "type": "uint256"
            },
            {
              "internalType": "address",
              "name": "creator",
              "type": "address"
            },
            {
              "internalType": "uint64",
              "name": "createdAt",
              "type": "uint64"
            },
            {
              "internalType": "uint128",
              "name": "quantity",
              "type": "uint128"
            },
            {
              "internalType": "uint128",
              "name": "price",
              "type": "uint128"
            },
            {
              "internalType": "bool",
              "name": "exists",
              "type": "bool"
            },
            {
              "internalType": "string",
              "name": "title",
              "type": "string"
            },
            {
              "internalType": "string",
              "name": "description",
              "type": "string"
            },
            {
              "internalType": "string",
              "name": "unit",
              "type": "string"
            },
            {
              "internalType": "string",
              "name": "origin",
              "type": "string"
            }
          ],
          "internalType": "struct SupplyChain.Lot",
          "name": "",
          "type": "tuple"
        }
      ],
      "stateMutability": "view",
      "type": "function"
    },
    {
      "inputs": [
        {
          "internalType": "uint256",
          "name": "_lotId",
          "type": "uint256"
        }
      ],
      "name": "getLotPriceAndCreator",
      "outputs": [
        {
          "internalType": "uint128",
          "name": "price",
          "type": "uint128"
        },
        {
          "internalType": "address",
          "name": "creator",
          "type": "address"
        },
        {
          "internalType": "bool",
          "name": "exists",
          "type": "bool"
        }
      ],
      "stateMutability": "view",
      "type": "function"
    },
    {
      "inputs": [
        {
          "internalType": "uint256",
          "name": "_lotId",
          "type": "uint256"
        }
      ],
      "name": "getLotStepsCount",
      "outputs": [
        {
          "internalType": "uint256",
          "name": "",
          "type": "uint256"
        }
      ],
      "stateMutability": "view",
      "type": "function"
    },
    {
      "inputs": [
        {
          "internalType": "uint256",
          "name": "_lotId",
          "type": "uint256"
        },
        {
          "internalType": "uint256",
          "name": "_stepIndex",
          "type": "uint256"
        }
      ],
      "name": "getStep",
      "outputs": [
        {
          "internalType": "string",
          "name": "description",
          "type": "string"
        },
        {
          "internalType": "address[]",
          "name": "validators",
          "type": "address[]"
        },
        {
          "internalType": "address",
          "name": "validatedBy",
          "type": "address"
        },
        {
          "internalType": "uint256",
          "name": "validatedAt",
          "type": "uint256"
        },
        {
          "internalType": "enum SupplyChain.StepStatus",
          "name": "status",
          "type": "uint8"
        }
      ],
      "stateMutability": "view",
      "type": "function"
    },
    {
      "inputs": [
        {
          "internalType": "uint256",
          "name": "",
          "type": "uint256"
        },
        {
          "internalType": "uint256",
          "name": "",
          "type": "uint256"
        }
      ],
      "name": "lotSteps",
      "outputs": [
        {
          "internalType": "string",
          "name": "description",
          "type": "string"
        },
        {
          "internalType": "address",
          "name": "validatedBy",
          "type": "address"
        },
        {
          "internalType": "uint256",
          "name": "validatedAt",
          "type": "uint256"
        },
        {
          "internalType": "enum SupplyChain.StepStatus",
          "name": "status",
          "type": "uint8"
        }
      ],
      "stateMutability": "view",
      "type": "function"
    },
    {
      "inputs": [
        {
          "internalType": "uint256",
          "name": "",
          "type": "uint256"
        }
      ],
      "name": "lots",
      "outputs": [
        {
          "internalType": "uint256",
          "name": "id",
          "type": "uint256"
        },
        {
          "internalType": "address",
          "name": "creator",
          "type": "address"
        },
        {
          "internalType": "uint64",
          "name": "createdAt",
          "type": "uint64"
        },
        {
          "internalType": "uint128",
          "name": "quantity",
          "type": "uint128"
        },
        {
          "internalType": "uint128",
          "name": "price",
          "type": "uint128"
        },
        {
          "internalType": "bool",
          "name": "exists",
          "type": "bool"
        },
        {
          "internalType": "string",
          "name": "title",
          "type": "string"
        },
        {
          "internalType": "string",
          "name": "description",
          "type": "string"
        },
        {
          "internalType": "string",
          "name": "unit",
          "type": "string"
        },
        {
          "internalType": "string",
          "name": "origin",
          "type": "string"
        }
      ],
      "stateMutability": "view",
      "type": "function"
    },
    {
      "inputs": [],
      "name": "nextLotId",
      "outputs": [
        {
          "internalType": "uint256",
          "name": "",
          "type": "uint256"
        }
      ],
      "stateMutability": "view",
      "type": "function"
    },
    {
      "inputs": [
        {
          "internalType": "uint256",
          "name": "_lotId",
          "type": "uint256"
        },
        {
          "internalType": "uint256",
          "name": "_stepIndex",
          "type": "uint256"
        }
      ],
      "name": "validateStep",
      "outputs": [],
      "stateMutability": "nonpayable",
      "type": "function"
    }
  ],
  "bytecode": "0x6080604052348015600f57600080fd5b50612ae18061001f6000396000f3fe608060405234801561001057600080fd5b50600436106100935760003560e01c80637f6de73a116100665780637f6de73a1461016157806387543aa714610191578063ab995d12146101ad578063d666f29e146101dd578063f1648e84146101fb57610093565b806303118ad41461009857806304efba87146100c85780631192bfae146100fb5780634db045081461012d575b600080fd5b6100b260048036038101906100ad9190611b6c565b610234565b6040516100bf9190611cd9565b60405180910390f35b6100e260048036038101906100dd9190611cf4565b6107e7565b6040516100f29493929190611e39565b60405180910390f35b61011560048036038101906101109190611e85565b6108e9565b60405161012493929190611ef8565b60405180910390f35b61014760048036038101906101429190611cf4565b610969565b604051610158959493929190611fed565b60405180910390f35b61017b60048036038101906101769190611e85565b610b14565b6040516101889190611cd9565b60405180910390f35b6101ab60048036038101906101a69190611cf4565b610b34565b005b6101c760048036038101906101c29190611e85565b610f0b565b6040516101d491906121d7565b60405180910390f35b6101e56112c1565b6040516101f29190611cd9565b60405180910390f35b61021560048036038101906102109190611e85565b6112c7565b60405161022b9a99989796959493929190612208565b60405180910390f35b6000815183511461027a576040517f08c379a00000000000000000000000000000000000000000000000000000000081526004016102719061230c565b60405180910390fd5b600087116102bd576040517f08c379a00000000000000000000000000000000000000000000000000000000081526004016102b490612378565b60405180910390fd5b6fffffffffffffffffffffffffffffffff8016871115610312576040517f08c379a0000000000000000000000000000000000000000000000000000000008152600401610309906123e4565b60405180910390fd5b6fffffffffffffffffffffffffffffffff8016841115610367576040517f08c379a000000000000000000000000000000000000000000000000000000000815260040161035e90612450565b60405180910390fd5b600060025490506040518061014001604052808281526020013373ffffffffffffffffffffffffffffffffffffffff1681526020014267ffffffffffffffff168152602001896fffffffffffffffffffffffffffffffff168152602001866fffffffffffffffffffffffffffffffff1681526020016001151581526020018b81526020018a8152602001888152602001878152506000808381526020019081526020016000206000820151816000015560208201518160010160006101000a81548173ffffffffffffffffffffffffffffffffffffffff021916908373ffffffffffffffffffffffffffffffffffffffff16021790555060408201518160010160146101000a81548167ffffffffffffffff021916908367ffffffffffffffff16021790555060608201518160020160006101000a8154816fffffffffffffffffffffffffffffffff02191690836fffffffffffffffffffffffffffffffff16021790555060808201518160020160106101000a8154816fffffffffffffffffffffffffffffffff02191690836fffffffffffffffffffffffffffffffff16021790555060a08201518160030160006101000a81548160ff02191690831515021790555060c0820151816004019081610540919061267c565b5060e0820151816005019081610556919061267c565b5061010082015181600601908161056d919061267c565b50610120820151816007019081610584919061267c565b5090505060005b84518110156107735760006040518060a001604052808784815181106105b4576105b361274e565b5b602002602001015181526020018684815181106105d4576105d361274e565b5b60200260200101518152602001600073ffffffffffffffffffffffffffffffffffffffff168152602001600081526020016000600181111561061957610618611dc2565b5b8152509050600160008481526020019081526020016000208190806001815401808255809150506001900390600052602060002090600502016000909190919091506000820151816000019081610670919061267c565b50602082015181600101908051906020019061068d9291906115b4565b5060408201518160020160006101000a81548173ffffffffffffffffffffffffffffffffffffffff021916908373ffffffffffffffffffffffffffffffffffffffff1602179055506060820151816003015560808201518160040160006101000a81548160ff0219169083600181111561070a57610709611dc2565b5b02179055505050827f99cc24a042b68d2ab1bec337a6c99bf8c9eeb2113fe5b53eb15be3fbda96f871838885815181106107475761074661274e565b5b602002602001015160405161075d92919061277d565b60405180910390a250808060010191505061058b565b503373ffffffffffffffffffffffffffffffffffffffff16817fea423ead3fee1fc15d9c71d0e66b95ae9f0e52e576779999977264bcf8f26e328c886040516107bd9291906127ad565b60405180910390a36002600081548092919060010191905055508091505098975050505050505050565b6001602052816000526040600020818154811061080357600080fd5b9060005260206000209060050201600091509150508060000180546108279061249f565b80601f01602080910402602001604051908101604052809291908181526020018280546108539061249f565b80156108a05780601f10610875576101008083540402835291602001916108a0565b820191906000526020600020905b81548152906001019060200180831161088357829003601f168201915b5050505050908060020160009054906101000a900473ffffffffffffffffffffffffffffffffffffffff16908060030154908060040160009054906101000a900460ff16905084565b60008060008060008086815260200190815260200160002090508060020160109054906101000a90046fffffffffffffffffffffffffffffffff168160010160009054906101000a900473ffffffffffffffffffffffffffffffffffffffff168260030160009054906101000a900460ff16935093509350509193909250565b6060806000806000806001600089815260200190815260200160002087815481106109975761099661274e565b5b9060005260206000209060050201905080600001816001018260020160009054906101000a900473ffffffffffffffffffffffffffffffffffffffff1683600301548460040160009054906101000a900460ff168480546109f79061249f565b80601f0160208091040260200160405190810160405280929190818152602001828054610a239061249f565b8015610a705780601f10610a4557610100808354040283529160200191610a70565b820191906000526020600020905b815481529060010190602001808311610a5357829003601f168201915b5050505050945083805480602002602001604051908101604052809291908181526020018280548015610af857602002820191906000526020600020905b8160009054906101000a900473ffffffffffffffffffffffffffffffffffffffff1673ffffffffffffffffffffffffffffffffffffffff1681526020019060010190808311610aae575b5050505050935095509550955095509550509295509295909350565b600060016000838152602001908152602001600020805490509050919050565b60008083815260200190815260200160002060030160009054906101000a900460ff16610b96576040517f08c379a0000000000000000000000000000000000000000000000000000000008152600401610b8d90612829565b60405180910390fd5b60016000838152602001908152602001600020805490508110610bee576040517f08c379a0000000000000000000000000000000000000000000000000000000008152600401610be590612895565b60405180910390fd5b6000600160008481526020019081526020016000208281548110610c1557610c1461274e565b5b9060005260206000209060050201905060006001811115610c3957610c38611dc2565b5b8160040160009054906101000a900460ff166001811115610c5d57610c5c611dc2565b5b14610c9d576040517f08c379a0000000000000000000000000000000000000000000000000000000008152600401610c9490612901565b60405180910390fd5b6000821115610d5c57600180811115610cb957610cb8611dc2565b5b60016000858152602001908152602001600020600184610cd99190612950565b81548110610cea57610ce961274e565b5b906000526020600020906005020160040160009054906101000a900460ff166001811115610d1b57610d1a611dc2565b5b14610d5b576040517f08c379a0000000000000000000000000000000000000000000000000000000008152600401610d52906129d0565b60405180910390fd5b5b600080826001018054905003610d755760019050610e12565b60005b8260010180549050811015610e10573373ffffffffffffffffffffffffffffffffffffffff16836001018281548110610db457610db361274e565b5b9060005260206000200160009054906101000a900473ffffffffffffffffffffffffffffffffffffffff1673ffffffffffffffffffffffffffffffffffffffff1603610e035760019150610e10565b8080600101915050610d78565b505b80610e52576040517f08c379a0000000000000000000000000000000000000000000000000000000008152600401610e4990612a62565b60405180910390fd5b60018260040160006101000a81548160ff02191690836001811115610e7a57610e79611dc2565b5b0217905550338260020160006101000a81548173ffffffffffffffffffffffffffffffffffffffff021916908373ffffffffffffffffffffffffffffffffffffffff160217905550428260030181905550837f41184de05a8122342d16fa252d13312d456991928477b2394321cfa5f703099a8433604051610efd929190612a82565b60405180910390a250505050565b610f1361163e565b60008083815260200190815260200160002060405180610140016040529081600082015481526020016001820160009054906101000a900473ffffffffffffffffffffffffffffffffffffffff1673ffffffffffffffffffffffffffffffffffffffff1673ffffffffffffffffffffffffffffffffffffffff1681526020016001820160149054906101000a900467ffffffffffffffff1667ffffffffffffffff1667ffffffffffffffff1681526020016002820160009054906101000a90046fffffffffffffffffffffffffffffffff166fffffffffffffffffffffffffffffffff166fffffffffffffffffffffffffffffffff1681526020016002820160109054906101000a90046fffffffffffffffffffffffffffffffff166fffffffffffffffffffffffffffffffff166fffffffffffffffffffffffffffffffff1681526020016003820160009054906101000a900460ff161515151581526020016004820180546110829061249f565b80601f01602080910402602001604051908101604052809291908181526020018280546110ae9061249f565b80156110fb5780601f106110d0576101008083540402835291602001916110fb565b820191906000526020600020905b8154815290600101906020018083116110de57829003601f168201915b505050505081526020016005820180546111149061249f565b80601f01602080910402602001604051908101604052809291908181526020018280546111409061249f565b801561118d5780601f106111625761010080835404028352916020019161118d565b820191906000526020600020905b81548152906001019060200180831161117057829003601f168201915b505050505081526020016006820180546111a69061249f565b80601f01602080910402602001604051908101604052809291908181526020018280546111d29061249f565b801561121f5780601f106111f45761010080835404028352916020019161121f565b820191906000526020600020905b81548152906001019060200180831161120257829003601f168201915b505050505081526020016007820180546112389061249f565b80601f01602080910402602001604051908101604052809291908181526020018280546112649061249f565b80156112b15780601f10611286576101008083540402835291602001916112b1565b820191906000526020600020905b81548152906001019060200180831161129457829003601f168201915b5050505050815250509050919050565b60025481565b60006020528060005260406000206000915090508060000154908060010160009054906101000a900473ffffffffffffffffffffffffffffffffffffffff16908060010160149054906101000a900467ffffffffffffffff16908060020160009054906101000a90046fffffffffffffffffffffffffffffffff16908060020160109054906101000a90046fffffffffffffffffffffffffffffffff16908060030160009054906101000a900460ff16908060040180546113879061249f565b80601f01602080910402602001604051908101604052809291908181526020018280546113b39061249f565b80156114005780601f106113d557610100808354040283529160200191611400565b820191906000526020600020905b8154815290600101906020018083116113e357829003601f168201915b5050505050908060050180546114159061249f565b80601f01602080910402602001604051908101604052809291908181526020018280546114419061249f565b801561148e5780601f106114635761010080835404028352916020019161148e565b820191906000526020600020905b81548152906001019060200180831161147157829003601f168201915b5050505050908060060180546114a39061249f565b80601f01602080910402602001604051908101604052809291908181526020018280546114cf9061249f565b801561151c5780601f106114f15761010080835404028352916020019161151c565b820191906000526020600020905b8154815290600101906020018083116114ff57829003601f168201915b5050505050908060070180546115319061249f565b80601f016020809104026020016040519081016040528092919081815260200182805461155d9061249f565b80156115aa5780601f1061157f576101008083540402835291602001916115aa565b820191906000526020600020905b81548152906001019060200180831161158d57829003601f168201915b505050505090508a565b82805482825590600052602060002090810192821561162d579160200282015b8281111561162c5782518260006101000a81548173ffffffffffffffffffffffffffffffffffffffff021916908373ffffffffffffffffffffffffffffffffffffffff160217905550916020019190600101906115d4565b5b50905061163a91906116d7565b5090565b60405180610140016040528060008152602001600073ffffffffffffffffffffffffffffffffffffffff168152602001600067ffffffffffffffff16815260200160006fffffffffffffffffffffffffffffffff16815260200160006fffffffffffffffffffffffffffffffff168152602001600015158152602001606081526020016060815260200160608152602001606081525090565b5b808211156116f05760008160009055506001016116d8565b5090565b6000604051905090565b600080fd5b600080fd5b600080fd5b600080fd5b6000601f19601f8301169050919050565b7f4e487b7100000000000000000000000000000000000000000000000000000000600052604160045260246000fd5b61175b82611712565b810181811067ffffffffffffffff8211171561177a57611779611723565b5b80604052505050565b600061178d6116f4565b90506117998282611752565b919050565b600067ffffffffffffffff8211156117b9576117b8611723565b5b6117c282611712565b9050602081019050919050565b82818337600083830152505050565b60006117f16117ec8461179e565b611783565b90508281526020810184848401111561180d5761180c61170d565b5b6118188482856117cf565b509392505050565b600082601f83011261183557611834611708565b5b81356118458482602086016117de565b91505092915050565b6000819050919050565b6118618161184e565b811461186c57600080fd5b50565b60008135905061187e81611858565b92915050565b600067ffffffffffffffff82111561189f5761189e611723565b5b602082029050602081019050919050565b600080fd5b60006118c86118c384611884565b611783565b905080838252602082019050602084028301858111156118eb576118ea6118b0565b5b835b8181101561193257803567ffffffffffffffff8111156119105761190f611708565b5b80860161191d8982611820565b855260208501945050506020810190506118ed565b5050509392505050565b600082601f83011261195157611950611708565b5b81356119618482602086016118b5565b91505092915050565b600067ffffffffffffffff82111561198557611984611723565b5b602082029050602081019050919050565b600067ffffffffffffffff8211156119b1576119b0611723565b5b602082029050602081019050919050565b600073ffffffffffffffffffffffffffffffffffffffff82169050919050565b60006119ed826119c2565b9050919050565b6119fd816119e2565b8114611a0857600080fd5b50565b600081359050611a1a816119f4565b92915050565b6000611a33611a2e84611996565b611783565b90508083825260208201905060208402830185811115611a5657611a556118b0565b5b835b81811015611a7f5780611a6b8882611a0b565b845260208401935050602081019050611a58565b5050509392505050565b600082601f830112611a9e57611a9d611708565b5b8135611aae848260208601611a20565b91505092915050565b6000611aca611ac58461196a565b611783565b90508083825260208201905060208402830185811115611aed57611aec6118b0565b5b835b81811015611b3457803567ffffffffffffffff811115611b1257611b11611708565b5b808601611b1f8982611a89565b85526020850194505050602081019050611aef565b5050509392505050565b600082601f830112611b5357611b52611708565b5b8135611b63848260208601611ab7565b91505092915050565b600080600080600080600080610100898b031215611b8d57611b8c6116fe565b5b600089013567ffffffffffffffff811115611bab57611baa611703565b5b611bb78b828c01611820565b985050602089013567ffffffffffffffff811115611bd857611bd7611703565b5b611be48b828c01611820565b9750506040611bf58b828c0161186f565b965050606089013567ffffffffffffffff811115611c1657611c15611703565b5b611c228b828c01611820565b955050608089013567ffffffffffffffff811115611c4357611c42611703565b5b611c4f8b828c01611820565b94505060a0611c608b828c0161186f565b93505060c089013567ffffffffffffffff811115611c8157611c80611703565b5b611c8d8b828c0161193c565b92505060e089013567ffffffffffffffff811115611cae57611cad611703565b5b611cba8b828c01611b3e565b9150509295985092959890939650565b611cd38161184e565b82525050565b6000602082019050611cee6000830184611cca565b92915050565b60008060408385031215611d0b57611d0a6116fe565b5b6000611d198582860161186f565b9250506020611d2a8582860161186f565b9150509250929050565b600081519050919050565b600082825260208201905092915050565b60005b83811015611d6e578082015181840152602081019050611d53565b60008484015250505050565b6000611d8582611d34565b611d8f8185611d3f565b9350611d9f818560208601611d50565b611da881611712565b840191505092915050565b611dbc816119e2565b82525050565b7f4e487b7100000000000000000000000000000000000000000000000000000000600052602160045260246000fd5b60028110611e0257611e01611dc2565b5b50565b6000819050611e1382611df1565b919050565b6000611e2382611e05565b9050919050565b611e3381611e18565b82525050565b60006080820190508181036000830152611e538187611d7a565b9050611e626020830186611db3565b611e6f6040830185611cca565b611e7c6060830184611e2a565b95945050505050565b600060208284031215611e9b57611e9a6116fe565b5b6000611ea98482850161186f565b91505092915050565b60006fffffffffffffffffffffffffffffffff82169050919050565b611ed781611eb2565b82525050565b60008115159050919050565b611ef281611edd565b82525050565b6000606082019050611f0d6000830186611ece565b611f1a6020830185611db3565b611f276040830184611ee9565b949350505050565b600081519050919050565b600082825260208201905092915050565b6000819050602082019050919050565b611f64816119e2565b82525050565b6000611f768383611f5b565b60208301905092915050565b6000602082019050919050565b6000611f9a82611f2f565b611fa48185611f3a565b9350611faf83611f4b565b8060005b83811015611fe0578151611fc78882611f6a565b9750611fd283611f82565b925050600181019050611fb3565b5085935050505092915050565b600060a08201905081810360008301526120078188611d7a565b9050818103602083015261201b8187611f8f565b905061202a6040830186611db3565b6120376060830185611cca565b6120446080830184611e2a565b9695505050505050565b6120578161184e565b82525050565b600067ffffffffffffffff82169050919050565b61207a8161205d565b82525050565b61208981611eb2565b82525050565b61209881611edd565b82525050565b600082825260208201905092915050565b60006120ba82611d34565b6120c4818561209e565b93506120d4818560208601611d50565b6120dd81611712565b840191505092915050565b600061014083016000830151612101600086018261204e565b5060208301516121146020860182611f5b565b5060408301516121276040860182612071565b50606083015161213a6060860182612080565b50608083015161214d6080860182612080565b5060a083015161216060a086018261208f565b5060c083015184820360c086015261217882826120af565b91505060e083015184820360e086015261219282826120af565b9150506101008301518482036101008601526121ae82826120af565b9150506101208301518482036101208601526121ca82826120af565b9150508091505092915050565b600060208201905081810360008301526121f181846120e8565b905092915050565b6122028161205d565b82525050565b60006101408201905061221e600083018d611cca565b61222b602083018c611db3565b612238604083018b6121f9565b612245606083018a611ece565b6122526080830189611ece565b61225f60a0830188611ee9565b81810360c08301526122718187611d7a565b905081810360e08301526122858186611d7a565b905081810361010083015261229a8185611d7a565b90508181036101208301526122af8184611d7a565b90509b9a5050505050505050505050565b7f53746570732064617461206d69736d6174636800000000000000000000000000600082015250565b60006122f6601383611d3f565b9150612301826122c0565b602082019050919050565b60006020820190508181036000830152612325816122e9565b9050919050565b7f5175616e74697479206d7573742062652067726561746572207468616e203000600082015250565b6000612362601f83611d3f565b915061236d8261232c565b602082019050919050565b6000602082019050818103600083015261239181612355565b9050919050565b7f5175616e7469747920746f6f206c617267650000000000000000000000000000600082015250565b60006123ce601283611d3f565b91506123d982612398565b602082019050919050565b600060208201905081810360008301526123fd816123c1565b9050919050565b7f507269636520746f6f206c617267650000000000000000000000000000000000600082015250565b600061243a600f83611d3f565b915061244582612404565b602082019050919050565b600060208201905081810360008301526124698161242d565b9050919050565b7f4e487b7100000000000000000000000000000000000000000000000000000000600052602260045260246000fd5b600060028204905060018216806124b757607f821691505b6020821081036124ca576124c9612470565b5b50919050565b60008190508160005260206000209050919050565b60006020601f8301049050919050565b600082821b905092915050565b6000600883026125327fffffffffffffffffffffffffffffffffffffffffffffffffffffffffffffffff826124f5565b61253c86836124f5565b95508019841693508086168417925050509392505050565b6000819050919050565b600061257961257461256f8461184e565b612554565b61184e565b9050919050565b6000819050919050565b6125938361255e565b6125a761259f82612580565b848454612502565b825550505050565b600090565b6125bc6125af565b6125c781848461258a565b505050565b5b818110156125eb576125e06000826125b4565b6001810190506125cd565b5050565b601f82111561263057612601816124d0565b61260a846124e5565b81016020851015612619578190505b61262d612625856124e5565b8301826125cc565b50505b505050565b600082821c905092915050565b600061265360001984600802612635565b1980831691505092915050565b600061266c8383612642565b9150826002028217905092915050565b61268582611d34565b67ffffffffffffffff81111561269e5761269d611723565b5b6126a8825461249f565b6126b38282856125ef565b600060209050601f8311600181146126e657600084156126d4578287015190505b6126de8582612660565b865550612746565b601f1984166126f4866124d0565b60005b8281101561271c578489015182556001820191506020850194506020810190506126f7565b868310156127395784890151612735601f891682612642565b8355505b6001600288020188555050505b505050505050565b7f4e487b7100000000000000000000000000000000000000000000000000000000600052603260045260246000fd5b60006040820190506127926000830185611cca565b81810360208301526127a48184611d7a565b90509392505050565b600060408201905081810360008301526127c78185611d7a565b90506127d66020830184611cca565b9392505050565b7f4c6f7420646f6573206e6f742065786973740000000000000000000000000000600082015250565b6000612813601283611d3f565b915061281e826127dd565b602082019050919050565b6000602082019050818103600083015261284281612806565b9050919050565b7f5374657020646f6573206e6f7420657869737400000000000000000000000000600082015250565b600061287f601383611d3f565b915061288a82612849565b602082019050919050565b600060208201905081810360008301526128ae81612872565b9050919050565b7f5374657020616c726561647920636f6d706c6574656400000000000000000000600082015250565b60006128eb601683611d3f565b91506128f6826128b5565b602082019050919050565b6000602082019050818103600083015261291a816128de565b9050919050565b7f4e487b7100000000000000000000000000000000000000000000000000000000600052601160045260246000fd5b600061295b8261184e565b91506129668361184e565b925082820390508181111561297e5761297d612921565b5b92915050565b7f50726576696f75732073746570206e6f7420636f6d706c657465640000000000600082015250565b60006129ba601b83611d3f565b91506129c582612984565b602082019050919050565b600060208201905081810360008301526129e9816129ad565b9050919050565b7f4e6f7420617574686f72697a656420746f2076616c696461746520746869732060008201527f7374657000000000000000000000000000000000000000000000000000000000602082015250565b6000612a4c602483611d3f565b9150612a57826129f0565b604082019050919050565b60006020820190508181036000830152612a7b81612a3f565b9050919050565b6000604082019050612a976000830185611cca565b612aa46020830184611db3565b939250505056fea264697066735822122054e272b098ef54ab1699933359803f17d071e525351638e1548aec89679622c964736f6c634300081c0033",
  "linkReferences": {},
  "deployedLinkReferences": {}
}