{
  "_format": "hh-sol-artifact-1",
  "contractName": "SupplyChain",
  "sourceName": "contracts/SupplyChain.sol",
  "abi": [
    {
      "anonymous": false,
      "inputs": [
        {
          "indexed": true,
          "internalType": "uint256",
          "name": "lotId",
          "type": "uint256"
        },
        {
          "indexed": false,
          "internalType": "string",
          "name": "title",
          "type": "string"
        },
        {
          "indexed": true,
          "internalType": "address",
          "name": "creator",
          "type": "address"
        }
      ],
      "name": "LotCreated",
      "type": "event"
    },
    {
      "anonymous": false,
      "inputs": [
        {
          "indexed": true,
          "internalType": "uint256",
          "name": "lotId",
          "type": "uint256"
        },
        {
          "indexed": false,
          "internalType": "uint256",
          "name": "stepIndex",
          "type": "uint256"
        },
        {
          "indexed": false,
          "internalType": "string",
          "name": "description",
          "type": "string"
        }
      ],
      "name": "StepAdded",
      "type": "event"
    },
    {
      "anonymous": false,
      "inputs": [
        {
          "indexed": true,
          "internalType": "uint256",
          "name": "lotId",
          "type": "uint256"
        },
        {
          "indexed": false,
          "internalType": "uint256",
          "name": "stepIndex",
          "type": "uint256"
        },
        {
          "indexed": false,
          "internalType": "address",
          "name": "validator",
          "type": "address"
        }
      ],
      "name": "StepValidated",
      "type": "event"
    },
    {
      "inputs": [
        {
          "internalType": "string",
          "name": "_title",
          "type": "string"
        },
        {
          "internalType": "string",
          "name": "_description",
          "type": "string"
        },
        {
          "internalType": "uint256",
          "name": "_quantity",
          "type": "uint256"
        },
        {
          "internalType": "string",
          "name": "_unit",
          "type": "string"
        },
        {
          "internalType": "string",
          "name": "_origin",
          "type": "string"
        },
        {
          "internalType": "string[]",
          "name": "_stepDescriptions",
          "type": "string[]"
        },
        {
          "internalType": "address[][]",
          "name": "_stepValidators",
          "type": "address[][]"
        }
      ],
      "name": "createLot",
      "outputs": [
        {
          "internalType": "uint256",
          "name": "",
          "type": "uint256"
        }
      ],
      "stateMutability": "nonpayable",
      "type": "function"
    },
    {
      "inputs": [
        {
          "internalType": "uint256",
          "name": "_lotId",
          "type": "uint256"
        }
      ],
      "name": "getLot",
      "outputs": [
        {
          "components": [
            {
              "internalType": "uint256",
              "name": "id",
              "type": "uint256"
            },
            {
              "internalType": "address",
              "name": "creator",
              "type": "address"
            },
            {
              "internalType": "uint64",
              "name": "createdAt",
              "type": "uint64"
            },
            {
              "internalType": "uint128",
              "name": "quantity",
              "type": "uint128"
            },
            {
              "internalType": "bool",
              "name": "exists",
              "type": "bool"
            },
            {
              "internalType": "string",
              "name": "title",
              "type": "string"
            },
            {
              "internalType": "string",
              "name": "description",
              "type": "string"
            },
            {
              "internalType": "string",
              "name": "unit",
              "type": "string"
            },
            {
              "internalType": "string",
              "name": "origin",
              "type": "string"
            }
          ],
          "internalType": "struct SupplyChain.Lot",
          "name": "",
          "type": "tuple"
        }
      ],
      "stateMutability": "view",
      "type": "function"
    },
    {
      "inputs": [
        {
          "internalType": "uint256",
          "name": "_lotId",
          "type": "uint256"
        }
      ],
      "name": "getLotStepsCount",
      "outputs": [
        {
          "internalType": "uint256",
          "name": "",
          "type": "uint256"
        }
      ],
      "stateMutability": "view",
      "type": "function"
    },
    {
      "inputs": [
        {
          "internalType": "uint256",
          "name": "_lotId",
          "type": "uint256"
        },
        {
          "internalType": "uint256",
          "name": "_stepIndex",
          "type": "uint256"
        }
      ],
      "name": "getStep",
      "outputs": [
        {
          "internalType": "string",
          "name": "description",
          "type": "string"
        },
        {
          "internalType": "address[]",
          "name": "validators",
          "type": "address[]"
        },
        {
          "internalType": "address",
          "name": "validatedBy",
          "type": "address"
        },
        {
          "internalType": "uint256",
          "name": "validatedAt",
          "type": "uint256"
        },
        {
          "internalType": "enum SupplyChain.StepStatus",
          "name": "status",
          "type": "uint8"
        }
      ],
      "stateMutability": "view",
      "type": "function"
    },
    {
      "inputs": [
        {
          "internalType": "uint256",
          "name": "",
          "type": "uint256"
        },
        {
          "internalType": "uint256",
          "name": "",
          "type": "uint256"
        }
      ],
      "name": "lotSteps",
      "outputs": [
        {
          "internalType": "string",
          "name": "description",
          "type": "string"
        },
        {
          "internalType": "address",
          "name": "validatedBy",
          "type": "address"
        },
        {
          "internalType": "uint256",
          "name": "validatedAt",
          "type": "uint256"
        },
        {
          "internalType": "enum SupplyChain.StepStatus",
          "name": "status",
          "type": "uint8"
        }
      ],
      "stateMutability": "view",
      "type": "function"
    },
    {
      "inputs": [
        {
          "internalType": "uint256",
          "name": "",
          "type": "uint256"
        }
      ],
      "name": "lots",
      "outputs": [
        {
          "internalType": "uint256",
          "name": "id",
          "type": "uint256"
        },
        {
          "internalType": "address",
          "name": "creator",
          "type": "address"
        },
        {
          "internalType": "uint64",
          "name": "createdAt",
          "type": "uint64"
        },
        {
          "internalType": "uint128",
          "name": "quantity",
          "type": "uint128"
        },
        {
          "internalType": "bool",
          "name": "exists",
          "type": "bool"
        },
        {
          "internalType": "string",
          "name": "title",
          "type": "string"
        },
        {
          "internalType": "string",
          "name": "description",
          "type": "string"
        },
        {
          "internalType": "string",
          "name": "unit",
          "type": "string"
        },
        {
          "internalType": "string",
          "name": "origin",
          "type": "string"
        }
      ],
      "stateMutability": "view",
      "type": "function"
    },
    {
      "inputs": [],
      "name": "nextLotId",
      "outputs": [
        {
          "internalType": "uint256",
          "name": "",
          "type": "uint256"
        }
      ],
      "stateMutability": "view",
      "type": "function"
    },
    {
      "inputs": [
        {
          "internalType": "uint256",
          "name": "_lotId",
          "type": "uint256"
        },
        {
          "internalType": "uint256",
          "name": "_stepIndex",
          "type": "uint256"
        }
      ],
      "name": "validateStep",
      "outputs": [],
      "stateMutability": "nonpayable",
      "type": "function"
    }
  ],
  "bytecode": "0x6080604052348015600f57600080fd5b506128058061001f6000396000f3fe608060405234801561001057600080fd5b50600436106100885760003560e01c8063ab995d121161005b578063ab995d1214610140578063d666f29e14610170578063eb25e9671461018e578063f1648e84146101be57610088565b806304efba871461008d5780634db04508146100c05780637f6de73a146100f457806387543aa714610124575b600080fd5b6100a760048036038101906100a2919061154b565b6101f6565b6040516100b794939291906116e2565b60405180910390f35b6100da60048036038101906100d5919061154b565b6102f8565b6040516100eb9594939291906117ec565b60405180910390f35b61010e6004803603810190610109919061184d565b6104a3565b60405161011b919061187a565b60405180910390f35b61013e6004803603810190610139919061154b565b6104c3565b005b61015a6004803603810190610155919061184d565b61089a565b6040516101679190611a31565b60405180910390f35b610178610c06565b604051610185919061187a565b60405180910390f35b6101a860048036038101906101a39190611e3e565b610c0c565b6040516101b5919061187a565b60405180910390f35b6101d860048036038101906101d3919061184d565b61110f565b6040516101ed99989796959493929190611fb5565b60405180910390f35b6001602052816000526040600020818154811061021257600080fd5b9060005260206000209060050201600091509150508060000180546102369061208d565b80601f01602080910402602001604051908101604052809291908181526020018280546102629061208d565b80156102af5780601f10610284576101008083540402835291602001916102af565b820191906000526020600020905b81548152906001019060200180831161029257829003601f168201915b5050505050908060020160009054906101000a900473ffffffffffffffffffffffffffffffffffffffff16908060030154908060040160009054906101000a900460ff16905084565b606080600080600080600160008981526020019081526020016000208781548110610326576103256120be565b5b9060005260206000209060050201905080600001816001018260020160009054906101000a900473ffffffffffffffffffffffffffffffffffffffff1683600301548460040160009054906101000a900460ff168480546103869061208d565b80601f01602080910402602001604051908101604052809291908181526020018280546103b29061208d565b80156103ff5780601f106103d4576101008083540402835291602001916103ff565b820191906000526020600020905b8154815290600101906020018083116103e257829003601f168201915b505050505094508380548060200260200160405190810160405280929190818152602001828054801561048757602002820191906000526020600020905b8160009054906101000a900473ffffffffffffffffffffffffffffffffffffffff1673ffffffffffffffffffffffffffffffffffffffff168152602001906001019080831161043d575b5050505050935095509550955095509550509295509295909350565b600060016000838152602001908152602001600020805490509050919050565b60008083815260200190815260200160002060020160109054906101000a900460ff16610525576040517f08c379a000000000000000000000000000000000000000000000000000000000815260040161051c90612139565b60405180910390fd5b6001600083815260200190815260200160002080549050811061057d576040517f08c379a0000000000000000000000000000000000000000000000000000000008152600401610574906121a5565b60405180910390fd5b60006001600084815260200190815260200160002082815481106105a4576105a36120be565b5b90600052602060002090600502019050600060018111156105c8576105c761166b565b5b8160040160009054906101000a900460ff1660018111156105ec576105eb61166b565b5b1461062c576040517f08c379a000000000000000000000000000000000000000000000000000000000815260040161062390612211565b60405180910390fd5b60008211156106eb576001808111156106485761064761166b565b5b600160008581526020019081526020016000206001846106689190612260565b81548110610679576106786120be565b5b906000526020600020906005020160040160009054906101000a900460ff1660018111156106aa576106a961166b565b5b146106ea576040517f08c379a00000000000000000000000000000000000000000000000000000000081526004016106e1906122e0565b60405180910390fd5b5b60008082600101805490500361070457600190506107a1565b60005b826001018054905081101561079f573373ffffffffffffffffffffffffffffffffffffffff16836001018281548110610743576107426120be565b5b9060005260206000200160009054906101000a900473ffffffffffffffffffffffffffffffffffffffff1673ffffffffffffffffffffffffffffffffffffffff1603610792576001915061079f565b8080600101915050610707565b505b806107e1576040517f08c379a00000000000000000000000000000000000000000000000000000000081526004016107d890612372565b60405180910390fd5b60018260040160006101000a81548160ff021916908360018111156108095761080861166b565b5b0217905550338260020160006101000a81548173ffffffffffffffffffffffffffffffffffffffff021916908373ffffffffffffffffffffffffffffffffffffffff160217905550428260030181905550837f41184de05a8122342d16fa252d13312d456991928477b2394321cfa5f703099a843360405161088c929190612392565b60405180910390a250505050565b6108a26113da565b60008083815260200190815260200160002060405180610120016040529081600082015481526020016001820160009054906101000a900473ffffffffffffffffffffffffffffffffffffffff1673ffffffffffffffffffffffffffffffffffffffff1673ffffffffffffffffffffffffffffffffffffffff1681526020016001820160149054906101000a900467ffffffffffffffff1667ffffffffffffffff1667ffffffffffffffff1681526020016002820160009054906101000a90046fffffffffffffffffffffffffffffffff166fffffffffffffffffffffffffffffffff166fffffffffffffffffffffffffffffffff1681526020016002820160109054906101000a900460ff161515151581526020016003820180546109c79061208d565b80601f01602080910402602001604051908101604052809291908181526020018280546109f39061208d565b8015610a405780601f10610a1557610100808354040283529160200191610a40565b820191906000526020600020905b815481529060010190602001808311610a2357829003601f168201915b50505050508152602001600482018054610a599061208d565b80601f0160208091040260200160405190810160405280929190818152602001828054610a859061208d565b8015610ad25780601f10610aa757610100808354040283529160200191610ad2565b820191906000526020600020905b815481529060010190602001808311610ab557829003601f168201915b50505050508152602001600582018054610aeb9061208d565b80601f0160208091040260200160405190810160405280929190818152602001828054610b179061208d565b8015610b645780601f10610b3957610100808354040283529160200191610b64565b820191906000526020600020905b815481529060010190602001808311610b4757829003601f168201915b50505050508152602001600682018054610b7d9061208d565b80601f0160208091040260200160405190810160405280929190818152602001828054610ba99061208d565b8015610bf65780601f10610bcb57610100808354040283529160200191610bf6565b820191906000526020600020905b815481529060010190602001808311610bd957829003601f168201915b5050505050815250509050919050565b60025481565b60008151835114610c52576040517f08c379a0000000000000000000000000000000000000000000000000000000008152600401610c4990612407565b60405180910390fd5b60008611610c95576040517f08c379a0000000000000000000000000000000000000000000000000000000008152600401610c8c90612473565b60405180910390fd5b6fffffffffffffffffffffffffffffffff8016861115610cea576040517f08c379a0000000000000000000000000000000000000000000000000000000008152600401610ce1906124df565b60405180910390fd5b600060025490506040518061012001604052808281526020013373ffffffffffffffffffffffffffffffffffffffff1681526020014267ffffffffffffffff168152602001886fffffffffffffffffffffffffffffffff1681526020016001151581526020018a8152602001898152602001878152602001868152506000808381526020019081526020016000206000820151816000015560208201518160010160006101000a81548173ffffffffffffffffffffffffffffffffffffffff021916908373ffffffffffffffffffffffffffffffffffffffff16021790555060408201518160010160146101000a81548167ffffffffffffffff021916908367ffffffffffffffff16021790555060608201518160020160006101000a8154816fffffffffffffffffffffffffffffffff02191690836fffffffffffffffffffffffffffffffff16021790555060808201518160020160106101000a81548160ff02191690831515021790555060a0820151816003019081610e6c91906126ab565b5060c0820151816004019081610e8291906126ab565b5060e0820151816005019081610e9891906126ab565b50610100820151816006019081610eaf91906126ab565b5090505060005b845181101561109e5760006040518060a00160405280878481518110610edf57610ede6120be565b5b60200260200101518152602001868481518110610eff57610efe6120be565b5b60200260200101518152602001600073ffffffffffffffffffffffffffffffffffffffff1681526020016000815260200160006001811115610f4457610f4361166b565b5b8152509050600160008481526020019081526020016000208190806001815401808255809150506001900390600052602060002090600502016000909190919091506000820151816000019081610f9b91906126ab565b506020820151816001019080519060200190610fb892919061145a565b5060408201518160020160006101000a81548173ffffffffffffffffffffffffffffffffffffffff021916908373ffffffffffffffffffffffffffffffffffffffff1602179055506060820151816003015560808201518160040160006101000a81548160ff021916908360018111156110355761103461166b565b5b02179055505050827f99cc24a042b68d2ab1bec337a6c99bf8c9eeb2113fe5b53eb15be3fbda96f87183888581518110611072576110716120be565b5b602002602001015160405161108892919061277d565b60405180910390a2508080600101915050610eb6565b503373ffffffffffffffffffffffffffffffffffffffff16817f7b8b6910cc0fe6c7733361ed6ce8e93a248625fa33ec88447ba7ba7f3089b8278b6040516110e691906127ad565b60405180910390a360026000815480929190600101919050555080915050979650505050505050565b60006020528060005260406000206000915090508060000154908060010160009054906101000a900473ffffffffffffffffffffffffffffffffffffffff16908060010160149054906101000a900467ffffffffffffffff16908060020160009054906101000a90046fffffffffffffffffffffffffffffffff16908060020160109054906101000a900460ff16908060030180546111ad9061208d565b80601f01602080910402602001604051908101604052809291908181526020018280546111d99061208d565b80156112265780601f106111fb57610100808354040283529160200191611226565b820191906000526020600020905b81548152906001019060200180831161120957829003601f168201915b50505050509080600401805461123b9061208d565b80601f01602080910402602001604051908101604052809291908181526020018280546112679061208d565b80156112b45780601f10611289576101008083540402835291602001916112b4565b820191906000526020600020905b81548152906001019060200180831161129757829003601f168201915b5050505050908060050180546112c99061208d565b80601f01602080910402602001604051908101604052809291908181526020018280546112f59061208d565b80156113425780601f1061131757610100808354040283529160200191611342565b820191906000526020600020905b81548152906001019060200180831161132557829003601f168201915b5050505050908060060180546113579061208d565b80601f01602080910402602001604051908101604052809291908181526020018280546113839061208d565b80156113d05780601f106113a5576101008083540402835291602001916113d0565b820191906000526020600020905b8154815290600101906020018083116113b357829003601f168201915b5050505050905089565b60405180610120016040528060008152602001600073ffffffffffffffffffffffffffffffffffffffff168152602001600067ffffffffffffffff16815260200160006fffffffffffffffffffffffffffffffff168152602001600015158152602001606081526020016060815260200160608152602001606081525090565b8280548282559060005260206000209081019282156114d3579160200282015b828111156114d25782518260006101000a81548173ffffffffffffffffffffffffffffffffffffffff021916908373ffffffffffffffffffffffffffffffffffffffff1602179055509160200191906001019061147a565b5b5090506114e091906114e4565b5090565b5b808211156114fd5760008160009055506001016114e5565b5090565b6000604051905090565b600080fd5b600080fd5b6000819050919050565b61152881611515565b811461153357600080fd5b50565b6000813590506115458161151f565b92915050565b600080604083850312156115625761156161150b565b5b600061157085828601611536565b925050602061158185828601611536565b9150509250929050565b600081519050919050565b600082825260208201905092915050565b60005b838110156115c55780820151818401526020810190506115aa565b60008484015250505050565b6000601f19601f8301169050919050565b60006115ed8261158b565b6115f78185611596565b93506116078185602086016115a7565b611610816115d1565b840191505092915050565b600073ffffffffffffffffffffffffffffffffffffffff82169050919050565b60006116468261161b565b9050919050565b6116568161163b565b82525050565b61166581611515565b82525050565b7f4e487b7100000000000000000000000000000000000000000000000000000000600052602160045260246000fd5b600281106116ab576116aa61166b565b5b50565b60008190506116bc8261169a565b919050565b60006116cc826116ae565b9050919050565b6116dc816116c1565b82525050565b600060808201905081810360008301526116fc81876115e2565b905061170b602083018661164d565b611718604083018561165c565b61172560608301846116d3565b95945050505050565b600081519050919050565b600082825260208201905092915050565b6000819050602082019050919050565b6117638161163b565b82525050565b6000611775838361175a565b60208301905092915050565b6000602082019050919050565b60006117998261172e565b6117a38185611739565b93506117ae8361174a565b8060005b838110156117df5781516117c68882611769565b97506117d183611781565b9250506001810190506117b2565b5085935050505092915050565b600060a082019050818103600083015261180681886115e2565b9050818103602083015261181a818761178e565b9050611829604083018661164d565b611836606083018561165c565b61184360808301846116d3565b9695505050505050565b6000602082840312156118635761186261150b565b5b600061187184828501611536565b91505092915050565b600060208201905061188f600083018461165c565b92915050565b61189e81611515565b82525050565b600067ffffffffffffffff82169050919050565b6118c1816118a4565b82525050565b60006fffffffffffffffffffffffffffffffff82169050919050565b6118ec816118c7565b82525050565b60008115159050919050565b611907816118f2565b82525050565b600082825260208201905092915050565b60006119298261158b565b611933818561190d565b93506119438185602086016115a7565b61194c816115d1565b840191505092915050565b6000610120830160008301516119706000860182611895565b506020830151611983602086018261175a565b50604083015161199660408601826118b8565b5060608301516119a960608601826118e3565b5060808301516119bc60808601826118fe565b5060a083015184820360a08601526119d4828261191e565b91505060c083015184820360c08601526119ee828261191e565b91505060e083015184820360e0860152611a08828261191e565b915050610100830151848203610100860152611a24828261191e565b9150508091505092915050565b60006020820190508181036000830152611a4b8184611957565b905092915050565b600080fd5b600080fd5b7f4e487b7100000000000000000000000000000000000000000000000000000000600052604160045260246000fd5b611a95826115d1565b810181811067ffffffffffffffff82111715611ab457611ab3611a5d565b5b80604052505050565b6000611ac7611501565b9050611ad38282611a8c565b919050565b600067ffffffffffffffff821115611af357611af2611a5d565b5b611afc826115d1565b9050602081019050919050565b82818337600083830152505050565b6000611b2b611b2684611ad8565b611abd565b905082815260208101848484011115611b4757611b46611a58565b5b611b52848285611b09565b509392505050565b600082601f830112611b6f57611b6e611a53565b5b8135611b7f848260208601611b18565b91505092915050565b600067ffffffffffffffff821115611ba357611ba2611a5d565b5b602082029050602081019050919050565b600080fd5b6000611bcc611bc784611b88565b611abd565b90508083825260208201905060208402830185811115611bef57611bee611bb4565b5b835b81811015611c3657803567ffffffffffffffff811115611c1457611c13611a53565b5b808601611c218982611b5a565b85526020850194505050602081019050611bf1565b5050509392505050565b600082601f830112611c5557611c54611a53565b5b8135611c65848260208601611bb9565b91505092915050565b600067ffffffffffffffff821115611c8957611c88611a5d565b5b602082029050602081019050919050565b600067ffffffffffffffff821115611cb557611cb4611a5d565b5b602082029050602081019050919050565b611ccf8161163b565b8114611cda57600080fd5b50565b600081359050611cec81611cc6565b92915050565b6000611d05611d0084611c9a565b611abd565b90508083825260208201905060208402830185811115611d2857611d27611bb4565b5b835b81811015611d515780611d3d8882611cdd565b845260208401935050602081019050611d2a565b5050509392505050565b600082601f830112611d7057611d6f611a53565b5b8135611d80848260208601611cf2565b91505092915050565b6000611d9c611d9784611c6e565b611abd565b90508083825260208201905060208402830185811115611dbf57611dbe611bb4565b5b835b81811015611e0657803567ffffffffffffffff811115611de457611de3611a53565b5b808601611df18982611d5b565b85526020850194505050602081019050611dc1565b5050509392505050565b600082601f830112611e2557611e24611a53565b5b8135611e35848260208601611d89565b91505092915050565b600080600080600080600060e0888a031215611e5d57611e5c61150b565b5b600088013567ffffffffffffffff811115611e7b57611e7a611510565b5b611e878a828b01611b5a565b975050602088013567ffffffffffffffff811115611ea857611ea7611510565b5b611eb48a828b01611b5a565b9650506040611ec58a828b01611536565b955050606088013567ffffffffffffffff811115611ee657611ee5611510565b5b611ef28a828b01611b5a565b945050608088013567ffffffffffffffff811115611f1357611f12611510565b5b611f1f8a828b01611b5a565b93505060a088013567ffffffffffffffff811115611f4057611f3f611510565b5b611f4c8a828b01611c40565b92505060c088013567ffffffffffffffff811115611f6d57611f6c611510565b5b611f798a828b01611e10565b91505092959891949750929550565b611f91816118a4565b82525050565b611fa0816118c7565b82525050565b611faf816118f2565b82525050565b600061012082019050611fcb600083018c61165c565b611fd8602083018b61164d565b611fe5604083018a611f88565b611ff26060830189611f97565b611fff6080830188611fa6565b81810360a083015261201181876115e2565b905081810360c083015261202581866115e2565b905081810360e083015261203981856115e2565b905081810361010083015261204e81846115e2565b90509a9950505050505050505050565b7f4e487b7100000000000000000000000000000000000000000000000000000000600052602260045260246000fd5b600060028204905060018216806120a557607f821691505b6020821081036120b8576120b761205e565b5b50919050565b7f4e487b7100000000000000000000000000000000000000000000000000000000600052603260045260246000fd5b7f4c6f7420646f6573206e6f742065786973740000000000000000000000000000600082015250565b6000612123601283611596565b915061212e826120ed565b602082019050919050565b6000602082019050818103600083015261215281612116565b9050919050565b7f5374657020646f6573206e6f7420657869737400000000000000000000000000600082015250565b600061218f601383611596565b915061219a82612159565b602082019050919050565b600060208201905081810360008301526121be81612182565b9050919050565b7f5374657020616c726561647920636f6d706c6574656400000000000000000000600082015250565b60006121fb601683611596565b9150612206826121c5565b602082019050919050565b6000602082019050818103600083015261222a816121ee565b9050919050565b7f4e487b7100000000000000000000000000000000000000000000000000000000600052601160045260246000fd5b600061226b82611515565b915061227683611515565b925082820390508181111561228e5761228d612231565b5b92915050565b7f50726576696f75732073746570206e6f7420636f6d706c657465640000000000600082015250565b60006122ca601b83611596565b91506122d582612294565b602082019050919050565b600060208201905081810360008301526122f9816122bd565b9050919050565b7f4e6f7420617574686f72697a656420746f2076616c696461746520746869732060008201527f7374657000000000000000000000000000000000000000000000000000000000602082015250565b600061235c602483611596565b915061236782612300565b604082019050919050565b6000602082019050818103600083015261238b8161234f565b9050919050565b60006040820190506123a7600083018561165c565b6123b4602083018461164d565b9392505050565b7f53746570732064617461206d69736d6174636800000000000000000000000000600082015250565b60006123f1601383611596565b91506123fc826123bb565b602082019050919050565b60006020820190508181036000830152612420816123e4565b9050919050565b7f5175616e74697479206d7573742062652067726561746572207468616e203000600082015250565b600061245d601f83611596565b915061246882612427565b602082019050919050565b6000602082019050818103600083015261248c81612450565b9050919050565b7f5175616e7469747920746f6f206c617267650000000000000000000000000000600082015250565b60006124c9601283611596565b91506124d482612493565b602082019050919050565b600060208201905081810360008301526124f8816124bc565b9050919050565b60008190508160005260206000209050919050565b60006020601f8301049050919050565b600082821b905092915050565b6000600883026125617fffffffffffffffffffffffffffffffffffffffffffffffffffffffffffffffff82612524565b61256b8683612524565b95508019841693508086168417925050509392505050565b6000819050919050565b60006125a86125a361259e84611515565b612583565b611515565b9050919050565b6000819050919050565b6125c28361258d565b6125d66125ce826125af565b848454612531565b825550505050565b600090565b6125eb6125de565b6125f68184846125b9565b505050565b5b8181101561261a5761260f6000826125e3565b6001810190506125fc565b5050565b601f82111561265f57612630816124ff565b61263984612514565b81016020851015612648578190505b61265c61265485612514565b8301826125fb565b50505b505050565b600082821c905092915050565b600061268260001984600802612664565b1980831691505092915050565b600061269b8383612671565b9150826002028217905092915050565b6126b48261158b565b67ffffffffffffffff8111156126cd576126cc611a5d565b5b6126d7825461208d565b6126e282828561261e565b600060209050601f8311600181146127155760008415612703578287015190505b61270d858261268f565b865550612775565b601f198416612723866124ff565b60005b8281101561274b57848901518255600182019150602085019450602081019050612726565b868310156127685784890151612764601f891682612671565b8355505b6001600288020188555050505b505050505050565b6000604082019050612792600083018561165c565b81810360208301526127a481846115e2565b90509392505050565b600060208201905081810360008301526127c781846115e2565b90509291505056fea2646970667358221220035968d2166319f2657df9880c70e045c0a96802357c69c702cee945ece619f664736f6c634300081c0033",
  "linkReferences": {},
  "deployedLinkReferences": {}
}