{
  "_format": "hh-sol-artifact-1",
  "contractName": "ContractTransport",
  "sourceName": "contracts/ContractTransport.sol",
  "abi": [
    {
      "inputs": [
        {
          "internalType": "address",
          "name": "_contractLotAddress",
          "type": "address"
        }
      ],
      "stateMutability": "nonpayable",
      "type": "constructor"
    },
    {
      "anonymous": false,
      "inputs": [
        {
          "indexed": true,
          "internalType": "uint256",
          "name": "lotId",
          "type": "uint256"
        },
        {
          "indexed": false,
          "internalType": "string",
          "name": "location",
          "type": "string"
        },
        {
          "indexed": false,
          "internalType": "string",
          "name": "status",
          "type": "string"
        },
        {
          "indexed": false,
          "internalType": "address",
          "name": "handler",
          "type": "address"
        }
      ],
      "name": "StepAdded",
      "type": "event"
    },
    {
      "inputs": [
        {
          "internalType": "uint256",
          "name": "_lotId",
          "type": "uint256"
        },
        {
          "internalType": "string",
          "name": "_location",
          "type": "string"
        },
        {
          "internalType": "string",
          "name": "_status",
          "type": "string"
        },
        {
          "internalType": "uint256",
          "name": "_temperature",
          "type": "uint256"
        }
      ],
      "name": "addStep",
      "outputs": [],
      "stateMutability": "nonpayable",
      "type": "function"
    },
    {
      "inputs": [],
      "name": "contractLot",
      "outputs": [
        {
          "internalType": "contract IContractLot",
          "name": "",
          "type": "address"
        }
      ],
      "stateMutability": "view",
      "type": "function"
    },
    {
      "inputs": [
        {
          "internalType": "uint256",
          "name": "_lotId",
          "type": "uint256"
        }
      ],
      "name": "getHistory",
      "outputs": [
        {
          "components": [
            {
              "internalType": "string",
              "name": "location",
              "type": "string"
            },
            {
              "internalType": "string",
              "name": "status",
              "type": "string"
            },
            {
              "internalType": "uint256",
              "name": "temperature",
              "type": "uint256"
            },
            {
              "internalType": "uint256",
              "name": "timestamp",
              "type": "uint256"
            },
            {
              "internalType": "address",
              "name": "handler",
              "type": "address"
            }
          ],
          "internalType": "struct ContractTransport.Step[]",
          "name": "",
          "type": "tuple[]"
        }
      ],
      "stateMutability": "view",
      "type": "function"
    },
    {
      "inputs": [
        {
          "internalType": "uint256",
          "name": "",
          "type": "uint256"
        },
        {
          "internalType": "uint256",
          "name": "",
          "type": "uint256"
        }
      ],
      "name": "trackingHistory",
      "outputs": [
        {
          "internalType": "string",
          "name": "location",
          "type": "string"
        },
        {
          "internalType": "string",
          "name": "status",
          "type": "string"
        },
        {
          "internalType": "uint256",
          "name": "temperature",
          "type": "uint256"
        },
        {
          "internalType": "uint256",
          "name": "timestamp",
          "type": "uint256"
        },
        {
          "internalType": "address",
          "name": "handler",
          "type": "address"
        }
      ],
      "stateMutability": "view",
      "type": "function"
    }
  ],
  "bytecode": "0x608060405234801561001057600080fd5b50604051611517380380611517833981810160405281019061003291906100db565b806000806101000a81548173ffffffffffffffffffffffffffffffffffffffff021916908373ffffffffffffffffffffffffffffffffffffffff16021790555050610108565b600080fd5b600073ffffffffffffffffffffffffffffffffffffffff82169050919050565b60006100a88261007d565b9050919050565b6100b88161009d565b81146100c357600080fd5b50565b6000815190506100d5816100af565b92915050565b6000602082840312156100f1576100f0610078565b5b60006100ff848285016100c6565b91505092915050565b611400806101176000396000f3fe608060405234801561001057600080fd5b506004361061004c5760003560e01c806333f8233d146100515780638eb38ab21461006f578063c8691b2a1461008b578063e097b6b1146100bb575b600080fd5b6100596100ef565b604051610066919061085d565b60405180910390f35b61008960048036038101906100849190610a08565b610113565b005b6100a560048036038101906100a09190610aa7565b61045b565b6040516100b29190610cc2565b60405180910390f35b6100d560048036038101906100d09190610ce4565b61065b565b6040516100e6959493929190610d8c565b60405180910390f35b60008054906101000a900473ffffffffffffffffffffffffffffffffffffffff1681565b60008060009054906101000a900473ffffffffffffffffffffffffffffffffffffffff1673ffffffffffffffffffffffffffffffffffffffff1663dff7bd60866040518263ffffffff1660e01b815260040161016f9190610ded565b6040805180830381865afa15801561018b573d6000803e3d6000fd5b505050506040513d601f19601f820116820180604052508101906101af9190610e34565b50905060008173ffffffffffffffffffffffffffffffffffffffff163373ffffffffffffffffffffffffffffffffffffffff16149050806102cf5760008060009054906101000a900473ffffffffffffffffffffffffffffffffffffffff1673ffffffffffffffffffffffffffffffffffffffff1663ab995d12886040518263ffffffff1660e01b81526004016102469190610ded565b600060405180830381865afa158015610263573d6000803e3d6000fd5b505050506040513d6000823e3d601f19601f8201168201806040525081019061028c9190610f31565b5050509450505050508073ffffffffffffffffffffffffffffffffffffffff163373ffffffffffffffffffffffffffffffffffffffff16036102cd57600191505b505b8061030f576040517f08c379a000000000000000000000000000000000000000000000000000000000815260040161030690611091565b60405180910390fd5b60006040518060a001604052808781526020018681526020018581526020014281526020013373ffffffffffffffffffffffffffffffffffffffff1681525090506001600088815260200190815260200160002081908060018154018082558091505060019003906000526020600020906005020160009091909190915060008201518160000190816103a291906112b3565b5060208201518160010190816103b891906112b3565b50604082015181600201556060820151816003015560808201518160040160006101000a81548173ffffffffffffffffffffffffffffffffffffffff021916908373ffffffffffffffffffffffffffffffffffffffff1602179055505050867f20078cd40a821ea95d6437fc88fb514e0418a9f25d03bdef10f6efeae0a0e7f487873360405161044a93929190611385565b60405180910390a250505050505050565b606060016000838152602001908152602001600020805480602002602001604051908101604052809291908181526020016000905b8282101561065057838290600052602060002090600502016040518060a00160405290816000820180546104c3906110e0565b80601f01602080910402602001604051908101604052809291908181526020018280546104ef906110e0565b801561053c5780601f106105115761010080835404028352916020019161053c565b820191906000526020600020905b81548152906001019060200180831161051f57829003601f168201915b50505050508152602001600182018054610555906110e0565b80601f0160208091040260200160405190810160405280929190818152602001828054610581906110e0565b80156105ce5780601f106105a3576101008083540402835291602001916105ce565b820191906000526020600020905b8154815290600101906020018083116105b157829003601f168201915b5050505050815260200160028201548152602001600382015481526020016004820160009054906101000a900473ffffffffffffffffffffffffffffffffffffffff1673ffffffffffffffffffffffffffffffffffffffff1673ffffffffffffffffffffffffffffffffffffffff168152505081526020019060010190610490565b505050509050919050565b6001602052816000526040600020818154811061067757600080fd5b90600052602060002090600502016000915091505080600001805461069b906110e0565b80601f01602080910402602001604051908101604052809291908181526020018280546106c7906110e0565b80156107145780601f106106e957610100808354040283529160200191610714565b820191906000526020600020905b8154815290600101906020018083116106f757829003601f168201915b505050505090806001018054610729906110e0565b80601f0160208091040260200160405190810160405280929190818152602001828054610755906110e0565b80156107a25780601f10610777576101008083540402835291602001916107a2565b820191906000526020600020905b81548152906001019060200180831161078557829003601f168201915b5050505050908060020154908060030154908060040160009054906101000a900473ffffffffffffffffffffffffffffffffffffffff16905085565b600073ffffffffffffffffffffffffffffffffffffffff82169050919050565b6000819050919050565b600061082361081e610819846107de565b6107fe565b6107de565b9050919050565b600061083582610808565b9050919050565b60006108478261082a565b9050919050565b6108578161083c565b82525050565b6000602082019050610872600083018461084e565b92915050565b6000604051905090565b600080fd5b600080fd5b6000819050919050565b61089f8161088c565b81146108aa57600080fd5b50565b6000813590506108bc81610896565b92915050565b600080fd5b600080fd5b6000601f19601f8301169050919050565b7f4e487b7100000000000000000000000000000000000000000000000000000000600052604160045260246000fd5b610915826108cc565b810181811067ffffffffffffffff82111715610934576109336108dd565b5b80604052505050565b6000610947610878565b9050610953828261090c565b919050565b600067ffffffffffffffff821115610973576109726108dd565b5b61097c826108cc565b9050602081019050919050565b82818337600083830152505050565b60006109ab6109a684610958565b61093d565b9050828152602081018484840111156109c7576109c66108c7565b5b6109d2848285610989565b509392505050565b600082601f8301126109ef576109ee6108c2565b5b81356109ff848260208601610998565b91505092915050565b60008060008060808587031215610a2257610a21610882565b5b6000610a30878288016108ad565b945050602085013567ffffffffffffffff811115610a5157610a50610887565b5b610a5d878288016109da565b935050604085013567ffffffffffffffff811115610a7e57610a7d610887565b5b610a8a878288016109da565b9250506060610a9b878288016108ad565b91505092959194509250565b600060208284031215610abd57610abc610882565b5b6000610acb848285016108ad565b91505092915050565b600081519050919050565b600082825260208201905092915050565b6000819050602082019050919050565b600081519050919050565b600082825260208201905092915050565b60005b83811015610b3a578082015181840152602081019050610b1f565b60008484015250505050565b6000610b5182610b00565b610b5b8185610b0b565b9350610b6b818560208601610b1c565b610b74816108cc565b840191505092915050565b610b888161088c565b82525050565b6000610b99826107de565b9050919050565b610ba981610b8e565b82525050565b600060a0830160008301518482036000860152610bcc8282610b46565b91505060208301518482036020860152610be68282610b46565b9150506040830151610bfb6040860182610b7f565b506060830151610c0e6060860182610b7f565b506080830151610c216080860182610ba0565b508091505092915050565b6000610c388383610baf565b905092915050565b6000602082019050919050565b6000610c5882610ad4565b610c628185610adf565b935083602082028501610c7485610af0565b8060005b85811015610cb05784840389528151610c918582610c2c565b9450610c9c83610c40565b925060208a01995050600181019050610c78565b50829750879550505050505092915050565b60006020820190508181036000830152610cdc8184610c4d565b905092915050565b60008060408385031215610cfb57610cfa610882565b5b6000610d09858286016108ad565b9250506020610d1a858286016108ad565b9150509250929050565b600082825260208201905092915050565b6000610d4082610b00565b610d4a8185610d24565b9350610d5a818560208601610b1c565b610d63816108cc565b840191505092915050565b610d778161088c565b82525050565b610d8681610b8e565b82525050565b600060a0820190508181036000830152610da68188610d35565b90508181036020830152610dba8187610d35565b9050610dc96040830186610d6e565b610dd66060830185610d6e565b610de36080830184610d7d565b9695505050505050565b6000602082019050610e026000830184610d6e565b92915050565b610e1181610b8e565b8114610e1c57600080fd5b50565b600081519050610e2e81610e08565b92915050565b60008060408385031215610e4b57610e4a610882565b5b6000610e5985828601610e1f565b9250506020610e6a85828601610e1f565b9150509250929050565b600081519050610e8381610896565b92915050565b6000610e9c610e9784610958565b61093d565b905082815260208101848484011115610eb857610eb76108c7565b5b610ec3848285610b1c565b509392505050565b600082601f830112610ee057610edf6108c2565b5b8151610ef0848260208601610e89565b91505092915050565b60008115159050919050565b610f0e81610ef9565b8114610f1957600080fd5b50565b600081519050610f2b81610f05565b92915050565b600080600080600080600080610100898b031215610f5257610f51610882565b5b6000610f608b828c01610e74565b985050602089015167ffffffffffffffff811115610f8157610f80610887565b5b610f8d8b828c01610ecb565b975050604089015167ffffffffffffffff811115610fae57610fad610887565b5b610fba8b828c01610ecb565b9650506060610fcb8b828c01610e74565b9550506080610fdc8b828c01610e1f565b94505060a0610fed8b828c01610e1f565b93505060c0610ffe8b828c01610e1f565b92505060e061100f8b828c01610f1c565b9150509295985092959890939650565b7f4e6f7420617574686f72697a656420746f20616464207472616e73706f72742060008201527f7374657073000000000000000000000000000000000000000000000000000000602082015250565b600061107b602583610d24565b91506110868261101f565b604082019050919050565b600060208201905081810360008301526110aa8161106e565b9050919050565b7f4e487b7100000000000000000000000000000000000000000000000000000000600052602260045260246000fd5b600060028204905060018216806110f857607f821691505b60208210810361110b5761110a6110b1565b5b50919050565b60008190508160005260206000209050919050565b60006020601f8301049050919050565b600082821b905092915050565b6000600883026111737fffffffffffffffffffffffffffffffffffffffffffffffffffffffffffffffff82611136565b61117d8683611136565b95508019841693508086168417925050509392505050565b60006111b06111ab6111a68461088c565b6107fe565b61088c565b9050919050565b6000819050919050565b6111ca83611195565b6111de6111d6826111b7565b848454611143565b825550505050565b600090565b6111f36111e6565b6111fe8184846111c1565b505050565b5b81811015611222576112176000826111eb565b600181019050611204565b5050565b601f8211156112675761123881611111565b61124184611126565b81016020851015611250578190505b61126461125c85611126565b830182611203565b50505b505050565b600082821c905092915050565b600061128a6000198460080261126c565b1980831691505092915050565b60006112a38383611279565b9150826002028217905092915050565b6112bc82610b00565b67ffffffffffffffff8111156112d5576112d46108dd565b5b6112df82546110e0565b6112ea828285611226565b600060209050601f83116001811461131d576000841561130b578287015190505b6113158582611297565b86555061137d565b601f19841661132b86611111565b60005b828110156113535784890151825560018201915060208501945060208101905061132e565b86831015611370578489015161136c601f891682611279565b8355505b6001600288020188555050505b505050505050565b6000606082019050818103600083015261139f8186610d35565b905081810360208301526113b38185610d35565b90506113c26040830184610d7d565b94935050505056fea2646970667358221220aa6ac71cb1fe9e9b5f95c9b10e137a33ee36c6af707c59ec43e26b4b8e27e45d64736f6c634300081c0033",
  "linkReferences": {},
  "deployedLinkReferences": {}
}